{
  "contractName": "AddressSetLib",
  "abi": [
    {
      "constant": true,
      "inputs": [
        {
          "name": "self",
          "type": "AddressSetLib.AddressSet storage"
        },
        {
          "name": "index",
          "type": "uint256"
        }
      ],
      "name": "get",
      "outputs": [
        {
          "name": "",
          "type": "address"
        }
      ],
      "payable": false,
      "stateMutability": "view",
      "type": "function"
    },
    {
      "constant": false,
      "inputs": [
        {
          "name": "self",
          "type": "AddressSetLib.AddressSet storage"
        },
        {
          "name": "index",
          "type": "uint256"
        },
        {
          "name": "value",
          "type": "address"
        }
      ],
      "name": "set",
      "outputs": [
        {
          "name": "",
          "type": "bool"
        }
      ],
      "payable": false,
      "stateMutability": "nonpayable",
      "type": "function"
    },
    {
      "constant": false,
      "inputs": [
        {
          "name": "self",
          "type": "AddressSetLib.AddressSet storage"
        },
        {
          "name": "value",
          "type": "address"
        }
      ],
      "name": "add",
      "outputs": [
        {
          "name": "",
          "type": "bool"
        }
      ],
      "payable": false,
      "stateMutability": "nonpayable",
      "type": "function"
    },
    {
      "constant": false,
      "inputs": [
        {
          "name": "self",
          "type": "AddressSetLib.AddressSet storage"
        },
        {
          "name": "value",
          "type": "address"
        }
      ],
      "name": "remove",
      "outputs": [
        {
          "name": "",
          "type": "bool"
        }
      ],
      "payable": false,
      "stateMutability": "nonpayable",
      "type": "function"
    },
    {
      "constant": false,
      "inputs": [
        {
          "name": "self",
          "type": "AddressSetLib.AddressSet storage"
        },
        {
          "name": "index",
          "type": "uint256"
        }
      ],
      "name": "pop",
      "outputs": [
        {
          "name": "",
          "type": "address"
        }
      ],
      "payable": false,
      "stateMutability": "nonpayable",
      "type": "function"
    },
    {
      "constant": true,
      "inputs": [
        {
          "name": "self",
          "type": "AddressSetLib.AddressSet storage"
        }
      ],
      "name": "first",
      "outputs": [
        {
          "name": "",
          "type": "address"
        }
      ],
      "payable": false,
      "stateMutability": "view",
      "type": "function"
    },
    {
      "constant": true,
      "inputs": [
        {
          "name": "self",
          "type": "AddressSetLib.AddressSet storage"
        }
      ],
      "name": "last",
      "outputs": [
        {
          "name": "",
          "type": "address"
        }
      ],
      "payable": false,
      "stateMutability": "view",
      "type": "function"
    },
    {
      "constant": true,
      "inputs": [
        {
          "name": "self",
          "type": "AddressSetLib.AddressSet storage"
        },
        {
          "name": "value",
          "type": "address"
        }
      ],
      "name": "indexOf",
      "outputs": [
        {
          "name": "",
          "type": "uint256"
        }
      ],
      "payable": false,
      "stateMutability": "view",
      "type": "function"
    },
    {
      "constant": true,
      "inputs": [
        {
          "name": "self",
          "type": "AddressSetLib.AddressSet storage"
        },
        {
          "name": "value",
          "type": "address"
        }
      ],
      "name": "contains",
      "outputs": [
        {
          "name": "",
          "type": "bool"
        }
      ],
      "payable": false,
      "stateMutability": "view",
      "type": "function"
    },
    {
      "constant": true,
      "inputs": [
        {
          "name": "self",
          "type": "AddressSetLib.AddressSet storage"
        }
      ],
      "name": "size",
      "outputs": [
        {
          "name": "",
          "type": "uint256"
        }
      ],
      "payable": false,
      "stateMutability": "view",
      "type": "function"
    }
  ],
  "bytecode": "0x610ca7610030600b82828239805160001a6073146000811461002057610022565bfe5b5030600052607381538281f3fe73000000000000000000000000000000000000000030146080604052600436106100bb576000357c0100000000000000000000000000000000000000000000000000000000900463ffffffff1680631d4cf6c4146100c05780631e40161614610102578063499b67d914610175578063840d4d37146101e8578063af026a9014610265578063ba39f4a5146102c7578063da5d234814610335578063dc02e70d146103ad578063eae5496714610413578063efc33f1e14610481575b600080fd5b6100ec600480360360208110156100d657600080fd5b8101908080359060200190929190505050610506565b6040518082815260200191505060405180910390f35b81801561010e57600080fd5b5061015b6004803603604081101561012557600080fd5b8101908080359060200190929190803573ffffffffffffffffffffffffffffffffffffffff169060200190929190505050610517565b604051808215151515815260200191505060405180910390f35b81801561018157600080fd5b506101ce6004803603604081101561019857600080fd5b8101908080359060200190929190803573ffffffffffffffffffffffffffffffffffffffff169060200190929190505050610690565b604051808215151515815260200191505060405180910390f35b8180156101f457600080fd5b5061024b6004803603606081101561020b57600080fd5b810190808035906020019092919080359060200190929190803573ffffffffffffffffffffffffffffffffffffffff169060200190929190505050610715565b604051808215151515815260200191505060405180910390f35b6102b16004803603604081101561027b57600080fd5b8101908080359060200190929190803573ffffffffffffffffffffffffffffffffffffffff169060200190929190505050610893565b6040518082815260200191505060405180910390f35b6102f3600480360360208110156102dd57600080fd5b810190808035906020019092919050505061095d565b604051808273ffffffffffffffffffffffffffffffffffffffff1673ffffffffffffffffffffffffffffffffffffffff16815260200191505060405180910390f35b61036b6004803603604081101561034b57600080fd5b810190808035906020019092919080359060200190929190505050610993565b604051808273ffffffffffffffffffffffffffffffffffffffff1673ffffffffffffffffffffffffffffffffffffffff16815260200191505060405180910390f35b6103f9600480360360408110156103c357600080fd5b8101908080359060200190929190803573ffffffffffffffffffffffffffffffffffffffff1690602001909291905050506109f2565b604051808215151515815260200191505060405180910390f35b61043f6004803603602081101561042957600080fd5b8101908080359060200190929190505050610a4b565b604051808273ffffffffffffffffffffffffffffffffffffffff1673ffffffffffffffffffffffffffffffffffffffff16815260200191505060405180910390f35b81801561048d57600080fd5b506104c4600480360360408110156104a457600080fd5b810190808035906020019092919080359060200190929190505050610a78565b604051808273ffffffffffffffffffffffffffffffffffffffff1673ffffffffffffffffffffffffffffffffffffffff16815260200191505060405180910390f35b600081600001805490509050919050565b60008260010160008373ffffffffffffffffffffffffffffffffffffffff1673ffffffffffffffffffffffffffffffffffffffff16815260200190815260200160002060009054906101000a900460ff1615610576576000905061068a565b82600001805490508360020160008473ffffffffffffffffffffffffffffffffffffffff1673ffffffffffffffffffffffffffffffffffffffff16815260200190815260200160002081905550826000018290806001815401808255809150509060018203906000526020600020016000909192909190916101000a81548173ffffffffffffffffffffffffffffffffffffffff021916908373ffffffffffffffffffffffffffffffffffffffff1602179055505060018360010160008473ffffffffffffffffffffffffffffffffffffffff1673ffffffffffffffffffffffffffffffffffffffff16815260200190815260200160002060006101000a81548160ff021916908315150217905550600190505b92915050565b60008260010160008373ffffffffffffffffffffffffffffffffffffffff1673ffffffffffffffffffffffffffffffffffffffff16815260200190815260200160002060009054906101000a900460ff1615156106f0576000905061070f565b60006106fc8484610893565b90506107088482610a78565b5060019150505b92915050565b6000838381600001805490508110151561072e57600080fd5b8560010160008573ffffffffffffffffffffffffffffffffffffffff1673ffffffffffffffffffffffffffffffffffffffff16815260200190815260200160002060009054906101000a900460ff161561078b576000925061088a565b83866000018681548110151561079d57fe5b9060005260206000200160006101000a81548173ffffffffffffffffffffffffffffffffffffffff021916908373ffffffffffffffffffffffffffffffffffffffff16021790555060018660010160008673ffffffffffffffffffffffffffffffffffffffff1673ffffffffffffffffffffffffffffffffffffffff16815260200190815260200160002060006101000a81548160ff021916908315150217905550848660020160008673ffffffffffffffffffffffffffffffffffffffff1673ffffffffffffffffffffffffffffffffffffffff16815260200190815260200160002081905550600192505b50509392505050565b60008260010160008373ffffffffffffffffffffffffffffffffffffffff1673ffffffffffffffffffffffffffffffffffffffff16815260200190815260200160002060009054906101000a900460ff161515610912577fffffffffffffffffffffffffffffffffffffffffffffffffffffffffffffffff9050610957565b8260020160008373ffffffffffffffffffffffffffffffffffffffff1673ffffffffffffffffffffffffffffffffffffffff1681526020019081526020016000205490505b92915050565b600081600081600001805490501415151561097757600080fd5b61098b836001856000018054905003610993565b915050919050565b600082828160000180549050811015156109ac57600080fd5b84600001848154811015156109bd57fe5b9060005260206000200160009054906101000a900473ffffffffffffffffffffffffffffffffffffffff169250505092915050565b60008260010160008373ffffffffffffffffffffffffffffffffffffffff1673ffffffffffffffffffffffffffffffffffffffff16815260200190815260200160002060009054906101000a900460ff16905092915050565b6000816000816000018054905014151515610a6557600080fd5b610a70836000610993565b915050919050565b60008282816000018054905081101515610a9157600080fd5b6000610a9d8686610993565b9050600186600001805490500385141515610b6d576000610abd8761095d565b905060008760010160008373ffffffffffffffffffffffffffffffffffffffff1673ffffffffffffffffffffffffffffffffffffffff16815260200190815260200160002060006101000a81548160ff021916908315150217905550610b24878783610715565b50858760020160008373ffffffffffffffffffffffffffffffffffffffff1673ffffffffffffffffffffffffffffffffffffffff16815260200190815260200160002081905550505b60018660000181818054905003915081610b879190610c2a565b508560020160008273ffffffffffffffffffffffffffffffffffffffff1673ffffffffffffffffffffffffffffffffffffffff168152602001908152602001600020600090558560010160008273ffffffffffffffffffffffffffffffffffffffff1673ffffffffffffffffffffffffffffffffffffffff16815260200190815260200160002060006101000a81549060ff021916905580935050505092915050565b815481835581811115610c5157818360005260206000209182019101610c509190610c56565b5b505050565b610c7891905b80821115610c74576000816000905550600101610c5c565b5090565b9056fea165627a7a723058208f3d177882c20fd89af69d2fe20b72bb53bdf1b3deee7f062aeedc1e1baa18a90029",
  "source": "pragma solidity ^0.5.0;\n\n/// @title Library implementing an array type which allows O(1) lookups on values.\n/// @author Piper Merriam <pipermerriam@gmail.com>, Eric Olszewski <eolszewski@gmail.com>\n/// Adapted from https://github.com/ethpm/ethereum-indexed-enumerable-set-lib/blob/master/contracts/IndexedEnumerableSetLib.sol\nlibrary AddressSetLib {\n\n    struct AddressSet {\n        address[] values;\n        mapping(address => bool) exists;\n        mapping(address => uint) indices;\n    }\n\n    modifier inBounds(AddressSet storage self, uint index) {\n        require(index < self.values.length);\n        _;\n    }\n\n    modifier notEmpty(AddressSet storage self) {\n        require(self.values.length != 0);\n        _;\n    }\n\n    function get(AddressSet storage self, uint index) public view\n        inBounds(self, index)\n        returns (address)\n    {\n        return self.values[index];\n    }\n\n    function set(AddressSet storage self, uint index, address value) public\n        inBounds(self, index)\n        returns (bool)\n    {\n        if (self.exists[value])\n            return false;\n        self.values[index] = value;\n        self.exists[value] = true;\n        self.indices[value] = index;\n        return true;\n    }\n\n    function add(AddressSet storage self, address value) public\n        returns (bool)\n    {\n        if (self.exists[value])\n            return false;\n        self.indices[value] = self.values.length;\n        self.values.push(value);\n        self.exists[value] = true;\n        return true;\n    }\n\n    function remove(AddressSet storage self, address value) public\n        returns (bool)\n    {\n        if (!self.exists[value])\n            return false;\n        uint index = indexOf(self, value);\n        pop(self, index);\n        return true;\n    }\n\n    function pop(AddressSet storage self, uint index) public\n        inBounds(self, index)\n        returns (address)\n    {\n        address value = get(self, index);\n\n        if (index != self.values.length - 1) {\n            address lastValue = last(self);\n            self.exists[lastValue] = false;\n            set(self, index, lastValue);\n            self.indices[lastValue] = index;\n        }\n        self.values.length -= 1;\n\n        delete self.indices[value];\n        delete self.exists[value];\n\n        return value;\n    }\n\n    function first(AddressSet storage self) public view\n        notEmpty(self)\n        returns (address)\n    {\n        return get(self, 0);\n    }\n\n    function last(AddressSet storage self) public view\n        notEmpty(self)\n        returns (address)\n    {\n        return get(self, self.values.length - 1);\n    }\n\n    function indexOf(AddressSet storage self, address value) public view\n        returns (uint)\n    {\n        if (!self.exists[value])\n            return uint(-1);\n        return self.indices[value];\n    }\n\n    function contains(AddressSet storage self, address value) public view\n        returns (bool)\n    {\n        return self.exists[value];\n    }\n\n    function size(AddressSet storage self) public view\n        returns (uint)\n    {\n        return self.values.length;\n    }\n}",
  "sourcePath": "/home/bryn/projects/conscience/protocol/eth/contracts/AddressSetLib.sol",
  "compiler": {
    "name": "solc",
    "version": "0.5.0+commit.1d4f565a.Emscripten.clang"
  },
  "schemaVersion": "3.0.2",
  "updatedAt": "2019-06-08T23:36:20.153Z",
  "devdoc": {
    "author": "Piper Merriam <pipermerriam@gmail.com>, Eric Olszewski <eolszewski@gmail.com> Adapted from https://github.com/ethpm/ethereum-indexed-enumerable-set-lib/blob/master/contracts/IndexedEnumerableSetLib.sol",
    "methods": {},
    "title": "Library implementing an array type which allows O(1) lookups on values."
  },
  "userdoc": {
    "methods": {}
  }
}