{
  "contractName": "Protocol",
  "abi": [
    {
      "constant": true,
      "inputs": [],
      "name": "userRegistry",
      "outputs": [
        {
          "name": "",
          "type": "address"
        }
      ],
      "payable": false,
      "stateMutability": "view",
      "type": "function"
    },
    {
      "constant": true,
      "inputs": [],
      "name": "owner",
      "outputs": [
        {
          "name": "",
          "type": "address"
        }
      ],
      "payable": false,
      "stateMutability": "view",
      "type": "function"
    },
    {
      "inputs": [],
      "payable": false,
      "stateMutability": "nonpayable",
      "type": "constructor"
    },
    {
      "anonymous": false,
      "inputs": [
        {
          "indexed": true,
          "name": "addr",
          "type": "address"
        },
        {
          "indexed": true,
          "name": "username",
          "type": "string"
        }
      ],
      "name": "LogSetUsername",
      "type": "event"
    },
    {
      "anonymous": false,
      "inputs": [
        {
          "indexed": true,
          "name": "user",
          "type": "address"
        },
        {
          "indexed": true,
          "name": "repoID",
          "type": "string"
        }
      ],
      "name": "LogCreateRepo",
      "type": "event"
    },
    {
      "anonymous": false,
      "inputs": [
        {
          "indexed": true,
          "name": "user",
          "type": "address"
        },
        {
          "indexed": true,
          "name": "repoID",
          "type": "string"
        }
      ],
      "name": "LogDeleteRepo",
      "type": "event"
    },
    {
      "anonymous": false,
      "inputs": [
        {
          "indexed": true,
          "name": "user",
          "type": "address"
        },
        {
          "indexed": false,
          "name": "repoID",
          "type": "string"
        },
        {
          "indexed": false,
          "name": "isPublic",
          "type": "bool"
        }
      ],
      "name": "LogSetPublic",
      "type": "event"
    },
    {
      "anonymous": false,
      "inputs": [
        {
          "indexed": true,
          "name": "user",
          "type": "address"
        },
        {
          "indexed": true,
          "name": "repoID",
          "type": "string"
        },
        {
          "indexed": true,
          "name": "refName",
          "type": "string"
        },
        {
          "indexed": false,
          "name": "commitHash",
          "type": "bytes20"
        }
      ],
      "name": "LogUpdateRef",
      "type": "event"
    },
    {
      "anonymous": false,
      "inputs": [
        {
          "indexed": true,
          "name": "user",
          "type": "address"
        },
        {
          "indexed": true,
          "name": "repoID",
          "type": "string"
        },
        {
          "indexed": true,
          "name": "refName",
          "type": "string"
        }
      ],
      "name": "LogDeleteRef",
      "type": "event"
    },
    {
      "constant": false,
      "inputs": [
        {
          "name": "_userRegistry",
          "type": "address"
        }
      ],
      "name": "setUserRegistry",
      "outputs": [],
      "payable": false,
      "stateMutability": "nonpayable",
      "type": "function"
    },
    {
      "constant": false,
      "inputs": [
        {
          "name": "username",
          "type": "string"
        }
      ],
      "name": "setUsername",
      "outputs": [],
      "payable": false,
      "stateMutability": "nonpayable",
      "type": "function"
    },
    {
      "constant": true,
      "inputs": [
        {
          "name": "addr",
          "type": "address"
        }
      ],
      "name": "usernamesByAddress",
      "outputs": [
        {
          "name": "",
          "type": "string"
        }
      ],
      "payable": false,
      "stateMutability": "view",
      "type": "function"
    },
    {
      "constant": false,
      "inputs": [
        {
          "name": "repoID",
          "type": "string"
        }
      ],
      "name": "createRepo",
      "outputs": [],
      "payable": false,
      "stateMutability": "nonpayable",
      "type": "function"
    },
    {
      "constant": false,
      "inputs": [
        {
          "name": "repoID",
          "type": "string"
        }
      ],
      "name": "deleteRepo",
      "outputs": [],
      "payable": false,
      "stateMutability": "nonpayable",
      "type": "function"
    },
    {
      "constant": false,
      "inputs": [
        {
          "name": "repoID",
          "type": "string"
        },
        {
          "name": "isPublic",
          "type": "bool"
        }
      ],
      "name": "setPublic",
      "outputs": [],
      "payable": false,
      "stateMutability": "nonpayable",
      "type": "function"
    },
    {
      "constant": false,
      "inputs": [
        {
          "name": "repoID",
          "type": "string"
        },
        {
          "name": "refName",
          "type": "string"
        },
        {
          "name": "oldCommitHash",
          "type": "bytes20"
        },
        {
          "name": "newCommitHash",
          "type": "bytes20"
        }
      ],
      "name": "updateRef",
      "outputs": [],
      "payable": false,
      "stateMutability": "nonpayable",
      "type": "function"
    },
    {
      "constant": false,
      "inputs": [
        {
          "name": "repoID",
          "type": "string"
        },
        {
          "name": "refName",
          "type": "string"
        }
      ],
      "name": "deleteRef",
      "outputs": [],
      "payable": false,
      "stateMutability": "nonpayable",
      "type": "function"
    },
    {
      "constant": true,
      "inputs": [
        {
          "name": "repoID",
          "type": "string"
        }
      ],
      "name": "repoExists",
      "outputs": [
        {
          "name": "",
          "type": "bool"
        }
      ],
      "payable": false,
      "stateMutability": "view",
      "type": "function"
    },
    {
      "constant": true,
      "inputs": [
        {
          "name": "username",
          "type": "string"
        },
        {
          "name": "repoID",
          "type": "string"
        }
      ],
      "name": "userIsAdmin",
      "outputs": [
        {
          "name": "",
          "type": "bool"
        }
      ],
      "payable": false,
      "stateMutability": "view",
      "type": "function"
    },
    {
      "constant": true,
      "inputs": [
        {
          "name": "username",
          "type": "string"
        },
        {
          "name": "repoID",
          "type": "string"
        }
      ],
      "name": "userHasPullAccess",
      "outputs": [
        {
          "name": "",
          "type": "bool"
        }
      ],
      "payable": false,
      "stateMutability": "view",
      "type": "function"
    },
    {
      "constant": true,
      "inputs": [
        {
          "name": "username",
          "type": "string"
        },
        {
          "name": "repoID",
          "type": "string"
        }
      ],
      "name": "userHasPushAccess",
      "outputs": [
        {
          "name": "",
          "type": "bool"
        }
      ],
      "payable": false,
      "stateMutability": "view",
      "type": "function"
    },
    {
      "constant": true,
      "inputs": [
        {
          "name": "addr",
          "type": "address"
        },
        {
          "name": "repoID",
          "type": "string"
        }
      ],
      "name": "addressIsAdmin",
      "outputs": [
        {
          "name": "",
          "type": "bool"
        }
      ],
      "payable": false,
      "stateMutability": "view",
      "type": "function"
    },
    {
      "constant": true,
      "inputs": [
        {
          "name": "addr",
          "type": "address"
        },
        {
          "name": "repoID",
          "type": "string"
        }
      ],
      "name": "addressHasPullAccess",
      "outputs": [
        {
          "name": "",
          "type": "bool"
        }
      ],
      "payable": false,
      "stateMutability": "view",
      "type": "function"
    },
    {
      "constant": true,
      "inputs": [
        {
          "name": "addr",
          "type": "address"
        },
        {
          "name": "repoID",
          "type": "string"
        }
      ],
      "name": "addressHasPushAccess",
      "outputs": [
        {
          "name": "",
          "type": "bool"
        }
      ],
      "payable": false,
      "stateMutability": "view",
      "type": "function"
    },
    {
      "constant": true,
      "inputs": [
        {
          "name": "repoID",
          "type": "string"
        }
      ],
      "name": "isRepoPublic",
      "outputs": [
        {
          "name": "",
          "type": "bool"
        }
      ],
      "payable": false,
      "stateMutability": "view",
      "type": "function"
    },
    {
      "constant": true,
      "inputs": [
        {
          "name": "repoID",
          "type": "string"
        },
        {
          "name": "username",
          "type": "string"
        }
      ],
      "name": "getUserPermissions",
      "outputs": [
        {
          "name": "puller",
          "type": "bool"
        },
        {
          "name": "pusher",
          "type": "bool"
        },
        {
          "name": "admin",
          "type": "bool"
        }
      ],
      "payable": false,
      "stateMutability": "view",
      "type": "function"
    },
    {
      "constant": false,
      "inputs": [
        {
          "name": "repoID",
          "type": "string"
        },
        {
          "name": "username",
          "type": "string"
        },
        {
          "name": "puller",
          "type": "bool"
        },
        {
          "name": "pusher",
          "type": "bool"
        },
        {
          "name": "admin",
          "type": "bool"
        }
      ],
      "name": "setUserPermissions",
      "outputs": [],
      "payable": false,
      "stateMutability": "nonpayable",
      "type": "function"
    },
    {
      "constant": true,
      "inputs": [
        {
          "name": "repoID",
          "type": "string"
        }
      ],
      "name": "numRefs",
      "outputs": [
        {
          "name": "",
          "type": "uint256"
        }
      ],
      "payable": false,
      "stateMutability": "view",
      "type": "function"
    },
    {
      "constant": true,
      "inputs": [
        {
          "name": "repoID",
          "type": "string"
        },
        {
          "name": "refName",
          "type": "string"
        }
      ],
      "name": "getRef",
      "outputs": [
        {
          "name": "",
          "type": "bytes20"
        }
      ],
      "payable": false,
      "stateMutability": "view",
      "type": "function"
    },
    {
      "constant": true,
      "inputs": [
        {
          "name": "repoID",
          "type": "string"
        },
        {
          "name": "pageSize",
          "type": "uint256"
        },
        {
          "name": "page",
          "type": "uint256"
        }
      ],
      "name": "getRefs",
      "outputs": [
        {
          "name": "total",
          "type": "uint256"
        },
        {
          "name": "data",
          "type": "bytes"
        }
      ],
      "payable": false,
      "stateMutability": "view",
      "type": "function"
    },
    {
      "constant": true,
      "inputs": [
        {
          "name": "repoID",
          "type": "string"
        },
        {
          "name": "whichUsers",
          "type": "uint8"
        },
        {
          "name": "pageSize",
          "type": "uint256"
        },
        {
          "name": "page",
          "type": "uint256"
        }
      ],
      "name": "getRepoUsers",
      "outputs": [
        {
          "name": "total",
          "type": "uint256"
        },
        {
          "name": "data",
          "type": "bytes"
        }
      ],
      "payable": false,
      "stateMutability": "view",
      "type": "function"
    }
  ],
  "bytecode": "0x608060405234801561001057600080fd5b5033600160006101000a81548173ffffffffffffffffffffffffffffffffffffffff021916908373ffffffffffffffffffffffffffffffffffffffff160217905550615b4380620000626000396000f3fe60806040526004361061013e576000357c0100000000000000000000000000000000000000000000000000000000900463ffffffff168063154b1d1f146101435780631ccd4912146102d45780632b133be01461043d57806342dfb6da1461053d578063484af658146106075780634d6e93cb146106db5780634fa94bea146107db57806353dad777146108a3578063592c6a0f146109a35780635c7460d614610a835780636653a81214610ada5780636735c57714610bba5780637bbaf15914610d165780638da5cb5b14610e8d578063abd9649c14610ee4578063b0d5451b14611071578063d4fa6a8f146110c2578063d51c250c14611245578063e07a896d1461130d578063ec6761891461146c578063ed59313a146115e3578063ede07dfe146116ab578063f2ebfa1014611822578063f6ce75b3146118fe575b600080fd5b34801561014f57600080fd5b506102d26004803603608081101561016657600080fd5b810190808035906020019064010000000081111561018357600080fd5b82018360208201111561019557600080fd5b803590602001918460018302840111640100000000831117156101b757600080fd5b91908080601f016020809104026020016040519081016040528093929190818152602001838380828437600081840152601f19601f8201169050808301925050505050505091929192908035906020019064010000000081111561021a57600080fd5b82018360208201111561022c57600080fd5b8035906020019184600183028401116401000000008311171561024e57600080fd5b91908080601f016020809104026020016040519081016040528093929190818152602001838380828437600081840152601f19601f82011690508083019250505050505050919291929080356bffffffffffffffffffffffff1916906020019092919080356bffffffffffffffffffffffff19169060200190929190505050611a8f565b005b3480156102e057600080fd5b506103bb600480360360808110156102f757600080fd5b810190808035906020019064010000000081111561031457600080fd5b82018360208201111561032657600080fd5b8035906020019184600183028401116401000000008311171561034857600080fd5b91908080601f016020809104026020016040519081016040528093929190818152602001838380828437600081840152601f19601f820116905080830192505050505050509192919290803560ff1690602001909291908035906020019092919080359060200190929190505050612095565b6040518083815260200180602001828103825283818151815260200191508051906020019080838360005b838110156104015780820151818401526020810190506103e6565b50505050905090810190601f16801561042e5780820380516001836020036101000a031916815260200191505b50935050505060405180910390f35b34801561044957600080fd5b506105236004803603604081101561046057600080fd5b81019080803573ffffffffffffffffffffffffffffffffffffffff1690602001909291908035906020019064010000000081111561049d57600080fd5b8201836020820111156104af57600080fd5b803590602001918460018302840111640100000000831117156104d157600080fd5b91908080601f016020809104026020016040519081016040528093929190818152602001838380828437600081840152601f19601f8201169050808301925050505050505091929192905050506126a5565b604051808215151515815260200191505060405180910390f35b34801561054957600080fd5b5061058c6004803603602081101561056057600080fd5b81019080803573ffffffffffffffffffffffffffffffffffffffff169060200190929190505050612804565b6040518080602001828103825283818151815260200191508051906020019080838360005b838110156105cc5780820151818401526020810190506105b1565b50505050905090810190601f1680156105f95780820380516001836020036101000a031916815260200191505b509250505060405180910390f35b34801561061357600080fd5b506106d96004803603604081101561062a57600080fd5b810190808035906020019064010000000081111561064757600080fd5b82018360208201111561065957600080fd5b8035906020019184600183028401116401000000008311171561067b57600080fd5b91908080601f016020809104026020016040519081016040528093929190818152602001838380828437600081840152601f19601f820116905080830192505050505050509192919290803515159060200190929190505050612959565b005b3480156106e757600080fd5b506107c1600480360360408110156106fe57600080fd5b81019080803573ffffffffffffffffffffffffffffffffffffffff1690602001909291908035906020019064010000000081111561073b57600080fd5b82018360208201111561074d57600080fd5b8035906020019184600183028401116401000000008311171561076f57600080fd5b91908080601f016020809104026020016040519081016040528093929190818152602001838380828437600081840152601f19601f820116905080830192505050505050509192919290505050612b81565b604051808215151515815260200191505060405180910390f35b3480156107e757600080fd5b506108a1600480360360208110156107fe57600080fd5b810190808035906020019064010000000081111561081b57600080fd5b82018360208201111561082d57600080fd5b8035906020019184600183028401116401000000008311171561084f57600080fd5b91908080601f016020809104026020016040519081016040528093929190818152602001838380828437600081840152601f19601f820116905080830192505050505050509192919290505050612ce0565b005b3480156108af57600080fd5b50610989600480360360408110156108c657600080fd5b81019080803573ffffffffffffffffffffffffffffffffffffffff1690602001909291908035906020019064010000000081111561090357600080fd5b82018360208201111561091557600080fd5b8035906020019184600183028401116401000000008311171561093757600080fd5b91908080601f016020809104026020016040519081016040528093929190818152602001838380828437600081840152601f19601f82011690508083019250505050505050919291929050505061342c565b604051808215151515815260200191505060405180910390f35b3480156109af57600080fd5b50610a69600480360360208110156109c657600080fd5b81019080803590602001906401000000008111156109e357600080fd5b8201836020820111156109f557600080fd5b80359060200191846001830284011164010000000083111715610a1757600080fd5b91908080601f016020809104026020016040519081016040528093929190818152602001838380828437600081840152601f19601f82011690508083019250505050505050919291929050505061358b565b604051808215151515815260200191505060405180910390f35b348015610a8f57600080fd5b50610a986135bf565b604051808273ffffffffffffffffffffffffffffffffffffffff1673ffffffffffffffffffffffffffffffffffffffff16815260200191505060405180910390f35b348015610ae657600080fd5b50610ba060048036036020811015610afd57600080fd5b8101908080359060200190640100000000811115610b1a57600080fd5b820183602082011115610b2c57600080fd5b80359060200191846001830284011164010000000083111715610b4e57600080fd5b91908080601f016020809104026020016040519081016040528093929190818152602001838380828437600081840152601f19601f8201169050808301925050505050505091929192905050506135e5565b604051808215151515815260200191505060405180910390f35b348015610bc657600080fd5b50610c9460048036036060811015610bdd57600080fd5b8101908080359060200190640100000000811115610bfa57600080fd5b820183602082011115610c0c57600080fd5b80359060200191846001830284011164010000000083111715610c2e57600080fd5b91908080601f016020809104026020016040519081016040528093929190818152602001838380828437600081840152601f19601f8201169050808301925050505050505091929192908035906020019092919080359060200190929190505050613619565b6040518083815260200180602001828103825283818151815260200191508051906020019080838360005b83811015610cda578082015181840152602081019050610cbf565b50505050905090810190601f168015610d075780820380516001836020036101000a031916815260200191505b50935050505060405180910390f35b348015610d2257600080fd5b50610e7360048036036040811015610d3957600080fd5b8101908080359060200190640100000000811115610d5657600080fd5b820183602082011115610d6857600080fd5b80359060200191846001830284011164010000000083111715610d8a57600080fd5b91908080601f016020809104026020016040519081016040528093929190818152602001838380828437600081840152601f19601f82011690508083019250505050505050919291929080359060200190640100000000811115610ded57600080fd5b820183602082011115610dff57600080fd5b80359060200191846001830284011164010000000083111715610e2157600080fd5b91908080601f016020809104026020016040519081016040528093929190818152602001838380828437600081840152601f19601f820116905080830192505050505050509192919290505050613c51565b604051808215151515815260200191505060405180910390f35b348015610e9957600080fd5b50610ea2613d8c565b604051808273ffffffffffffffffffffffffffffffffffffffff1673ffffffffffffffffffffffffffffffffffffffff16815260200191505060405180910390f35b348015610ef057600080fd5b5061104160048036036040811015610f0757600080fd5b8101908080359060200190640100000000811115610f2457600080fd5b820183602082011115610f3657600080fd5b80359060200191846001830284011164010000000083111715610f5857600080fd5b91908080601f016020809104026020016040519081016040528093929190818152602001838380828437600081840152601f19601f82011690508083019250505050505050919291929080359060200190640100000000811115610fbb57600080fd5b820183602082011115610fcd57600080fd5b80359060200191846001830284011164010000000083111715610fef57600080fd5b91908080601f016020809104026020016040519081016040528093929190818152602001838380828437600081840152601f19601f820116905080830192505050505050509192919290505050613db2565b60405180841515151581526020018315151515815260200182151515158152602001935050505060405180910390f35b34801561107d57600080fd5b506110c06004803603602081101561109457600080fd5b81019080803573ffffffffffffffffffffffffffffffffffffffff1690602001909291905050506141b0565b005b3480156110ce57600080fd5b50611243600480360360a08110156110e557600080fd5b810190808035906020019064010000000081111561110257600080fd5b82018360208201111561111457600080fd5b8035906020019184600183028401116401000000008311171561113657600080fd5b91908080601f016020809104026020016040519081016040528093929190818152602001838380828437600081840152601f19601f8201169050808301925050505050505091929192908035906020019064010000000081111561119957600080fd5b8201836020820111156111ab57600080fd5b803590602001918460018302840111640100000000831117156111cd57600080fd5b91908080601f016020809104026020016040519081016040528093929190818152602001838380828437600081840152601f19601f820116905080830192505050505050509192919290803515159060200190929190803515159060200190929190803515159060200190929190505050614250565b005b34801561125157600080fd5b5061130b6004803603602081101561126857600080fd5b810190808035906020019064010000000081111561128557600080fd5b82018360208201111561129757600080fd5b803590602001918460018302840111640100000000831117156112b957600080fd5b91908080601f016020809104026020016040519081016040528093929190818152602001838380828437600081840152601f19601f820116905080830192505050505050509192919290505050614a34565b005b34801561131957600080fd5b5061146a6004803603604081101561133057600080fd5b810190808035906020019064010000000081111561134d57600080fd5b82018360208201111561135f57600080fd5b8035906020019184600183028401116401000000008311171561138157600080fd5b91908080601f016020809104026020016040519081016040528093929190818152602001838380828437600081840152601f19601f820116905080830192505050505050509192919290803590602001906401000000008111156113e457600080fd5b8201836020820111156113f657600080fd5b8035906020019184600183028401116401000000008311171561141857600080fd5b91908080601f016020809104026020016040519081016040528093929190818152602001838380828437600081840152601f19601f820116905080830192505050505050509192919290505050614cc7565b005b34801561147857600080fd5b506115c96004803603604081101561148f57600080fd5b81019080803590602001906401000000008111156114ac57600080fd5b8201836020820111156114be57600080fd5b803590602001918460018302840111640100000000831117156114e057600080fd5b91908080601f016020809104026020016040519081016040528093929190818152602001838380828437600081840152601f19601f8201169050808301925050505050505091929192908035906020019064010000000081111561154357600080fd5b82018360208201111561155557600080fd5b8035906020019184600183028401116401000000008311171561157757600080fd5b91908080601f016020809104026020016040519081016040528093929190818152602001838380828437600081840152601f19601f82011690508083019250505050505050919291929050505061519b565b604051808215151515815260200191505060405180910390f35b3480156115ef57600080fd5b506116a96004803603602081101561160657600080fd5b810190808035906020019064010000000081111561162357600080fd5b82018360208201111561163557600080fd5b8035906020019184600183028401116401000000008311171561165757600080fd5b91908080601f016020809104026020016040519081016040528093929190818152602001838380828437600081840152601f19601f8201169050808301925050505050505091929192905050506152d6565b005b3480156116b757600080fd5b50611808600480360360408110156116ce57600080fd5b81019080803590602001906401000000008111156116eb57600080fd5b8201836020820111156116fd57600080fd5b8035906020019184600183028401116401000000008311171561171f57600080fd5b91908080601f016020809104026020016040519081016040528093929190818152602001838380828437600081840152601f19601f8201169050808301925050505050505091929192908035906020019064010000000081111561178257600080fd5b82018360208201111561179457600080fd5b803590602001918460018302840111640100000000831117156117b657600080fd5b91908080601f016020809104026020016040519081016040528093929190818152602001838380828437600081840152601f19601f8201169050808301925050505050505091929192905050506154c1565b604051808215151515815260200191505060405180910390f35b34801561182e57600080fd5b506118e86004803603602081101561184557600080fd5b810190808035906020019064010000000081111561186257600080fd5b82018360208201111561187457600080fd5b8035906020019184600183028401116401000000008311171561189657600080fd5b91908080601f016020809104026020016040519081016040528093929190818152602001838380828437600081840152601f19601f82011690508083019250505050505050919291929050505061563b565b6040518082815260200191505060405180910390f35b34801561190a57600080fd5b50611a5b6004803603604081101561192157600080fd5b810190808035906020019064010000000081111561193e57600080fd5b82018360208201111561195057600080fd5b8035906020019184600183028401116401000000008311171561197257600080fd5b91908080601f016020809104026020016040519081016040528093929190818152602001838380828437600081840152601f19601f820116905080830192505050505050509192919290803590602001906401000000008111156119d557600080fd5b8201836020820111156119e757600080fd5b80359060200191846001830284011164010000000083111715611a0957600080fd5b91908080601f016020809104026020016040519081016040528093929190818152602001838380828437600081840152601f19601f820116905080830192505050505050509192919290505050615708565b60405180826bffffffffffffffffffffffff19166bffffffffffffffffffffffff1916815260200191505060405180910390f35b611be4600260009054906101000a900473ffffffffffffffffffffffffffffffffffffffff1673ffffffffffffffffffffffffffffffffffffffff166342dfb6da336040518263ffffffff167c0100000000000000000000000000000000000000000000000000000000028152600401808273ffffffffffffffffffffffffffffffffffffffff1673ffffffffffffffffffffffffffffffffffffffff16815260200191505060006040518083038186803b158015611b4d57600080fd5b505afa158015611b61573d6000803e3d6000fd5b505050506040513d6000823e3d601f19601f820116820180604052506020811015611b8b57600080fd5b810190808051640100000000811115611ba357600080fd5b82810190506020810184811115611bb957600080fd5b8151856001820283011164010000000082111715611bd657600080fd5b505092919050505085613c51565b1515611c58576040517f08c379a000000000000000000000000000000000000000000000000000000000815260040180806020018281038252601a8152602001807f796f7520646f6e2774206861766520707573682061636365737300000000000081525060200191505060405180910390fd5b6000806000611c66876157ed565b815260200190815260200160002090508060000160009054906101000a900460ff161515611cfc576040517f08c379a00000000000000000000000000000000000000000000000000000000081526004018080602001828103825260138152602001807f7265706f20646f6573206e6f742065786973740000000000000000000000000081525060200191505060405180910390fd5b806004016000611d0b866157ed565b815260200190815260200160002060009054906101000a90046c01000000000000000000000000026bffffffffffffffffffffffff1916836bffffffffffffffffffffffff1916141515611ded576040517f08c379a00000000000000000000000000000000000000000000000000000000081526004018080602001828103825260278152602001807f7468652070726f7669646564206f6c64436f6d6d69744861736820697320696e81526020017f636f72726563740000000000000000000000000000000000000000000000000081525060400191505060405180910390fd5b8060010173__StringSetLib__________________________63524e643b9091866040518363ffffffff167c01000000000000000000000000000000000000000000000000000000000281526004018083815260200180602001828103825283818151815260200191508051906020019080838360005b83811015611e7f578082015181840152602081019050611e64565b50505050905090810190601f168015611eac5780820380516001836020036101000a031916815260200191505b50935050505060206040518083038186803b158015611eca57600080fd5b505af4158015611ede573d6000803e3d6000fd5b505050506040513d6020811015611ef457600080fd5b81019080805190602001909291905050505081816004016000611f16876157ed565b815260200190815260200160002060006101000a81548173ffffffffffffffffffffffffffffffffffffffff02191690836c0100000000000000000000000090040217905550836040518082805190602001908083835b602083101515611f925780518252602082019150602081019050602083039250611f6d565b6001836020036101000a0380198251168184511680821785525050505050509050019150506040518091039020856040518082805190602001908083835b602083101515611ff55780518252602082019150602081019050602083039250611fd0565b6001836020036101000a03801982511681845116808217855250505050505090500191505060405180910390203373ffffffffffffffffffffffffffffffffffffffff167f53cefa826f4c8a285b2b5d751be6efe1a535e332d21fc085341fb21162ace30b8560405180826bffffffffffffffffffffffff19166bffffffffffffffffffffffff1916815260200191505060405180910390a45050505050565b6000606060008060006120a7896157ed565b815260200190815260200160002090508060000160009054906101000a900460ff16151561213d576040517f08c379a00000000000000000000000000000000000000000000000000000000081526004018080602001828103825260138152602001807f7265706f20646f6573206e6f742065786973740000000000000000000000000081525060200191505060405180910390fd5b60008160050190506000600281111561215257fe5b87600281111561215e57fe5b141561216f578160050190506121c0565b6001600281111561217c57fe5b87600281111561218857fe5b14156121995781600b0190506121bf565b6002808111156121a557fe5b8760028111156121b157fe5b14156121be578160080190505b5b5b606060008090506000888802905060008090505b898110801561228b57508473__StringSetLib__________________________632486134690916040518263ffffffff167c01000000000000000000000000000000000000000000000000000000000281526004018082815260200191505060206040518083038186803b15801561224b57600080fd5b505af415801561225f573d6000803e3d6000fd5b505050506040513d602081101561227557600080fd5b8101908080519060200190929190505050828201105b156123b0578473__StringSetLib__________________________6329b97ab690918484016040518363ffffffff167c0100000000000000000000000000000000000000000000000000000000028152600401808381526020018281526020019250505060006040518083038186803b15801561230757600080fd5b505af415801561231b573d6000803e3d6000fd5b505050506040513d6000823e3d601f19601f82011682018060405250602081101561234557600080fd5b81019080805164010000000081111561235d57600080fd5b8281019050602081018481111561237357600080fd5b815185600182028301116401000000008211171561239057600080fd5b5050929190505050935083516020018301925080806001019150506121d4565b50816040519080825280601f01601f1916602001820160405280156123e45781602001600182028038833980820191505090505b509550600080905060008090505b8a811080156124a957508573__StringSetLib__________________________632486134690916040518263ffffffff167c01000000000000000000000000000000000000000000000000000000000281526004018082815260200191505060206040518083038186803b15801561246957600080fd5b505af415801561247d573d6000803e3d6000fd5b505050506040513d602081101561249357600080fd5b8101908080519060200190929190505050838201105b156125e8578573__StringSetLib__________________________6329b97ab690918584016040518363ffffffff167c0100000000000000000000000000000000000000000000000000000000028152600401808381526020018281526020019250505060006040518083038186803b15801561252557600080fd5b505af4158015612539573d6000803e3d6000fd5b505050506040513d6000823e3d601f19601f82011682018060405250602081101561256357600080fd5b81019080805164010000000081111561257b57600080fd5b8281019050602081018481111561259157600080fd5b81518560018202830111640100000000821117156125ae57600080fd5b505092919050505094506125c48551898461586a565b6020820191506125d5858984615906565b84518201915080806001019150506123f2565b508473__StringSetLib__________________________632486134690916040518263ffffffff167c01000000000000000000000000000000000000000000000000000000000281526004018082815260200191505060206040518083038186803b15801561265657600080fd5b505af415801561266a573d6000803e3d6000fd5b505050506040513d602081101561268057600080fd5b8101908080519060200190929190505050879750975050505050505094509492505050565b60006127fc600260009054906101000a900473ffffffffffffffffffffffffffffffffffffffff1673ffffffffffffffffffffffffffffffffffffffff166342dfb6da856040518263ffffffff167c0100000000000000000000000000000000000000000000000000000000028152600401808273ffffffffffffffffffffffffffffffffffffffff1673ffffffffffffffffffffffffffffffffffffffff16815260200191505060006040518083038186803b15801561276557600080fd5b505afa158015612779573d6000803e3d6000fd5b505050506040513d6000823e3d601f19601f8201168201806040525060208110156127a357600080fd5b8101908080516401000000008111156127bb57600080fd5b828101905060208101848111156127d157600080fd5b81518560018202830111640100000000821117156127ee57600080fd5b505092919050505083613c51565b905092915050565b6060600260009054906101000a900473ffffffffffffffffffffffffffffffffffffffff1673ffffffffffffffffffffffffffffffffffffffff166342dfb6da836040518263ffffffff167c0100000000000000000000000000000000000000000000000000000000028152600401808273ffffffffffffffffffffffffffffffffffffffff1673ffffffffffffffffffffffffffffffffffffffff16815260200191505060006040518083038186803b1580156128c157600080fd5b505afa1580156128d5573d6000803e3d6000fd5b505050506040513d6000823e3d601f19601f8201168201806040525060208110156128ff57600080fd5b81019080805164010000000081111561291757600080fd5b8281019050602081018481111561292d57600080fd5b815185600182028301116401000000008211171561294a57600080fd5b50509291905050509050919050565b612963338361342c565b15156129fd576040517f08c379a00000000000000000000000000000000000000000000000000000000081526004018080602001828103825260218152602001807f796f7520617265206e6f7420616e2061646d696e206f6620746869732072657081526020017f6f0000000000000000000000000000000000000000000000000000000000000081525060400191505060405180910390fd5b6000806000612a0b856157ed565b815260200190815260200160002090508060000160009054906101000a900460ff161515612aa1576040517f08c379a00000000000000000000000000000000000000000000000000000000081526004018080602001828103825260188152602001807f74686973207265706f20646f6573206e6f74206578697374000000000000000081525060200191505060405180910390fd5b8181600e0160006101000a81548160ff0219169083151502179055503373ffffffffffffffffffffffffffffffffffffffff167fafd3374d7b80a84573da7094729fa7e4a8a87165437b49e55a448db5b9df704c8484604051808060200183151515158152602001828103825284818151815260200191508051906020019080838360005b83811015612b41578082015181840152602081019050612b26565b50505050905090810190601f168015612b6e5780820380516001836020036101000a031916815260200191505b50935050505060405180910390a2505050565b6000612cd8600260009054906101000a900473ffffffffffffffffffffffffffffffffffffffff1673ffffffffffffffffffffffffffffffffffffffff166342dfb6da856040518263ffffffff167c0100000000000000000000000000000000000000000000000000000000028152600401808273ffffffffffffffffffffffffffffffffffffffff1673ffffffffffffffffffffffffffffffffffffffff16815260200191505060006040518083038186803b158015612c4157600080fd5b505afa158015612c55573d6000803e3d6000fd5b505050506040513d6000823e3d601f19601f820116820180604052506020811015612c7f57600080fd5b810190808051640100000000811115612c9757600080fd5b82810190506020810184811115612cad57600080fd5b8151856001820283011164010000000082111715612cca57600080fd5b5050929190505050836154c1565b905092915050565b60008151111515612d7f576040517f08c379a00000000000000000000000000000000000000000000000000000000081526004018080602001828103825260218152602001807f617267756d656e7420277265706f4944272063616e6e6f7420626520656d707481526020017f790000000000000000000000000000000000000000000000000000000000000081525060400191505060405180910390fd5b6060600260009054906101000a900473ffffffffffffffffffffffffffffffffffffffff1673ffffffffffffffffffffffffffffffffffffffff166342dfb6da336040518263ffffffff167c0100000000000000000000000000000000000000000000000000000000028152600401808273ffffffffffffffffffffffffffffffffffffffff1673ffffffffffffffffffffffffffffffffffffffff16815260200191505060006040518083038186803b158015612e3c57600080fd5b505afa158015612e50573d6000803e3d6000fd5b505050506040513d6000823e3d601f19601f820116820180604052506020811015612e7a57600080fd5b810190808051640100000000811115612e9257600080fd5b82810190506020810184811115612ea857600080fd5b8151856001820283011164010000000082111715612ec557600080fd5b5050929190505050905060008151111515612f48576040517f08c379a000000000000000000000000000000000000000000000000000000000815260040180806020018281038252601f8152602001807f796f752068617665206e6f7420636c61696d6564206120757365726e616d650081525060200191505060405180910390fd5b6000806000612f56856157ed565b81526020019081526020016000209050600015158160000160009054906101000a900460ff161515141515613019576040517f08c379a00000000000000000000000000000000000000000000000000000000081526004018080602001828103825260248152602001807f74686973207265706f49442068617320616c7265616479206265656e20636c6181526020017f696d65640000000000000000000000000000000000000000000000000000000081525060400191505060405180910390fd5b60018160000160006101000a81548160ff0219169083151502179055508060080173__StringSetLib__________________________63524e643b9091846040518363ffffffff167c01000000000000000000000000000000000000000000000000000000000281526004018083815260200180602001828103825283818151815260200191508051906020019080838360005b838110156130c85780820151818401526020810190506130ad565b50505050905090810190601f1680156130f55780820380516001836020036101000a031916815260200191505b50935050505060206040518083038186803b15801561311357600080fd5b505af4158015613127573d6000803e3d6000fd5b505050506040513d602081101561313d57600080fd5b8101908080519060200190929190505050508060050173__StringSetLib__________________________63524e643b9091846040518363ffffffff167c01000000000000000000000000000000000000000000000000000000000281526004018083815260200180602001828103825283818151815260200191508051906020019080838360005b838110156131e15780820151818401526020810190506131c6565b50505050905090810190601f16801561320e5780820380516001836020036101000a031916815260200191505b50935050505060206040518083038186803b15801561322c57600080fd5b505af4158015613240573d6000803e3d6000fd5b505050506040513d602081101561325657600080fd5b81019080805190602001909291905050505080600b0173__StringSetLib__________________________63524e643b9091846040518363ffffffff167c01000000000000000000000000000000000000000000000000000000000281526004018083815260200180602001828103825283818151815260200191508051906020019080838360005b838110156132fa5780820151818401526020810190506132df565b50505050905090810190601f1680156133275780820380516001836020036101000a031916815260200191505b50935050505060206040518083038186803b15801561334557600080fd5b505af4158015613359573d6000803e3d6000fd5b505050506040513d602081101561336f57600080fd5b810190808051906020019092919050505050826040518082805190602001908083835b6020831015156133b75780518252602082019150602081019050602083039250613392565b6001836020036101000a03801982511681845116808217855250505050505090500191505060405180910390203373ffffffffffffffffffffffffffffffffffffffff167f967edc3deaf8913ee580d1a499f00c093253f50ae9a868be5b29618047ae852960405160405180910390a3505050565b6000613583600260009054906101000a900473ffffffffffffffffffffffffffffffffffffffff1673ffffffffffffffffffffffffffffffffffffffff166342dfb6da856040518263ffffffff167c0100000000000000000000000000000000000000000000000000000000028152600401808273ffffffffffffffffffffffffffffffffffffffff1673ffffffffffffffffffffffffffffffffffffffff16815260200191505060006040518083038186803b1580156134ec57600080fd5b505afa158015613500573d6000803e3d6000fd5b505050506040513d6000823e3d601f19601f82011682018060405250602081101561352a57600080fd5b81019080805164010000000081111561354257600080fd5b8281019050602081018481111561355857600080fd5b815185600182028301116401000000008211171561357557600080fd5b50509291905050508361519b565b905092915050565b6000806000613599846157ed565b815260200190815260200160002060000160009054906101000a900460ff169050919050565b600260009054906101000a900473ffffffffffffffffffffffffffffffffffffffff1681565b60008060006135f3846157ed565b8152602001908152602001600020600e0160009054906101000a900460ff169050919050565b60006060600080600061362b886157ed565b815260200190815260200160002090508060000160009054906101000a900460ff1615156136c1576040517f08c379a00000000000000000000000000000000000000000000000000000000081526004018080602001828103825260138152602001807f7265706f20646f6573206e6f742065786973740000000000000000000000000081525060200191505060405180910390fd5b6060600080600090506000888802905060008090505b898110801561379157508560010173__StringSetLib__________________________632486134690916040518263ffffffff167c01000000000000000000000000000000000000000000000000000000000281526004018082815260200191505060206040518083038186803b15801561375157600080fd5b505af4158015613765573d6000803e3d6000fd5b505050506040513d602081101561377b57600080fd5b8101908080519060200190929190505050828201105b156138f8578560010173__StringSetLib__________________________6329b97ab690918484016040518363ffffffff167c0100000000000000000000000000000000000000000000000000000000028152600401808381526020018281526020019250505060006040518083038186803b15801561381057600080fd5b505af4158015613824573d6000803e3d6000fd5b505050506040513d6000823e3d601f19601f82011682018060405250602081101561384e57600080fd5b81019080805164010000000081111561386657600080fd5b8281019050602081018481111561387c57600080fd5b815185600182028301116401000000008211171561389957600080fd5b505092919050505094508560040160006138b2876157ed565b815260200190815260200160002060009054906101000a90046c0100000000000000000000000002935060146020865160200101018301925080806001019150506136d7565b50816040519080825280601f01601f19166020018201604052801561392c5781602001600182028038833980820191505090505b509550600080905060008090505b8a811080156139f457508660010173__StringSetLib__________________________632486134690916040518263ffffffff167c01000000000000000000000000000000000000000000000000000000000281526004018082815260200191505060206040518083038186803b1580156139b457600080fd5b505af41580156139c8573d6000803e3d6000fd5b505050506040513d60208110156139de57600080fd5b8101908080519060200190929190505050838201105b15613b92578660010173__StringSetLib__________________________6329b97ab690918584016040518363ffffffff167c0100000000000000000000000000000000000000000000000000000000028152600401808381526020018281526020019250505060006040518083038186803b158015613a7357600080fd5b505af4158015613a87573d6000803e3d6000fd5b505050506040513d6000823e3d601f19601f820116820180604052506020811015613ab157600080fd5b810190808051640100000000811115613ac957600080fd5b82810190506020810184811115613adf57600080fd5b8151856001820283011164010000000082111715613afc57600080fd5b50509291905050509550866004016000613b15886157ed565b815260200190815260200160002060009054906101000a90046c01000000000000000000000000029450613b4b8651898461586a565b602082019150613b5c868984615906565b855182019150613b6e6014898461586a565b602082019150613b7f8589846159c1565b601482019150808060010191505061393a565b508560010173__StringSetLib__________________________632486134690916040518263ffffffff167c01000000000000000000000000000000000000000000000000000000000281526004018082815260200191505060206040518083038186803b158015613c0357600080fd5b505af4158015613c17573d6000803e3d6000fd5b505050506040513d6020811015613c2d57600080fd5b81019080805190602001909291905050508797509750505050505050935093915050565b6000806000613c5f846157ed565b815260200190815260200160002060080173__StringSetLib__________________________63411565559091856040518363ffffffff167c01000000000000000000000000000000000000000000000000000000000281526004018083815260200180602001828103825283818151815260200191508051906020019080838360005b83811015613cfe578082015181840152602081019050613ce3565b50505050905090810190601f168015613d2b5780820380516001836020036101000a031916815260200191505b50935050505060206040518083038186803b158015613d4957600080fd5b505af4158015613d5d573d6000803e3d6000fd5b505050506040513d6020811015613d7357600080fd5b8101908080519060200190929190505050905092915050565b600160009054906101000a900473ffffffffffffffffffffffffffffffffffffffff1681565b600080600080600080613dc4886157ed565b815260200190815260200160002090508060000160009054906101000a900460ff161515613e5a576040517f08c379a00000000000000000000000000000000000000000000000000000000081526004018080602001828103825260138152602001807f7265706f20646f6573206e6f742065786973740000000000000000000000000081525060200191505060405180910390fd5b80600b0173__StringSetLib__________________________63411565559091876040518363ffffffff167c01000000000000000000000000000000000000000000000000000000000281526004018083815260200180602001828103825283818151815260200191508051906020019080838360005b83811015613eec578082015181840152602081019050613ed1565b50505050905090810190601f168015613f195780820380516001836020036101000a031916815260200191505b50935050505060206040518083038186803b158015613f3757600080fd5b505af4158015613f4b573d6000803e3d6000fd5b505050506040513d6020811015613f6157600080fd5b81019080805190602001909291905050508160080173__StringSetLib__________________________63411565559091886040518363ffffffff167c01000000000000000000000000000000000000000000000000000000000281526004018083815260200180602001828103825283818151815260200191508051906020019080838360005b83811015614004578082015181840152602081019050613fe9565b50505050905090810190601f1680156140315780820380516001836020036101000a031916815260200191505b50935050505060206040518083038186803b15801561404f57600080fd5b505af4158015614063573d6000803e3d6000fd5b505050506040513d602081101561407957600080fd5b81019080805190602001909291905050508260050173__StringSetLib__________________________63411565559091896040518363ffffffff167c01000000000000000000000000000000000000000000000000000000000281526004018083815260200180602001828103825283818151815260200191508051906020019080838360005b8381101561411c578082015181840152602081019050614101565b50505050905090810190601f1680156141495780820380516001836020036101000a031916815260200191505b50935050505060206040518083038186803b15801561416757600080fd5b505af415801561417b573d6000803e3d6000fd5b505050506040513d602081101561419157600080fd5b8101908080519060200190929190505050935093509350509250925092565b600160009054906101000a900473ffffffffffffffffffffffffffffffffffffffff1673ffffffffffffffffffffffffffffffffffffffff163373ffffffffffffffffffffffffffffffffffffffff1614151561420c57600080fd5b80600260006101000a81548173ffffffffffffffffffffffffffffffffffffffff021916908373ffffffffffffffffffffffffffffffffffffffff16021790555050565b61425a338661342c565b15156142ce576040517f08c379a00000000000000000000000000000000000000000000000000000000081526004018080602001828103825260148152602001807f796f7520617265206e6f7420616e2061646d696e00000000000000000000000081525060200191505060405180910390fd5b60008060006142dc886157ed565b815260200190815260200160002090508060000160009054906101000a900460ff161515614372576040517f08c379a00000000000000000000000000000000000000000000000000000000081526004018080602001828103825260138152602001807f7265706f20646f6573206e6f742065786973740000000000000000000000000081525060200191505060405180910390fd5b83156144965780600b0173__StringSetLib__________________________63524e643b9091876040518363ffffffff167c01000000000000000000000000000000000000000000000000000000000281526004018083815260200180602001828103825283818151815260200191508051906020019080838360005b8381101561440a5780820151818401526020810190506143ef565b50505050905090810190601f1680156144375780820380516001836020036101000a031916815260200191505b50935050505060206040518083038186803b15801561445557600080fd5b505af4158015614469573d6000803e3d6000fd5b505050506040513d602081101561447f57600080fd5b8101908080519060200190929190505050506145b0565b80600b0173__StringSetLib__________________________634cab0b159091876040518363ffffffff167c01000000000000000000000000000000000000000000000000000000000281526004018083815260200180602001828103825283818151815260200191508051906020019080838360005b8381101561452857808201518184015260208101905061450d565b50505050905090810190601f1680156145555780820380516001836020036101000a031916815260200191505b50935050505060206040518083038186803b15801561457357600080fd5b505af4158015614587573d6000803e3d6000fd5b505050506040513d602081101561459d57600080fd5b8101908080519060200190929190505050505b82156146d4578060080173__StringSetLib__________________________63524e643b9091876040518363ffffffff167c01000000000000000000000000000000000000000000000000000000000281526004018083815260200180602001828103825283818151815260200191508051906020019080838360005b8381101561464857808201518184015260208101905061462d565b50505050905090810190601f1680156146755780820380516001836020036101000a031916815260200191505b50935050505060206040518083038186803b15801561469357600080fd5b505af41580156146a7573d6000803e3d6000fd5b505050506040513d60208110156146bd57600080fd5b8101908080519060200190929190505050506147ee565b8060080173__StringSetLib__________________________634cab0b159091876040518363ffffffff167c01000000000000000000000000000000000000000000000000000000000281526004018083815260200180602001828103825283818151815260200191508051906020019080838360005b8381101561476657808201518184015260208101905061474b565b50505050905090810190601f1680156147935780820380516001836020036101000a031916815260200191505b50935050505060206040518083038186803b1580156147b157600080fd5b505af41580156147c5573d6000803e3d6000fd5b505050506040513d60208110156147db57600080fd5b8101908080519060200190929190505050505b8115614912578060050173__StringSetLib__________________________63524e643b9091876040518363ffffffff167c01000000000000000000000000000000000000000000000000000000000281526004018083815260200180602001828103825283818151815260200191508051906020019080838360005b8381101561488657808201518184015260208101905061486b565b50505050905090810190601f1680156148b35780820380516001836020036101000a031916815260200191505b50935050505060206040518083038186803b1580156148d157600080fd5b505af41580156148e5573d6000803e3d6000fd5b505050506040513d60208110156148fb57600080fd5b810190808051906020019092919050505050614a2c565b8060050173__StringSetLib__________________________634cab0b159091876040518363ffffffff167c01000000000000000000000000000000000000000000000000000000000281526004018083815260200180602001828103825283818151815260200191508051906020019080838360005b838110156149a4578082015181840152602081019050614989565b50505050905090810190601f1680156149d15780820380516001836020036101000a031916815260200191505b50935050505060206040518083038186803b1580156149ef57600080fd5b505af4158015614a03573d6000803e3d6000fd5b505050506040513d6020811015614a1957600080fd5b8101908080519060200190929190505050505b505050505050565b614a3e338261342c565b1515614ad8576040517f08c379a00000000000000000000000000000000000000000000000000000000081526004018080602001828103825260218152602001807f796f7520617265206e6f7420616e2061646d696e206f6620746869732072657081526020017f6f0000000000000000000000000000000000000000000000000000000000000081525060400191505060405180910390fd5b6000806000614ae6846157ed565b815260200190815260200160002090508060000160009054906101000a900460ff161515614b7c576040517f08c379a00000000000000000000000000000000000000000000000000000000081526004018080602001828103825260188152602001807f74686973207265706f20646f6573206e6f74206578697374000000000000000081525060200191505060405180910390fd5b600080614b88846157ed565b8152602001908152602001600020600080820160006101000a81549060ff02191690556001820160008082016000614bc09190615a5d565b50506005820160008082016000614bd79190615a5d565b50506008820160008082016000614bee9190615a5d565b5050600b820160008082016000614c059190615a5d565b5050600e820160006101000a81549060ff02191690555050816040518082805190602001908083835b602083101515614c535780518252602082019150602081019050602083039250614c2e565b6001836020036101000a03801982511681845116808217855250505050505090500191505060405180910390203373ffffffffffffffffffffffffffffffffffffffff167f2a125302c359bb06e95f884b73ed06c2a9247328d0e13d474bb1c94a02d2baad60405160405180910390a35050565b614e1c600260009054906101000a900473ffffffffffffffffffffffffffffffffffffffff1673ffffffffffffffffffffffffffffffffffffffff166342dfb6da336040518263ffffffff167c0100000000000000000000000000000000000000000000000000000000028152600401808273ffffffffffffffffffffffffffffffffffffffff1673ffffffffffffffffffffffffffffffffffffffff16815260200191505060006040518083038186803b158015614d8557600080fd5b505afa158015614d99573d6000803e3d6000fd5b505050506040513d6000823e3d601f19601f820116820180604052506020811015614dc357600080fd5b810190808051640100000000811115614ddb57600080fd5b82810190506020810184811115614df157600080fd5b8151856001820283011164010000000082111715614e0e57600080fd5b505092919050505083613c51565b1515614e90576040517f08c379a000000000000000000000000000000000000000000000000000000000815260040180806020018281038252601a8152602001807f796f7520646f6e2774206861766520707573682061636365737300000000000081525060200191505060405180910390fd5b6000806000614e9e856157ed565b815260200190815260200160002090508060000160009054906101000a900460ff161515614f34576040517f08c379a00000000000000000000000000000000000000000000000000000000081526004018080602001828103825260138152602001807f7265706f20646f6573206e6f742065786973740000000000000000000000000081525060200191505060405180910390fd5b8060010173__StringSetLib__________________________634cab0b159091846040518363ffffffff167c01000000000000000000000000000000000000000000000000000000000281526004018083815260200180602001828103825283818151815260200191508051906020019080838360005b83811015614fc6578082015181840152602081019050614fab565b50505050905090810190601f168015614ff35780820380516001836020036101000a031916815260200191505b50935050505060206040518083038186803b15801561501157600080fd5b505af4158015615025573d6000803e3d6000fd5b505050506040513d602081101561503b57600080fd5b81019080805190602001909291905050505080600401600061505c846157ed565b815260200190815260200160002060006101000a81549073ffffffffffffffffffffffffffffffffffffffff0219169055816040518082805190602001908083835b6020831015156150c3578051825260208201915060208101905060208303925061509e565b6001836020036101000a0380198251168184511680821785525050505050509050019150506040518091039020836040518082805190602001908083835b6020831015156151265780518252602082019150602081019050602083039250615101565b6001836020036101000a03801982511681845116808217855250505050505090500191505060405180910390203373ffffffffffffffffffffffffffffffffffffffff167ff7f3c15b2efffd8e8e7ba0e47f0d1240c4e8d027aca67641f9863d3c52ef054960405160405180910390a4505050565b60008060006151a9846157ed565b815260200190815260200160002060050173__StringSetLib__________________________63411565559091856040518363ffffffff167c01000000000000000000000000000000000000000000000000000000000281526004018083815260200180602001828103825283818151815260200191508051906020019080838360005b8381101561524857808201518184015260208101905061522d565b50505050905090810190601f1680156152755780820380516001836020036101000a031916815260200191505b50935050505060206040518083038186803b15801561529357600080fd5b505af41580156152a7573d6000803e3d6000fd5b505050506040513d60208110156152bd57600080fd5b8101908080519060200190929190505050905092915050565b600260009054906101000a900473ffffffffffffffffffffffffffffffffffffffff1673ffffffffffffffffffffffffffffffffffffffff1663e204545233836040518363ffffffff167c0100000000000000000000000000000000000000000000000000000000028152600401808373ffffffffffffffffffffffffffffffffffffffff1673ffffffffffffffffffffffffffffffffffffffff16815260200180602001828103825283818151815260200191508051906020019080838360005b838110156153b3578082015181840152602081019050615398565b50505050905090810190601f1680156153e05780820380516001836020036101000a031916815260200191505b509350505050600060405180830381600087803b15801561540057600080fd5b505af1158015615414573d6000803e3d6000fd5b50505050806040518082805190602001908083835b60208310151561544e5780518252602082019150602081019050602083039250615429565b6001836020036101000a03801982511681845116808217855250505050505090500191505060405180910390203373ffffffffffffffffffffffffffffffffffffffff167faffa6dd92f7ba89dd7b4fdd8809b8e8d38b6431d8f41674fae86cfa06fc66d9960405160405180910390a350565b6000806154cd836157ed565b905060011515600080838152602001908152602001600020600e0160009054906101000a900460ff1615151415615508576001915050615635565b600080828152602001908152602001600020600b0173__StringSetLib__________________________63411565559091866040518363ffffffff167c01000000000000000000000000000000000000000000000000000000000281526004018083815260200180602001828103825283818151815260200191508051906020019080838360005b838110156155ab578082015181840152602081019050615590565b50505050905090810190601f1680156155d85780820380516001836020036101000a031916815260200191505b50935050505060206040518083038186803b1580156155f657600080fd5b505af415801561560a573d6000803e3d6000fd5b505050506040513d602081101561562057600080fd5b81019080805190602001909291905050509150505b92915050565b6000806000615649846157ed565b815260200190815260200160002060010173__StringSetLib__________________________632486134690916040518263ffffffff167c01000000000000000000000000000000000000000000000000000000000281526004018082815260200191505060206040518083038186803b1580156156c657600080fd5b505af41580156156da573d6000803e3d6000fd5b505050506040513d60208110156156f057600080fd5b81019080805190602001909291905050509050919050565b600080600080615717866157ed565b815260200190815260200160002090508060000160009054906101000a900460ff1615156157ad576040517f08c379a00000000000000000000000000000000000000000000000000000000081526004018080602001828103825260138152602001807f7265706f20646f6573206e6f742065786973740000000000000000000000000081525060200191505060405180910390fd5b8060040160006157bc856157ed565b815260200190815260200160002060009054906101000a90046c010000000000000000000000000291505092915050565b6000816040516020018082805190602001908083835b6020831015156158285780518252602082019150602081019050602083039250615803565b6001836020036101000a038019825116818451168082178552505050505050905001915050604051602081830303815290604052805190602001209050919050565b600083600102905060008090505b60208110156158ff57818160208110151561588f57fe5b1a7f010000000000000000000000000000000000000000000000000000000000000002848483018151811015156158c257fe5b9060200101907effffffffffffffffffffffffffffffffffffffffffffffffffffffffffffff1916908160001a9053508080600101915050615878565b5050505050565b60008090505b83518110156159bb57838181518110151561592357fe5b9060200101517f010000000000000000000000000000000000000000000000000000000000000090047f0100000000000000000000000000000000000000000000000000000000000000028383830181518110151561597e57fe5b9060200101907effffffffffffffffffffffffffffffffffffffffffffffffffffffffffffff1916908160001a905350808060010191505061590c565b50505050565b60008090505b60148160ff161015615a5757838160ff166014811015156159e457fe5b1a7f01000000000000000000000000000000000000000000000000000000000000000283838360ff1601815181101515615a1a57fe5b9060200101907effffffffffffffffffffffffffffffffffffffffffffffffffffffffffffff1916908160001a90535080806001019150506159c7565b50505050565b5080546000825590600052602060002090810190615a7b9190615a7e565b50565b615aa791905b80821115615aa35760008181615a9a9190615aaa565b50600101615a84565b5090565b90565b50805460018160011615610100020316600290046000825580601f10615ad05750615aef565b601f016020900490600052602060002090810190615aee9190615af2565b5b50565b615b1491905b80821115615b10576000816000905550600101615af8565b5090565b9056fea165627a7a723058200d18d823efa230c2ac9b5acd84ea376aea32eae5d0f15412c7d5950bc9d90fd60029",
  "source": "pragma solidity ^0.5.0;\n// pragma experimental ABIEncoderV2;\n\nimport \"./StringSetLib.sol\";\nimport \"./UserRegistry.sol\";\n\ncontract Protocol\n{\n    using StringSetLib for StringSetLib.StringSet;\n\n    struct Repo {\n        bool exists;\n\n        StringSetLib.StringSet refs;\n        mapping(bytes32 => bytes20) refsToCommits;\n\n        StringSetLib.StringSet admins;\n        StringSetLib.StringSet pushers;\n        StringSetLib.StringSet pullers;\n        bool isPublic;\n    }\n\n    mapping(bytes32 => Repo) repositories;\n\n    event LogSetUsername(address indexed addr, string indexed username);\n    event LogCreateRepo(address indexed user, string indexed repoID);\n    event LogDeleteRepo(address indexed user, string indexed repoID);\n    event LogSetPublic(address indexed user, string repoID, bool isPublic);\n    event LogUpdateRef(address indexed user, string indexed repoID, string indexed refName, bytes20 commitHash);\n    event LogDeleteRef(address indexed user, string indexed repoID, string indexed refName);\n\n    address public owner;\n    UserRegistry public userRegistry;\n\n    constructor() public {\n        owner = msg.sender;\n    }\n\n    function setUserRegistry(address _userRegistry) public {\n        require(msg.sender == owner);\n        userRegistry = UserRegistry(_userRegistry);\n    }\n\n    function setUsername(string memory username) public {\n        userRegistry.setUsername(msg.sender, username);\n        emit LogSetUsername(msg.sender, username);\n    }\n\n    function usernamesByAddress(address addr) public view returns (string memory) {\n        return userRegistry.usernamesByAddress(addr);\n    }\n\n    function createRepo(string memory repoID) public {\n        // Ensure that repoID is nonempty\n        require(bytes(repoID).length > 0, \"argument 'repoID' cannot be empty\");\n\n        // Ensure that the user has registered a username\n        string memory username = userRegistry.usernamesByAddress(msg.sender);\n        require(bytes(username).length > 0, \"you have not claimed a username\");\n\n        Repo storage repo = repositories[hashString(repoID)];\n\n        // Ensure that the repo doesn't exist yet\n        require(repo.exists == false, \"this repoID has already been claimed\");\n\n        repo.exists = true;\n        repo.pushers.add(username);\n        repo.admins.add(username);\n        repo.pullers.add(username);\n\n        emit LogCreateRepo(msg.sender, repoID);\n    }\n\n    function deleteRepo(string memory repoID) public {\n        require(addressIsAdmin(msg.sender, repoID), \"you are not an admin of this repo\");\n\n        Repo storage repo = repositories[hashString(repoID)];\n        require(repo.exists, \"this repo does not exist\");\n\n        delete repositories[hashString(repoID)];\n\n        emit LogDeleteRepo(msg.sender, repoID);\n    }\n\n    function setPublic(string memory repoID, bool isPublic) public {\n        require(addressIsAdmin(msg.sender, repoID), \"you are not an admin of this repo\");\n\n        Repo storage repo = repositories[hashString(repoID)];\n        require(repo.exists, \"this repo does not exist\");\n\n        repo.isPublic = isPublic;\n\n        emit LogSetPublic(msg.sender, repoID, isPublic);\n    }\n\n    function updateRef(string memory repoID, string memory refName, bytes20 oldCommitHash, bytes20 newCommitHash) public {\n        require(userHasPushAccess(userRegistry.usernamesByAddress(msg.sender), repoID), \"you don't have push access\");\n\n        Repo storage repo = repositories[hashString(repoID)];\n        require(repo.exists, \"repo does not exist\");\n        require(oldCommitHash == repo.refsToCommits[hashString(refName)], \"the provided oldCommitHash is incorrect\");\n\n        repo.refs.add(refName);\n        repo.refsToCommits[hashString(refName)] = newCommitHash;\n\n        emit LogUpdateRef(msg.sender, repoID, refName, newCommitHash);\n    }\n\n    function deleteRef(string memory repoID, string memory refName) public {\n        require(userHasPushAccess(userRegistry.usernamesByAddress(msg.sender), repoID), \"you don't have push access\");\n\n        Repo storage repo = repositories[hashString(repoID)];\n        require(repo.exists, \"repo does not exist\");\n\n        repo.refs.remove(refName);\n        delete repo.refsToCommits[hashString(refName)];\n\n        emit LogDeleteRef(msg.sender, repoID, refName);\n    }\n\n    function repoExists(string memory repoID) public view returns (bool) {\n        return repositories[hashString(repoID)].exists;\n    }\n\n    function userIsAdmin(string memory username, string memory repoID) public view returns (bool) {\n        return repositories[hashString(repoID)].admins.contains(username);\n    }\n\n    function userHasPullAccess(string memory username, string memory repoID) public view returns (bool) {\n        bytes32 repoIDHash = hashString(repoID);\n        if (repositories[repoIDHash].isPublic == true) {\n            return true;\n        }\n        return repositories[repoIDHash].pullers.contains(username);\n    }\n\n    function userHasPushAccess(string memory username, string memory repoID) public view returns (bool) {\n        return repositories[hashString(repoID)].pushers.contains(username);\n    }\n\n    function addressIsAdmin(address addr, string memory repoID) public view returns (bool) {\n        return userIsAdmin(userRegistry.usernamesByAddress(addr), repoID);\n    }\n\n    function addressHasPullAccess(address addr, string memory repoID) public view returns (bool) {\n        return userHasPullAccess(userRegistry.usernamesByAddress(addr), repoID);\n    }\n\n    function addressHasPushAccess(address addr, string memory repoID) public view returns (bool) {\n        return userHasPushAccess(userRegistry.usernamesByAddress(addr), repoID);\n    }\n\n    function isRepoPublic(string memory repoID) public view returns(bool) {\n        return repositories[hashString(repoID)].isPublic;\n    }\n\n    function getUserPermissions(string memory repoID, string memory username) public view returns (bool puller, bool pusher, bool admin) {\n        Repo storage repo = repositories[hashString(repoID)];\n        require(repo.exists, \"repo does not exist\");\n\n        return (\n            repo.pullers.contains(username),\n            repo.pushers.contains(username),\n            repo.admins.contains(username)\n        );\n    }\n\n    function setUserPermissions(string memory repoID, string memory username, bool puller, bool pusher, bool admin) public {\n        require(addressIsAdmin(msg.sender, repoID), \"you are not an admin\");\n\n        Repo storage repo = repositories[hashString(repoID)];\n        require(repo.exists, \"repo does not exist\");\n\n        if (puller) {\n            repo.pullers.add(username);\n        } else {\n            repo.pullers.remove(username);\n        }\n\n        if (pusher) {\n            repo.pushers.add(username);\n        } else {\n            repo.pushers.remove(username);\n        }\n\n        if (admin) {\n            repo.admins.add(username);\n        } else {\n            repo.admins.remove(username);\n        }\n    }\n\n    function numRefs(string memory repoID) public view returns (uint) {\n        return repositories[hashString(repoID)].refs.size();\n    }\n\n    function getRef(string memory repoID, string memory refName) public view returns (bytes20) {\n        Repo storage repo = repositories[hashString(repoID)];\n        require(repo.exists, \"repo does not exist\");\n\n        return repo.refsToCommits[hashString(refName)];\n    }\n\n    function getRefs(string memory repoID, uint pageSize, uint page) public view returns (uint total, bytes memory data) {\n        Repo storage repo = repositories[hashString(repoID)];\n        require(repo.exists, \"repo does not exist\");\n\n        string memory refName;\n        bytes20 commit;\n        uint len = 0;\n        uint start = page * pageSize;\n        for (uint i = 0; i < pageSize && i + start < repo.refs.size(); i++) {\n            refName = repo.refs.get(i + start);\n            commit = repo.refsToCommits[hashString(refName)];\n            len += 32 + bytes(refName).length + 32 + 20;\n        }\n\n        data = new bytes(len);\n        uint written = 0;\n        for (uint i = 0; i < pageSize && i + start < repo.refs.size(); i++) {\n            refName = repo.refs.get(i + start);\n            commit = repo.refsToCommits[hashString(refName)];\n\n            writeUint(bytes(refName).length, data, written);\n            written += 32;\n            writeBytes(bytes(refName), data, written);\n            written += bytes(refName).length;\n\n            writeUint(20, data, written);\n            written += 32;\n            writeBytes20(commit, data, written);\n            written += 20;\n        }\n\n        return (repo.refs.size(), data);\n    }\n\n    enum UserType {\n        ADMIN, PULLER, PUSHER\n    }\n\n    function getRepoUsers(string memory repoID, UserType whichUsers, uint pageSize, uint page) public view returns (uint total, bytes memory data) {\n        Repo storage repo = repositories[hashString(repoID)];\n        require(repo.exists, \"repo does not exist\");\n\n        StringSetLib.StringSet storage users = repo.admins;\n        if (whichUsers == UserType.ADMIN) {\n            users = repo.admins;\n        } else if (whichUsers == UserType.PULLER) {\n            users = repo.pullers;\n        } else if (whichUsers == UserType.PUSHER) {\n            users = repo.pushers;\n        }\n\n        string memory user;\n        uint len = 0;\n        uint start = page * pageSize;\n        for (uint i = 0; i < pageSize && i + start < users.size(); i++) {\n            user = users.get(i + start);\n            len += 32 + bytes(user).length;\n        }\n\n        data = new bytes(len);\n        uint written = 0;\n        for (uint i = 0; i < pageSize && i + start < users.size(); i++) {\n            user = users.get(i + start);\n\n            writeUint(bytes(user).length, data, written);\n            written += 32;\n            writeBytes(bytes(user), data, written);\n            written += bytes(user).length;\n        }\n\n        return (users.size(), data);\n    }\n\n    function writeUint(uint x, bytes memory dest, uint offset) private pure {\n        bytes32 b = bytes32(x);\n        for (uint i = 0; i < 32; i++) {\n            dest[i + offset] = b[i];\n        }\n    }\n\n    function writeBytes(bytes memory src, bytes memory dest, uint offset) private pure {\n        for (uint i = 0; i < src.length; i++) {\n            dest[i + offset] = src[i];\n        }\n    }\n\n    function writeBytes20(bytes20 src, bytes memory dest, uint offset) private pure {\n        for (uint8 i = 0; i < 20; i++) {\n            dest[i + offset] = src[i];\n        }\n    }\n\n    function hashString(string memory s) private pure returns (bytes32) {\n        return keccak256(abi.encodePacked(s));\n    }\n}",
  "sourcePath": "/home/bryn/projects/conscience/protocol/eth/contracts/Protocol.sol",
  "compiler": {
    "name": "solc",
    "version": "0.5.0+commit.1d4f565a.Emscripten.clang"
  },
  "schemaVersion": "3.0.10",
  "updatedAt": "2019-07-11T01:10:57.576Z",
  "devdoc": {
    "methods": {}
  },
  "userdoc": {
    "methods": {}
  }
}