{
  "contractName": "Protocol",
  "abi": [
    {
      "constant": true,
      "inputs": [
        {
          "name": "",
          "type": "address"
        }
      ],
      "name": "usernamesByAddress",
      "outputs": [
        {
          "name": "",
          "type": "string"
        }
      ],
      "payable": false,
      "stateMutability": "view",
      "type": "function"
    },
    {
      "constant": true,
      "inputs": [
        {
          "name": "",
          "type": "bytes32"
        }
      ],
      "name": "addressesByUsername",
      "outputs": [
        {
          "name": "",
          "type": "address"
        }
      ],
      "payable": false,
      "stateMutability": "view",
      "type": "function"
    },
    {
      "inputs": [],
      "payable": false,
      "stateMutability": "nonpayable",
      "type": "constructor"
    },
    {
      "anonymous": false,
      "inputs": [
        {
          "indexed": true,
          "name": "addr",
          "type": "address"
        },
        {
          "indexed": true,
          "name": "username",
          "type": "string"
        }
      ],
      "name": "LogSetUsername",
      "type": "event"
    },
    {
      "anonymous": false,
      "inputs": [
        {
          "indexed": true,
          "name": "user",
          "type": "address"
        },
        {
          "indexed": true,
          "name": "repoID",
          "type": "string"
        }
      ],
      "name": "LogCreateRepo",
      "type": "event"
    },
    {
      "anonymous": false,
      "inputs": [
        {
          "indexed": true,
          "name": "user",
          "type": "address"
        },
        {
          "indexed": true,
          "name": "repoID",
          "type": "string"
        }
      ],
      "name": "LogDeleteRepo",
      "type": "event"
    },
    {
      "anonymous": false,
      "inputs": [
        {
          "indexed": true,
          "name": "user",
          "type": "address"
        },
        {
          "indexed": true,
          "name": "repoID",
          "type": "string"
        },
        {
          "indexed": true,
          "name": "refName",
          "type": "string"
        },
        {
          "indexed": false,
          "name": "commitHash",
          "type": "string"
        }
      ],
      "name": "LogUpdateRef",
      "type": "event"
    },
    {
      "anonymous": false,
      "inputs": [
        {
          "indexed": true,
          "name": "user",
          "type": "address"
        },
        {
          "indexed": true,
          "name": "repoID",
          "type": "string"
        },
        {
          "indexed": true,
          "name": "refName",
          "type": "string"
        }
      ],
      "name": "LogDeleteRef",
      "type": "event"
    },
    {
      "constant": false,
      "inputs": [
        {
          "name": "username",
          "type": "string"
        }
      ],
      "name": "setUsername",
      "outputs": [],
      "payable": false,
      "stateMutability": "nonpayable",
      "type": "function"
    },
    {
      "constant": true,
      "inputs": [
        {
          "name": "username",
          "type": "string"
        }
      ],
      "name": "getAddressForUsername",
      "outputs": [
        {
          "name": "",
          "type": "address"
        }
      ],
      "payable": false,
      "stateMutability": "view",
      "type": "function"
    },
    {
      "constant": false,
      "inputs": [
        {
          "name": "repoID",
          "type": "string"
        }
      ],
      "name": "createRepo",
      "outputs": [],
      "payable": false,
      "stateMutability": "nonpayable",
      "type": "function"
    },
    {
      "constant": false,
      "inputs": [
        {
          "name": "repoID",
          "type": "string"
        }
      ],
      "name": "deleteRepo",
      "outputs": [],
      "payable": false,
      "stateMutability": "nonpayable",
      "type": "function"
    },
    {
      "constant": false,
      "inputs": [
        {
          "name": "repoID",
          "type": "string"
        },
        {
          "name": "refName",
          "type": "string"
        },
        {
          "name": "commitHash",
          "type": "string"
        }
      ],
      "name": "updateRef",
      "outputs": [],
      "payable": false,
      "stateMutability": "nonpayable",
      "type": "function"
    },
    {
      "constant": false,
      "inputs": [
        {
          "name": "repoID",
          "type": "string"
        },
        {
          "name": "refName",
          "type": "string"
        }
      ],
      "name": "deleteRef",
      "outputs": [],
      "payable": false,
      "stateMutability": "nonpayable",
      "type": "function"
    },
    {
      "constant": true,
      "inputs": [
        {
          "name": "repoID",
          "type": "string"
        }
      ],
      "name": "repoExists",
      "outputs": [
        {
          "name": "",
          "type": "bool"
        }
      ],
      "payable": false,
      "stateMutability": "view",
      "type": "function"
    },
    {
      "constant": true,
      "inputs": [
        {
          "name": "username",
          "type": "string"
        },
        {
          "name": "repoID",
          "type": "string"
        }
      ],
      "name": "userIsAdmin",
      "outputs": [
        {
          "name": "",
          "type": "bool"
        }
      ],
      "payable": false,
      "stateMutability": "view",
      "type": "function"
    },
    {
      "constant": true,
      "inputs": [
        {
          "name": "username",
          "type": "string"
        },
        {
          "name": "repoID",
          "type": "string"
        }
      ],
      "name": "userHasPullAccess",
      "outputs": [
        {
          "name": "",
          "type": "bool"
        }
      ],
      "payable": false,
      "stateMutability": "view",
      "type": "function"
    },
    {
      "constant": true,
      "inputs": [
        {
          "name": "username",
          "type": "string"
        },
        {
          "name": "repoID",
          "type": "string"
        }
      ],
      "name": "userHasPushAccess",
      "outputs": [
        {
          "name": "",
          "type": "bool"
        }
      ],
      "payable": false,
      "stateMutability": "view",
      "type": "function"
    },
    {
      "constant": true,
      "inputs": [
        {
          "name": "addr",
          "type": "address"
        },
        {
          "name": "repoID",
          "type": "string"
        }
      ],
      "name": "addressIsAdmin",
      "outputs": [
        {
          "name": "",
          "type": "bool"
        }
      ],
      "payable": false,
      "stateMutability": "view",
      "type": "function"
    },
    {
      "constant": true,
      "inputs": [
        {
          "name": "addr",
          "type": "address"
        },
        {
          "name": "repoID",
          "type": "string"
        }
      ],
      "name": "addressHasPullAccess",
      "outputs": [
        {
          "name": "",
          "type": "bool"
        }
      ],
      "payable": false,
      "stateMutability": "view",
      "type": "function"
    },
    {
      "constant": true,
      "inputs": [
        {
          "name": "addr",
          "type": "address"
        },
        {
          "name": "repoID",
          "type": "string"
        }
      ],
      "name": "addressHasPushAccess",
      "outputs": [
        {
          "name": "",
          "type": "bool"
        }
      ],
      "payable": false,
      "stateMutability": "view",
      "type": "function"
    },
    {
      "constant": true,
      "inputs": [
        {
          "name": "repoID",
          "type": "string"
        },
        {
          "name": "username",
          "type": "string"
        }
      ],
      "name": "getUserPermissions",
      "outputs": [
        {
          "name": "puller",
          "type": "bool"
        },
        {
          "name": "pusher",
          "type": "bool"
        },
        {
          "name": "admin",
          "type": "bool"
        }
      ],
      "payable": false,
      "stateMutability": "view",
      "type": "function"
    },
    {
      "constant": false,
      "inputs": [
        {
          "name": "repoID",
          "type": "string"
        },
        {
          "name": "username",
          "type": "string"
        },
        {
          "name": "puller",
          "type": "bool"
        },
        {
          "name": "pusher",
          "type": "bool"
        },
        {
          "name": "admin",
          "type": "bool"
        }
      ],
      "name": "setUserPermissions",
      "outputs": [],
      "payable": false,
      "stateMutability": "nonpayable",
      "type": "function"
    },
    {
      "constant": true,
      "inputs": [
        {
          "name": "repoID",
          "type": "string"
        }
      ],
      "name": "numRefs",
      "outputs": [
        {
          "name": "",
          "type": "uint256"
        }
      ],
      "payable": false,
      "stateMutability": "view",
      "type": "function"
    },
    {
      "constant": true,
      "inputs": [
        {
          "name": "repoID",
          "type": "string"
        },
        {
          "name": "refName",
          "type": "string"
        }
      ],
      "name": "getRef",
      "outputs": [
        {
          "name": "",
          "type": "string"
        }
      ],
      "payable": false,
      "stateMutability": "view",
      "type": "function"
    },
    {
      "constant": true,
      "inputs": [
        {
          "name": "repoID",
          "type": "string"
        },
        {
          "name": "pageSize",
          "type": "uint256"
        },
        {
          "name": "page",
          "type": "uint256"
        }
      ],
      "name": "getRefs",
      "outputs": [
        {
          "name": "total",
          "type": "uint256"
        },
        {
          "name": "data",
          "type": "bytes"
        }
      ],
      "payable": false,
      "stateMutability": "view",
      "type": "function"
    },
    {
      "constant": true,
      "inputs": [
        {
          "name": "repoID",
          "type": "string"
        },
        {
          "name": "whichUsers",
          "type": "uint8"
        },
        {
          "name": "pageSize",
          "type": "uint256"
        },
        {
          "name": "page",
          "type": "uint256"
        }
      ],
      "name": "getRepoUsers",
      "outputs": [
        {
          "name": "total",
          "type": "uint256"
        },
        {
          "name": "data",
          "type": "bytes"
        }
      ],
      "payable": false,
      "stateMutability": "view",
      "type": "function"
    }
  ],
  "bytecode": "0x608060405234801561001057600080fd5b50614e41806100206000396000f30060806040526004361061011d576000357c0100000000000000000000000000000000000000000000000000000000900463ffffffff168063095a0535146101225780631ccd4912146101cb5780632b133be0146102d557806342dfb6da146103765780634d6e93cb146104325780634fa94bea146104d357806353dad7771461053c578063592c6a0f146105dd578063605a5dd81461065e5780636735c577146107535780637bbaf15914610850578063a58e325c14610917578063abd9649c14610988578063d4fa6a8f14610a65578063d51c250c14610b38578063e07a896d14610ba1578063ec67618914610c50578063ed59313a14610d17578063ede07dfe14610d80578063f2ebfa1014610e47578063f6ce75b314610ec4575b600080fd5b34801561012e57600080fd5b50610189600480360381019080803590602001908201803590602001908080601f0160208091040260200160405190810160405280939291908181526020018383808284378201915050505050509192919290505050610fec565b604051808273ffffffffffffffffffffffffffffffffffffffff1673ffffffffffffffffffffffffffffffffffffffff16815260200191505060405180910390f35b3480156101d757600080fd5b50610253600480360381019080803590602001908201803590602001908080601f0160208091040260200160405190810160405280939291908181526020018383808284378201915050505050509192919290803560ff1690602001909291908035906020019092919080359060200190929190505050611039565b6040518083815260200180602001828103825283818151815260200191508051906020019080838360005b8381101561029957808201518184015260208101905061027e565b50505050905090810190601f1680156102c65780820380516001836020036101000a031916815260200191505b50935050505060405180910390f35b3480156102e157600080fd5b5061035c600480360381019080803573ffffffffffffffffffffffffffffffffffffffff169060200190929190803590602001908201803590602001908080601f016020809104026020016040519081016040528093929190818152602001838380828437820191505050505050919291929050505061164a565b604051808215151515815260200191505060405180910390f35b34801561038257600080fd5b506103b7600480360381019080803573ffffffffffffffffffffffffffffffffffffffff169060200190929190505050611734565b6040518080602001828103825283818151815260200191508051906020019080838360005b838110156103f75780820151818401526020810190506103dc565b50505050905090810190601f1680156104245780820380516001836020036101000a031916815260200191505b509250505060405180910390f35b34801561043e57600080fd5b506104b9600480360381019080803573ffffffffffffffffffffffffffffffffffffffff169060200190929190803590602001908201803590602001908080601f01602080910402602001604051908101604052809392919081815260200183838082843782019150505050505091929192905050506117e4565b604051808215151515815260200191505060405180910390f35b3480156104df57600080fd5b5061053a600480360381019080803590602001908201803590602001908080601f01602080910402602001604051908101604052809392919081815260200183838082843782019150505050505091929192905050506118ce565b005b34801561054857600080fd5b506105c3600480360381019080803573ffffffffffffffffffffffffffffffffffffffff169060200190929190803590602001908201803590602001908080601f0160208091040260200160405190810160405280939291908181526020018383808284378201915050505050509192919290505050611fad565b604051808215151515815260200191505060405180910390f35b3480156105e957600080fd5b50610644600480360381019080803590602001908201803590602001908080601f0160208091040260200160405190810160405280939291908181526020018383808284378201915050505050509192919290505050612097565b604051808215151515815260200191505060405180910390f35b34801561066a57600080fd5b50610751600480360381019080803590602001908201803590602001908080601f0160208091040260200160405190810160405280939291908181526020018383808284378201915050505050509192919290803590602001908201803590602001908080601f0160208091040260200160405190810160405280939291908181526020018383808284378201915050505050509192919290803590602001908201803590602001908080601f01602080910402602001604051908101604052809392919081815260200183838082843782019150505050505091929192905050506120d4565b005b34801561075f57600080fd5b506107ce600480360381019080803590602001908201803590602001908080601f01602080910402602001604051908101604052809392919081815260200183838082843782019150505050505091929192908035906020019092919080359060200190929190505050612620565b6040518083815260200180602001828103825283818151815260200191508051906020019080838360005b838110156108145780820151818401526020810190506107f9565b50505050905090810190601f1680156108415780820380516001836020036101000a031916815260200191505b50935050505060405180910390f35b34801561085c57600080fd5b506108fd600480360381019080803590602001908201803590602001908080601f0160208091040260200160405190810160405280939291908181526020018383808284378201915050505050509192919290803590602001908201803590602001908080601f0160208091040260200160405190810160405280939291908181526020018383808284378201915050505050509192919290505050612d6d565b604051808215151515815260200191505060405180910390f35b34801561092357600080fd5b506109466004803603810190808035600019169060200190929190505050612eb1565b604051808273ffffffffffffffffffffffffffffffffffffffff1673ffffffffffffffffffffffffffffffffffffffff16815260200191505060405180910390f35b34801561099457600080fd5b50610a35600480360381019080803590602001908201803590602001908080601f0160208091040260200160405190810160405280939291908181526020018383808284378201915050505050509192919290803590602001908201803590602001908080601f0160208091040260200160405190810160405280939291908181526020018383808284378201915050505050509192919290505050612ee4565b60405180841515151581526020018315151515815260200182151515158152602001935050505060405180910390f35b348015610a7157600080fd5b50610b36600480360381019080803590602001908201803590602001908080601f0160208091040260200160405190810160405280939291908181526020018383808284378201915050505050509192919290803590602001908201803590602001908080601f01602080910402602001604051908101604052809392919081815260200183838082843782019150505050505091929192908035151590602001909291908035151590602001909291908035151590602001909291905050506132eb565b005b348015610b4457600080fd5b50610b9f600480360381019080803590602001908201803590602001908080601f0160208091040260200160405190810160405280939291908181526020018383808284378201915050505050509192919290505050613ad8565b005b348015610bad57600080fd5b50610c4e600480360381019080803590602001908201803590602001908080601f0160208091040260200160405190810160405280939291908181526020018383808284378201915050505050509192919290803590602001908201803590602001908080601f0160208091040260200160405190810160405280939291908181526020018383808284378201915050505050509192919290505050613d7d565b005b348015610c5c57600080fd5b50610cfd600480360381019080803590602001908201803590602001908080601f0160208091040260200160405190810160405280939291908181526020018383808284378201915050505050509192919290803590602001908201803590602001908080601f01602080910402602001604051908101604052809392919081815260200183838082843782019150505050505091929192905050506141d6565b604051808215151515815260200191505060405180910390f35b348015610d2357600080fd5b50610d7e600480360381019080803590602001908201803590602001908080601f016020809104026020016040519081016040528093929190818152602001838380828437820191505050505050919291929050505061431a565b005b348015610d8c57600080fd5b50610e2d600480360381019080803590602001908201803590602001908080601f0160208091040260200160405190810160405280939291908181526020018383808284378201915050505050509192919290803590602001908201803590602001908080601f01602080910402602001604051908101604052809392919081815260200183838082843782019150505050505091929192905050506146d5565b604051808215151515815260200191505060405180910390f35b348015610e5357600080fd5b50610eae600480360381019080803590602001908201803590602001908080601f0160208091040260200160405190810160405280939291908181526020018383808284378201915050505050509192919290505050614860565b6040518082815260200191505060405180910390f35b348015610ed057600080fd5b50610f71600480360381019080803590602001908201803590602001908080601f0160208091040260200160405190810160405280939291908181526020018383808284378201915050505050509192919290803590602001908201803590602001908080601f0160208091040260200160405190810160405280939291908181526020018383808284378201915050505050509192919290505050614936565b6040518080602001828103825283818151815260200191508051906020019080838360005b83811015610fb1578082015181840152602081019050610f96565b50505050905090810190601f168015610fde5780820380516001836020036101000a031916815260200191505b509250505060405180910390f35b600060016000610ffb84614aac565b6000191660001916815260200190815260200160002060009054906101000a900473ffffffffffffffffffffffffffffffffffffffff169050919050565b600060606000806060600080600080600260006110558f614aac565b6000191660001916815260200190815260200160002096508660000160009054906101000a900460ff1615156110f3576040517f08c379a00000000000000000000000000000000000000000000000000000000081526004018080602001828103825260138152602001807f7265706f20646f6573206e6f742065786973740000000000000000000000000081525060200191505060405180910390fd5b6000600281111561110057fe5b8c600281111561110c57fe5b141561111d5786600501955061116e565b6001600281111561112a57fe5b8c600281111561113657fe5b14156111475786600b01955061116d565b60028081111561115357fe5b8c600281111561115f57fe5b141561116c578660080195505b5b5b600093508a8a029250600091505b8a8210801561123357508573__StringSetLib__________________________632486134690916040518263ffffffff167c01000000000000000000000000000000000000000000000000000000000281526004018082815260200191505060206040518083038186803b1580156111f357600080fd5b505af4158015611207573d6000803e3d6000fd5b505050506040513d602081101561121d57600080fd5b8101908080519060200190929190505050838301105b15611358578573__StringSetLib__________________________6329b97ab690918585016040518363ffffffff167c0100000000000000000000000000000000000000000000000000000000028152600401808381526020018281526020019250505060006040518083038186803b1580156112af57600080fd5b505af41580156112c3573d6000803e3d6000fd5b505050506040513d6000823e3d601f19601f8201168201806040525060208110156112ed57600080fd5b81019080805164010000000081111561130557600080fd5b8281019050602081018481111561131b57600080fd5b815185600182028301116401000000008211171561133857600080fd5b50509291905050509450845160200184019350818060010192505061117c565b836040519080825280601f01601f19166020018201604052801561138b5781602001602082028038833980820191505090505b50975060009050600091505b8a8210801561144e57508573__StringSetLib__________________________632486134690916040518263ffffffff167c01000000000000000000000000000000000000000000000000000000000281526004018082815260200191505060206040518083038186803b15801561140e57600080fd5b505af4158015611422573d6000803e3d6000fd5b505050506040513d602081101561143857600080fd5b8101908080519060200190929190505050838301105b1561158d578573__StringSetLib__________________________6329b97ab690918585016040518363ffffffff167c0100000000000000000000000000000000000000000000000000000000028152600401808381526020018281526020019250505060006040518083038186803b1580156114ca57600080fd5b505af41580156114de573d6000803e3d6000fd5b505050506040513d6000823e3d601f19601f82011682018060405250602081101561150857600080fd5b81019080805164010000000081111561152057600080fd5b8281019050602081018481111561153657600080fd5b815185600182028301116401000000008211171561155357600080fd5b5050929190505050945061156985518983614b84565b60208101905061157a858983614c20565b8451810190508180600101925050611397565b8573__StringSetLib__________________________632486134690916040518263ffffffff167c01000000000000000000000000000000000000000000000000000000000281526004018082815260200191505060206040518083038186803b1580156115fa57600080fd5b505af415801561160e573d6000803e3d6000fd5b505050506040513d602081101561162457600080fd5b810190808051906020019092919050505088985098505050505050505094509492505050565b600061172c6000808573ffffffffffffffffffffffffffffffffffffffff1673ffffffffffffffffffffffffffffffffffffffff1681526020019081526020016000208054600181600116156101000203166002900480601f0160208091040260200160405190810160405280929190818152602001828054600181600116156101000203166002900480156117215780601f106116f657610100808354040283529160200191611721565b820191906000526020600020905b81548152906001019060200180831161170457829003601f168201915b505050505083612d6d565b905092915050565b60006020528060005260406000206000915090508054600181600116156101000203166002900480601f0160208091040260200160405190810160405280929190818152602001828054600181600116156101000203166002900480156117dc5780601f106117b1576101008083540402835291602001916117dc565b820191906000526020600020905b8154815290600101906020018083116117bf57829003601f168201915b505050505081565b60006118c66000808573ffffffffffffffffffffffffffffffffffffffff1673ffffffffffffffffffffffffffffffffffffffff1681526020019081526020016000208054600181600116156101000203166002900480601f0160208091040260200160405190810160405280929190818152602001828054600181600116156101000203166002900480156118bb5780601f10611890576101008083540402835291602001916118bb565b820191906000526020600020905b81548152906001019060200180831161189e57829003601f168201915b5050505050836146d5565b905092915050565b60606000808351111515611970576040517f08c379a00000000000000000000000000000000000000000000000000000000081526004018080602001828103825260218152602001807f617267756d656e7420277265706f4944272063616e6e6f7420626520656d707481526020017f790000000000000000000000000000000000000000000000000000000000000081525060400191505060405180910390fd5b6000803373ffffffffffffffffffffffffffffffffffffffff1673ffffffffffffffffffffffffffffffffffffffff1681526020019081526020016000208054600181600116156101000203166002900480601f016020809104026020016040519081016040528092919081815260200182805460018160011615610100020316600290048015611a425780601f10611a1757610100808354040283529160200191611a42565b820191906000526020600020905b815481529060010190602001808311611a2557829003601f168201915b5050505050915060008251111515611ac2576040517f08c379a000000000000000000000000000000000000000000000000000000000815260040180806020018281038252601f8152602001807f796f752068617665206e6f7420636c61696d6564206120757365726e616d650081525060200191505060405180910390fd5b60026000611acf85614aac565b600019166000191681526020019081526020016000209050600015158160000160009054906101000a900460ff161515141515611b9a576040517f08c379a00000000000000000000000000000000000000000000000000000000081526004018080602001828103825260248152602001807f74686973207265706f49442068617320616c7265616479206265656e20636c6181526020017f696d65640000000000000000000000000000000000000000000000000000000081525060400191505060405180910390fd5b60018160000160006101000a81548160ff0219169083151502179055508060080173__StringSetLib__________________________63524e643b9091846040518363ffffffff167c01000000000000000000000000000000000000000000000000000000000281526004018083815260200180602001828103825283818151815260200191508051906020019080838360005b83811015611c49578082015181840152602081019050611c2e565b50505050905090810190601f168015611c765780820380516001836020036101000a031916815260200191505b50935050505060206040518083038186803b158015611c9457600080fd5b505af4158015611ca8573d6000803e3d6000fd5b505050506040513d6020811015611cbe57600080fd5b8101908080519060200190929190505050508060050173__StringSetLib__________________________63524e643b9091846040518363ffffffff167c01000000000000000000000000000000000000000000000000000000000281526004018083815260200180602001828103825283818151815260200191508051906020019080838360005b83811015611d62578082015181840152602081019050611d47565b50505050905090810190601f168015611d8f5780820380516001836020036101000a031916815260200191505b50935050505060206040518083038186803b158015611dad57600080fd5b505af4158015611dc1573d6000803e3d6000fd5b505050506040513d6020811015611dd757600080fd5b81019080805190602001909291905050505080600b0173__StringSetLib__________________________63524e643b9091846040518363ffffffff167c01000000000000000000000000000000000000000000000000000000000281526004018083815260200180602001828103825283818151815260200191508051906020019080838360005b83811015611e7b578082015181840152602081019050611e60565b50505050905090810190601f168015611ea85780820380516001836020036101000a031916815260200191505b50935050505060206040518083038186803b158015611ec657600080fd5b505af4158015611eda573d6000803e3d6000fd5b505050506040513d6020811015611ef057600080fd5b810190808051906020019092919050505050826040518082805190602001908083835b602083101515611f385780518252602082019150602081019050602083039250611f13565b6001836020036101000a03801982511681845116808217855250505050505090500191505060405180910390203373ffffffffffffffffffffffffffffffffffffffff167f967edc3deaf8913ee580d1a499f00c093253f50ae9a868be5b29618047ae852960405160405180910390a3505050565b600061208f6000808573ffffffffffffffffffffffffffffffffffffffff1673ffffffffffffffffffffffffffffffffffffffff1681526020019081526020016000208054600181600116156101000203166002900480601f0160208091040260200160405190810160405280929190818152602001828054600181600116156101000203166002900480156120845780601f1061205957610100808354040283529160200191612084565b820191906000526020600020905b81548152906001019060200180831161206757829003601f168201915b5050505050836141d6565b905092915050565b6000600260006120a684614aac565b6000191660001916815260200190815260200160002060000160009054906101000a900460ff169050919050565b60006121b66000803373ffffffffffffffffffffffffffffffffffffffff1673ffffffffffffffffffffffffffffffffffffffff1681526020019081526020016000208054600181600116156101000203166002900480601f0160208091040260200160405190810160405280929190818152602001828054600181600116156101000203166002900480156121ab5780601f10612180576101008083540402835291602001916121ab565b820191906000526020600020905b81548152906001019060200180831161218e57829003601f168201915b505050505085612d6d565b151561222a576040517f08c379a000000000000000000000000000000000000000000000000000000000815260040180806020018281038252601a8152602001807f796f7520646f6e2774206861766520707573682061636365737300000000000081525060200191505060405180910390fd5b602882511415156122a3576040517f08c379a000000000000000000000000000000000000000000000000000000000815260040180806020018281038252600f8152602001807f62616420636f6d6d69742068617368000000000000000000000000000000000081525060200191505060405180910390fd5b600260006122b086614aac565b6000191660001916815260200190815260200160002090508060000160009054906101000a900460ff16151561234e576040517f08c379a00000000000000000000000000000000000000000000000000000000081526004018080602001828103825260138152602001807f7265706f20646f6573206e6f742065786973740000000000000000000000000081525060200191505060405180910390fd5b8060010173__StringSetLib__________________________63524e643b9091856040518363ffffffff167c01000000000000000000000000000000000000000000000000000000000281526004018083815260200180602001828103825283818151815260200191508051906020019080838360005b838110156123e05780820151818401526020810190506123c5565b50505050905090810190601f16801561240d5780820380516001836020036101000a031916815260200191505b50935050505060206040518083038186803b15801561242b57600080fd5b505af415801561243f573d6000803e3d6000fd5b505050506040513d602081101561245557600080fd5b8101908080519060200190929190505050508181600401600061247786614aac565b6000191660001916815260200190815260200160002090805190602001906124a0929190614cdb565b50826040518082805190602001908083835b6020831015156124d757805182526020820191506020810190506020830392506124b2565b6001836020036101000a0380198251168184511680821785525050505050509050019150506040518091039020846040518082805190602001908083835b60208310151561253a5780518252602082019150602081019050602083039250612515565b6001836020036101000a03801982511681845116808217855250505050505090500191505060405180910390203373ffffffffffffffffffffffffffffffffffffffff167fc77d795c5ada12e6e61f6ca6c04423828f0660699387fefc548700aad589669b856040518080602001828103825283818151815260200191508051906020019080838360005b838110156125e05780820151818401526020810190506125c5565b50505050905090810190601f16801561260d5780820380516001836020036101000a031916815260200191505b509250505060405180910390a450505050565b6000606060006060806000806000806002600061263c8e614aac565b6000191660001916815260200190815260200160002096508660000160009054906101000a900460ff1615156126da576040517f08c379a00000000000000000000000000000000000000000000000000000000081526004018080602001828103825260138152602001807f7265706f20646f6573206e6f742065786973740000000000000000000000000081525060200191505060405180910390fd5b600093508a8a029250600091505b8a821080156127a257508660010173__StringSetLib__________________________632486134690916040518263ffffffff167c01000000000000000000000000000000000000000000000000000000000281526004018082815260200191505060206040518083038186803b15801561276257600080fd5b505af4158015612776573d6000803e3d6000fd5b505050506040513d602081101561278c57600080fd5b8101908080519060200190929190505050838301105b15612990578660010173__StringSetLib__________________________6329b97ab690918585016040518363ffffffff167c0100000000000000000000000000000000000000000000000000000000028152600401808381526020018281526020019250505060006040518083038186803b15801561282157600080fd5b505af4158015612835573d6000803e3d6000fd5b505050506040513d6000823e3d601f19601f82011682018060405250602081101561285f57600080fd5b81019080805164010000000081111561287757600080fd5b8281019050602081018481111561288d57600080fd5b81518560018202830111640100000000821117156128aa57600080fd5b505092919050505095508660040160006128c388614aac565b600019166000191681526020019081526020016000208054600181600116156101000203166002900480601f01602080910402602001604051908101604052809291908181526020018280546001816001161561010002031660029004801561296d5780601f106129425761010080835404028352916020019161296d565b820191906000526020600020905b81548152906001019060200180831161295057829003601f168201915b5050505050945084516020875160200101018401935081806001019250506126e8565b836040519080825280601f01601f1916602001820160405280156129c35781602001602082028038833980820191505090505b50975060009050600091505b8a82108015612a8957508660010173__StringSetLib__________________________632486134690916040518263ffffffff167c01000000000000000000000000000000000000000000000000000000000281526004018082815260200191505060206040518083038186803b158015612a4957600080fd5b505af4158015612a5d573d6000803e3d6000fd5b505050506040513d6020811015612a7357600080fd5b8101908080519060200190929190505050838301105b15612cae578660010173__StringSetLib__________________________6329b97ab690918585016040518363ffffffff167c0100000000000000000000000000000000000000000000000000000000028152600401808381526020018281526020019250505060006040518083038186803b158015612b0857600080fd5b505af4158015612b1c573d6000803e3d6000fd5b505050506040513d6000823e3d601f19601f820116820180604052506020811015612b4657600080fd5b810190808051640100000000811115612b5e57600080fd5b82810190506020810184811115612b7457600080fd5b8151856001820283011164010000000082111715612b9157600080fd5b50509291905050509550866004016000612baa88614aac565b600019166000191681526020019081526020016000208054600181600116156101000203166002900480601f016020809104026020016040519081016040528092919081815260200182805460018160011615610100020316600290048015612c545780601f10612c2957610100808354040283529160200191612c54565b820191906000526020600020905b815481529060010190602001808311612c3757829003601f168201915b50505050509450612c6786518983614b84565b602081019050612c78868983614c20565b855181019050612c8a85518983614b84565b602081019050612c9b858983614c20565b84518101905081806001019250506129cf565b8660010173__StringSetLib__________________________632486134690916040518263ffffffff167c01000000000000000000000000000000000000000000000000000000000281526004018082815260200191505060206040518083038186803b158015612d1e57600080fd5b505af4158015612d32573d6000803e3d6000fd5b505050506040513d6020811015612d4857600080fd5b8101908080519060200190929190505050889850985050505050505050935093915050565b600060026000612d7c84614aac565b6000191660001916815260200190815260200160002060080173__StringSetLib__________________________63411565559091856040518363ffffffff167c01000000000000000000000000000000000000000000000000000000000281526004018083815260200180602001828103825283818151815260200191508051906020019080838360005b83811015612e23578082015181840152602081019050612e08565b50505050905090810190601f168015612e505780820380516001836020036101000a031916815260200191505b50935050505060206040518083038186803b158015612e6e57600080fd5b505af4158015612e82573d6000803e3d6000fd5b505050506040513d6020811015612e9857600080fd5b8101908080519060200190929190505050905092915050565b60016020528060005260406000206000915054906101000a900473ffffffffffffffffffffffffffffffffffffffff1681565b60008060008060026000612ef788614aac565b6000191660001916815260200190815260200160002090508060000160009054906101000a900460ff161515612f95576040517f08c379a00000000000000000000000000000000000000000000000000000000081526004018080602001828103825260138152602001807f7265706f20646f6573206e6f742065786973740000000000000000000000000081525060200191505060405180910390fd5b80600b0173__StringSetLib__________________________63411565559091876040518363ffffffff167c01000000000000000000000000000000000000000000000000000000000281526004018083815260200180602001828103825283818151815260200191508051906020019080838360005b8381101561302757808201518184015260208101905061300c565b50505050905090810190601f1680156130545780820380516001836020036101000a031916815260200191505b50935050505060206040518083038186803b15801561307257600080fd5b505af4158015613086573d6000803e3d6000fd5b505050506040513d602081101561309c57600080fd5b81019080805190602001909291905050508160080173__StringSetLib__________________________63411565559091886040518363ffffffff167c01000000000000000000000000000000000000000000000000000000000281526004018083815260200180602001828103825283818151815260200191508051906020019080838360005b8381101561313f578082015181840152602081019050613124565b50505050905090810190601f16801561316c5780820380516001836020036101000a031916815260200191505b50935050505060206040518083038186803b15801561318a57600080fd5b505af415801561319e573d6000803e3d6000fd5b505050506040513d60208110156131b457600080fd5b81019080805190602001909291905050508260050173__StringSetLib__________________________63411565559091896040518363ffffffff167c01000000000000000000000000000000000000000000000000000000000281526004018083815260200180602001828103825283818151815260200191508051906020019080838360005b8381101561325757808201518184015260208101905061323c565b50505050905090810190601f1680156132845780820380516001836020036101000a031916815260200191505b50935050505060206040518083038186803b1580156132a257600080fd5b505af41580156132b6573d6000803e3d6000fd5b505050506040513d60208110156132cc57600080fd5b8101908080519060200190929190505050935093509350509250925092565b60006132f73387611fad565b151561336b576040517f08c379a00000000000000000000000000000000000000000000000000000000081526004018080602001828103825260148152602001807f796f7520617265206e6f7420616e2061646d696e00000000000000000000000081525060200191505060405180910390fd5b6002600061337888614aac565b6000191660001916815260200190815260200160002090508060000160009054906101000a900460ff161515613416576040517f08c379a00000000000000000000000000000000000000000000000000000000081526004018080602001828103825260138152602001807f7265706f20646f6573206e6f742065786973740000000000000000000000000081525060200191505060405180910390fd5b831561353a5780600b0173__StringSetLib__________________________63524e643b9091876040518363ffffffff167c01000000000000000000000000000000000000000000000000000000000281526004018083815260200180602001828103825283818151815260200191508051906020019080838360005b838110156134ae578082015181840152602081019050613493565b50505050905090810190601f1680156134db5780820380516001836020036101000a031916815260200191505b50935050505060206040518083038186803b1580156134f957600080fd5b505af415801561350d573d6000803e3d6000fd5b505050506040513d602081101561352357600080fd5b810190808051906020019092919050505050613654565b80600b0173__StringSetLib__________________________634cab0b159091876040518363ffffffff167c01000000000000000000000000000000000000000000000000000000000281526004018083815260200180602001828103825283818151815260200191508051906020019080838360005b838110156135cc5780820151818401526020810190506135b1565b50505050905090810190601f1680156135f95780820380516001836020036101000a031916815260200191505b50935050505060206040518083038186803b15801561361757600080fd5b505af415801561362b573d6000803e3d6000fd5b505050506040513d602081101561364157600080fd5b8101908080519060200190929190505050505b8215613778578060080173__StringSetLib__________________________63524e643b9091876040518363ffffffff167c01000000000000000000000000000000000000000000000000000000000281526004018083815260200180602001828103825283818151815260200191508051906020019080838360005b838110156136ec5780820151818401526020810190506136d1565b50505050905090810190601f1680156137195780820380516001836020036101000a031916815260200191505b50935050505060206040518083038186803b15801561373757600080fd5b505af415801561374b573d6000803e3d6000fd5b505050506040513d602081101561376157600080fd5b810190808051906020019092919050505050613892565b8060080173__StringSetLib__________________________634cab0b159091876040518363ffffffff167c01000000000000000000000000000000000000000000000000000000000281526004018083815260200180602001828103825283818151815260200191508051906020019080838360005b8381101561380a5780820151818401526020810190506137ef565b50505050905090810190601f1680156138375780820380516001836020036101000a031916815260200191505b50935050505060206040518083038186803b15801561385557600080fd5b505af4158015613869573d6000803e3d6000fd5b505050506040513d602081101561387f57600080fd5b8101908080519060200190929190505050505b81156139b6578060050173__StringSetLib__________________________63524e643b9091876040518363ffffffff167c01000000000000000000000000000000000000000000000000000000000281526004018083815260200180602001828103825283818151815260200191508051906020019080838360005b8381101561392a57808201518184015260208101905061390f565b50505050905090810190601f1680156139575780820380516001836020036101000a031916815260200191505b50935050505060206040518083038186803b15801561397557600080fd5b505af4158015613989573d6000803e3d6000fd5b505050506040513d602081101561399f57600080fd5b810190808051906020019092919050505050613ad0565b8060050173__StringSetLib__________________________634cab0b159091876040518363ffffffff167c01000000000000000000000000000000000000000000000000000000000281526004018083815260200180602001828103825283818151815260200191508051906020019080838360005b83811015613a48578082015181840152602081019050613a2d565b50505050905090810190601f168015613a755780820380516001836020036101000a031916815260200191505b50935050505060206040518083038186803b158015613a9357600080fd5b505af4158015613aa7573d6000803e3d6000fd5b505050506040513d6020811015613abd57600080fd5b8101908080519060200190929190505050505b505050505050565b6000613ae43383611fad565b1515613b7e576040517f08c379a00000000000000000000000000000000000000000000000000000000081526004018080602001828103825260218152602001807f796f7520617265206e6f7420616e2061646d696e206f6620746869732072657081526020017f6f0000000000000000000000000000000000000000000000000000000000000081525060400191505060405180910390fd5b60026000613b8b84614aac565b6000191660001916815260200190815260200160002090508060000160009054906101000a900460ff161515613c29576040517f08c379a00000000000000000000000000000000000000000000000000000000081526004018080602001828103825260188152602001807f74686973207265706f20646f6573206e6f74206578697374000000000000000081525060200191505060405180910390fd5b60026000613c3684614aac565b60001916600019168152602001908152602001600020600080820160006101000a81549060ff02191690556001820160008082016000613c769190614d5b565b50506005820160008082016000613c8d9190614d5b565b50506008820160008082016000613ca49190614d5b565b5050600b820160008082016000613cbb9190614d5b565b5050600e820160006101000a81549060ff02191690555050816040518082805190602001908083835b602083101515613d095780518252602082019150602081019050602083039250613ce4565b6001836020036101000a03801982511681845116808217855250505050505090500191505060405180910390203373ffffffffffffffffffffffffffffffffffffffff167f2a125302c359bb06e95f884b73ed06c2a9247328d0e13d474bb1c94a02d2baad60405160405180910390a35050565b6000613e5f6000803373ffffffffffffffffffffffffffffffffffffffff1673ffffffffffffffffffffffffffffffffffffffff1681526020019081526020016000208054600181600116156101000203166002900480601f016020809104026020016040519081016040528092919081815260200182805460018160011615610100020316600290048015613e545780601f10613e2957610100808354040283529160200191613e54565b820191906000526020600020905b815481529060010190602001808311613e3757829003601f168201915b505050505084612d6d565b1515613ed3576040517f08c379a000000000000000000000000000000000000000000000000000000000815260040180806020018281038252601a8152602001807f796f7520646f6e2774206861766520707573682061636365737300000000000081525060200191505060405180910390fd5b60026000613ee085614aac565b6000191660001916815260200190815260200160002090508060000160009054906101000a900460ff161515613f7e576040517f08c379a00000000000000000000000000000000000000000000000000000000081526004018080602001828103825260138152602001807f7265706f20646f6573206e6f742065786973740000000000000000000000000081525060200191505060405180910390fd5b8060010173__StringSetLib__________________________634cab0b159091846040518363ffffffff167c01000000000000000000000000000000000000000000000000000000000281526004018083815260200180602001828103825283818151815260200191508051906020019080838360005b83811015614010578082015181840152602081019050613ff5565b50505050905090810190601f16801561403d5780820380516001836020036101000a031916815260200191505b50935050505060206040518083038186803b15801561405b57600080fd5b505af415801561406f573d6000803e3d6000fd5b505050506040513d602081101561408557600080fd5b8101908080519060200190929190505050508060040160006140a684614aac565b6000191660001916815260200190815260200160002060006140c89190614d7c565b816040518082805190602001908083835b6020831015156140fe57805182526020820191506020810190506020830392506140d9565b6001836020036101000a0380198251168184511680821785525050505050509050019150506040518091039020836040518082805190602001908083835b602083101515614161578051825260208201915060208101905060208303925061413c565b6001836020036101000a03801982511681845116808217855250505050505090500191505060405180910390203373ffffffffffffffffffffffffffffffffffffffff167ff7f3c15b2efffd8e8e7ba0e47f0d1240c4e8d027aca67641f9863d3c52ef054960405160405180910390a4505050565b6000600260006141e584614aac565b6000191660001916815260200190815260200160002060050173__StringSetLib__________________________63411565559091856040518363ffffffff167c01000000000000000000000000000000000000000000000000000000000281526004018083815260200180602001828103825283818151815260200191508051906020019080838360005b8381101561428c578082015181840152602081019050614271565b50505050905090810190601f1680156142b95780820380516001836020036101000a031916815260200191505b50935050505060206040518083038186803b1580156142d757600080fd5b505af41580156142eb573d6000803e3d6000fd5b505050506040513d602081101561430157600080fd5b8101908080519060200190929190505050905092915050565b60008082511115156143ba576040517f08c379a00000000000000000000000000000000000000000000000000000000081526004018080602001828103825260238152602001807f617267756d656e742027757365726e616d65272063616e6e6f7420626520656d81526020017f707479000000000000000000000000000000000000000000000000000000000081525060400191505060405180910390fd5b60008060003373ffffffffffffffffffffffffffffffffffffffff1673ffffffffffffffffffffffffffffffffffffffff1681526020019081526020016000208054600181600116156101000203166002900490501415156144aa576040517f08c379a000000000000000000000000000000000000000000000000000000000815260040180806020018281038252602a8152602001807f796f7572206164647265737320616c72656164792062656c6f6e677320746f2081526020017f6120757365726e616d650000000000000000000000000000000000000000000081525060400191505060405180910390fd5b6144b382614aac565b9050600060016000836000191660001916815260200190815260200160002060009054906101000a900473ffffffffffffffffffffffffffffffffffffffff1673ffffffffffffffffffffffffffffffffffffffff1614151561457e576040517f08c379a00000000000000000000000000000000000000000000000000000000081526004018080602001828103825260208152602001807f7468697320757365726e616d6520697320616c726561647920636c61696d656481525060200191505060405180910390fd5b816000803373ffffffffffffffffffffffffffffffffffffffff1673ffffffffffffffffffffffffffffffffffffffff16815260200190815260200160002090805190602001906145d0929190614cdb565b503360016000836000191660001916815260200190815260200160002060006101000a81548173ffffffffffffffffffffffffffffffffffffffff021916908373ffffffffffffffffffffffffffffffffffffffff160217905550816040518082805190602001908083835b602083101515614661578051825260208201915060208101905060208303925061463c565b6001836020036101000a03801982511681845116808217855250505050505090500191505060405180910390203373ffffffffffffffffffffffffffffffffffffffff167faffa6dd92f7ba89dd7b4fdd8809b8e8d38b6431d8f41674fae86cfa06fc66d9960405160405180910390a35050565b6000806146e183614aac565b905060001515600260008360001916600019168152602001908152602001600020600e0160009054906101000a900460ff16151514156147245760019150614859565b600260008260001916600019168152602001908152602001600020600b0173__StringSetLib__________________________63411565559091866040518363ffffffff167c01000000000000000000000000000000000000000000000000000000000281526004018083815260200180602001828103825283818151815260200191508051906020019080838360005b838110156147d05780820151818401526020810190506147b5565b50505050905090810190601f1680156147fd5780820380516001836020036101000a031916815260200191505b50935050505060206040518083038186803b15801561481b57600080fd5b505af415801561482f573d6000803e3d6000fd5b505050506040513d602081101561484557600080fd5b810190808051906020019092919050505091505b5092915050565b60006002600061486f84614aac565b6000191660001916815260200190815260200160002060010173__StringSetLib__________________________632486134690916040518263ffffffff167c01000000000000000000000000000000000000000000000000000000000281526004018082815260200191505060206040518083038186803b1580156148f457600080fd5b505af4158015614908573d6000803e3d6000fd5b505050506040513d602081101561491e57600080fd5b81019080805190602001909291905050509050919050565b606060006002600061494786614aac565b6000191660001916815260200190815260200160002090508060000160009054906101000a900460ff1615156149e5576040517f08c379a00000000000000000000000000000000000000000000000000000000081526004018080602001828103825260138152602001807f7265706f20646f6573206e6f742065786973740000000000000000000000000081525060200191505060405180910390fd5b8060040160006149f485614aac565b600019166000191681526020019081526020016000208054600181600116156101000203166002900480601f016020809104026020016040519081016040528092919081815260200182805460018160011615610100020316600290048015614a9e5780601f10614a7357610100808354040283529160200191614a9e565b820191906000526020600020905b815481529060010190602001808311614a8157829003601f168201915b505050505091505092915050565b6000816040516020018082805190602001908083835b602083101515614ae75780518252602082019150602081019050602083039250614ac2565b6001836020036101000a0380198251168184511680821785525050505050509050019150506040516020818303038152906040526040518082805190602001908083835b602083101515614b505780518252602082019150602081019050602083039250614b2b565b6001836020036101000a03801982511681845116808217855250505050505090500191505060405180910390209050919050565b600080846001029150600090505b6020811015614c19578181602081101515614ba957fe5b1a7f01000000000000000000000000000000000000000000000000000000000000000284848301815181101515614bdc57fe5b9060200101907effffffffffffffffffffffffffffffffffffffffffffffffffffffffffffff1916908160001a9053508080600101915050614b92565b5050505050565b60008090505b8351811015614cd5578381815181101515614c3d57fe5b9060200101517f010000000000000000000000000000000000000000000000000000000000000090047f01000000000000000000000000000000000000000000000000000000000000000283838301815181101515614c9857fe5b9060200101907effffffffffffffffffffffffffffffffffffffffffffffffffffffffffffff1916908160001a9053508080600101915050614c26565b50505050565b828054600181600116156101000203166002900490600052602060002090601f016020900481019282601f10614d1c57805160ff1916838001178555614d4a565b82800160010185558215614d4a579182015b82811115614d49578251825591602001919060010190614d2e565b5b509050614d579190614dc4565b5090565b5080546000825590600052602060002090810190614d799190614de9565b50565b50805460018160011615610100020316600290046000825580601f10614da25750614dc1565b601f016020900490600052602060002090810190614dc09190614dc4565b5b50565b614de691905b80821115614de2576000816000905550600101614dca565b5090565b90565b614e1291905b80821115614e0e5760008181614e059190614d7c565b50600101614def565b5090565b905600a165627a7a72305820706edd1421234d34cdc5cdf03cf2052259698dc8b4caa5b8fe3d7fce6e94b9760029",
  "source": "pragma solidity ^0.4.24;\n// pragma experimental ABIEncoderV2;\n\nimport \"./StringSetLib.sol\";\n\ncontract Protocol\n{\n    using StringSetLib for StringSetLib.StringSet;\n\n    mapping(address => string) public usernamesByAddress;\n    mapping(bytes32 => address) public addressesByUsername;\n\n    struct Repo {\n        bool exists;\n\n        StringSetLib.StringSet refs;\n        mapping(bytes32 => string) refsToCommits;\n\n        StringSetLib.StringSet admins;\n        StringSetLib.StringSet pushers;\n        StringSetLib.StringSet pullers;\n        bool isPrivate;\n    }\n\n    mapping(bytes32 => Repo) repositories;\n\n    event LogSetUsername(address indexed addr, string indexed username);\n    event LogCreateRepo(address indexed user, string indexed repoID);\n    event LogDeleteRepo(address indexed user, string indexed repoID);\n    event LogUpdateRef(address indexed user, string indexed repoID, string indexed refName, string commitHash);\n    event LogDeleteRef(address indexed user, string indexed repoID, string indexed refName);\n\n    constructor() public {\n    }\n\n    function setUsername(string username) public {\n        require(bytes(username).length > 0, \"argument 'username' cannot be empty\");\n        require(bytes(usernamesByAddress[msg.sender]).length == 0, \"your address already belongs to a username\");\n\n        bytes32 usernameHash = hashString(username);\n        require(addressesByUsername[usernameHash] == 0x0, \"this username is already claimed\");\n\n        usernamesByAddress[msg.sender] = username;\n        addressesByUsername[usernameHash] = msg.sender;\n\n        emit LogSetUsername(msg.sender, username);\n    }\n\n    function getAddressForUsername(string username) public view returns (address) {\n        return addressesByUsername[hashString(username)];\n    }\n\n    function createRepo(string repoID) public {\n        // Ensure that repoID is nonempty\n        require(bytes(repoID).length > 0, \"argument 'repoID' cannot be empty\");\n\n        // Ensure that the user has registered a username\n        string memory username = usernamesByAddress[msg.sender];\n        require(bytes(username).length > 0, \"you have not claimed a username\");\n\n        Repo storage repo = repositories[hashString(repoID)];\n\n        // Ensure that the repo doesn't exist yet\n        require(repo.exists == false, \"this repoID has already been claimed\");\n\n        repo.exists = true;\n        repo.pushers.add(username);\n        repo.admins.add(username);\n        repo.pullers.add(username);\n\n        emit LogCreateRepo(msg.sender, repoID);\n    }\n\n    function deleteRepo(string repoID) public {\n        require(addressIsAdmin(msg.sender, repoID), \"you are not an admin of this repo\");\n\n        Repo storage repo = repositories[hashString(repoID)];\n        require(repo.exists, \"this repo does not exist\");\n\n        delete repositories[hashString(repoID)];\n\n        emit LogDeleteRepo(msg.sender, repoID);\n    }\n\n    function updateRef(string repoID, string refName, string commitHash) public {\n        require(userHasPushAccess(usernamesByAddress[msg.sender], repoID), \"you don't have push access\");\n        require(bytes(commitHash).length == 40, \"bad commit hash\");\n\n        Repo storage repo = repositories[hashString(repoID)];\n        require(repo.exists, \"repo does not exist\");\n\n        repo.refs.add(refName);\n        repo.refsToCommits[hashString(refName)] = commitHash;\n\n        emit LogUpdateRef(msg.sender, repoID, refName, commitHash);\n    }\n\n    function deleteRef(string repoID, string refName) public {\n        require(userHasPushAccess(usernamesByAddress[msg.sender], repoID), \"you don't have push access\");\n\n        Repo storage repo = repositories[hashString(repoID)];\n        require(repo.exists, \"repo does not exist\");\n\n        repo.refs.remove(refName);\n        delete repo.refsToCommits[hashString(refName)];\n\n        emit LogDeleteRef(msg.sender, repoID, refName);\n    }\n\n    function repoExists(string repoID) public view returns (bool) {\n        return repositories[hashString(repoID)].exists;\n    }\n\n    function userIsAdmin(string username, string repoID) public view returns (bool) {\n        return repositories[hashString(repoID)].admins.contains(username);\n    }\n\n    function userHasPullAccess(string username, string repoID) public view returns (bool) {\n        bytes32 repoIDHash = hashString(repoID);\n        if (repositories[repoIDHash].isPrivate == false) {\n            return true;\n        }\n        return repositories[repoIDHash].pullers.contains(username);\n    }\n\n    function userHasPushAccess(string username, string repoID) public view returns (bool) {\n        return repositories[hashString(repoID)].pushers.contains(username);\n    }\n\n    function addressIsAdmin(address addr, string repoID) public view returns (bool) {\n        return userIsAdmin(usernamesByAddress[addr], repoID);\n    }\n\n    function addressHasPullAccess(address addr, string repoID) public view returns (bool) {\n        return userHasPullAccess(usernamesByAddress[addr], repoID);\n    }\n\n    function addressHasPushAccess(address addr, string repoID) public view returns (bool) {\n        return userHasPushAccess(usernamesByAddress[addr], repoID);\n    }\n\n    function getUserPermissions(string repoID, string username) public view returns (bool puller, bool pusher, bool admin) {\n        Repo storage repo = repositories[hashString(repoID)];\n        require(repo.exists, \"repo does not exist\");\n\n        return (\n            repo.pullers.contains(username),\n            repo.pushers.contains(username),\n            repo.admins.contains(username)\n        );\n    }\n\n    function setUserPermissions(string repoID, string username, bool puller, bool pusher, bool admin) public {\n        require(addressIsAdmin(msg.sender, repoID), \"you are not an admin\");\n\n        Repo storage repo = repositories[hashString(repoID)];\n        require(repo.exists, \"repo does not exist\");\n\n        if (puller) {\n            repo.pullers.add(username);\n        } else {\n            repo.pullers.remove(username);\n        }\n\n        if (pusher) {\n            repo.pushers.add(username);\n        } else {\n            repo.pushers.remove(username);\n        }\n\n        if (admin) {\n            repo.admins.add(username);\n        } else {\n            repo.admins.remove(username);\n        }\n    }\n\n    function numRefs(string repoID) public view returns (uint) {\n        return repositories[hashString(repoID)].refs.size();\n    }\n\n    function getRef(string repoID, string refName) public view returns (string) {\n        Repo storage repo = repositories[hashString(repoID)];\n        require(repo.exists, \"repo does not exist\");\n\n        return repo.refsToCommits[hashString(refName)];\n    }\n\n    function getRefs(string repoID, uint pageSize, uint page) public view returns (uint total, bytes data) {\n        Repo storage repo = repositories[hashString(repoID)];\n        require(repo.exists, \"repo does not exist\");\n\n        string memory refName;\n        string memory commit;\n        uint len = 0;\n        uint start = page * pageSize;\n        for (uint i = 0; i < pageSize && i + start < repo.refs.size(); i++) {\n            refName = repo.refs.get(i + start);\n            commit = repo.refsToCommits[hashString(refName)];\n            len += 32 + bytes(refName).length + 32 + bytes(commit).length;\n        }\n\n        data = new bytes(len);\n        uint written = 0;\n        for (i = 0; i < pageSize && i + start < repo.refs.size(); i++) {\n            refName = repo.refs.get(i + start);\n            commit = repo.refsToCommits[hashString(refName)];\n\n            writeUint(bytes(refName).length, data, written);\n            written += 32;\n            writeBytes(bytes(refName), data, written);\n            written += bytes(refName).length;\n\n            writeUint(bytes(commit).length, data, written);\n            written += 32;\n            writeBytes(bytes(commit), data, written);\n            written += bytes(commit).length;\n        }\n\n        return (repo.refs.size(), data);\n    }\n\n    enum UserType {\n        ADMIN, PULLER, PUSHER\n    }\n\n    function getRepoUsers(string repoID, UserType whichUsers, uint pageSize, uint page) public view returns (uint total, bytes data) {\n        Repo storage repo = repositories[hashString(repoID)];\n        require(repo.exists, \"repo does not exist\");\n\n        StringSetLib.StringSet storage users;\n        if (whichUsers == UserType.ADMIN) {\n            users = repo.admins;\n        } else if (whichUsers == UserType.PULLER) {\n            users = repo.pullers;\n        } else if (whichUsers == UserType.PUSHER) {\n            users = repo.pushers;\n        }\n\n        string memory user;\n        uint len = 0;\n        uint start = page * pageSize;\n        for (uint i = 0; i < pageSize && i + start < users.size(); i++) {\n            user = users.get(i + start);\n            len += 32 + bytes(user).length;\n        }\n\n        data = new bytes(len);\n        uint written = 0;\n        for (i = 0; i < pageSize && i + start < users.size(); i++) {\n            user = users.get(i + start);\n\n            writeUint(bytes(user).length, data, written);\n            written += 32;\n            writeBytes(bytes(user), data, written);\n            written += bytes(user).length;\n        }\n\n        return (users.size(), data);\n    }\n\n    function writeUint(uint x, bytes memory dest, uint offset) private pure {\n        bytes32 b = bytes32(x);\n        for (uint i = 0; i < 32; i++) {\n            dest[i + offset] = b[i];\n        }\n    }\n\n    function writeBytes(bytes src, bytes dest, uint offset) private pure {\n        for (uint i = 0; i < src.length; i++) {\n            dest[i + offset] = src[i];\n        }\n    }\n\n    function hashString(string s) private pure returns (bytes32) {\n        return keccak256(abi.encodePacked(s));\n    }\n}",
  "sourcePath": "/Users/bryn/go/src/github.com/Conscience/protocol/eth/contracts/Protocol.sol",
  "compiler": {
    "name": "solc",
    "version": "0.4.24+commit.e67f0147.Emscripten.clang"
  },
  "schemaVersion": "2.0.1",
  "updatedAt": "2018-10-15T07:50:47.323Z"
}