{
  "contractName": "Protocol",
  "abi": [
    {
      "constant": true,
      "inputs": [
        {
          "name": "",
          "type": "address"
        }
      ],
      "name": "usernamesByAddress",
      "outputs": [
        {
          "name": "",
          "type": "string"
        }
      ],
      "payable": false,
      "stateMutability": "view",
      "type": "function"
    },
    {
      "constant": true,
      "inputs": [
        {
          "name": "",
          "type": "bytes32"
        }
      ],
      "name": "addressesByUsername",
      "outputs": [
        {
          "name": "",
          "type": "address"
        }
      ],
      "payable": false,
      "stateMutability": "view",
      "type": "function"
    },
    {
      "inputs": [],
      "payable": false,
      "stateMutability": "nonpayable",
      "type": "constructor"
    },
    {
      "anonymous": false,
      "inputs": [
        {
          "indexed": true,
          "name": "addr",
          "type": "address"
        },
        {
          "indexed": true,
          "name": "username",
          "type": "string"
        }
      ],
      "name": "LogSetUsername",
      "type": "event"
    },
    {
      "anonymous": false,
      "inputs": [
        {
          "indexed": true,
          "name": "user",
          "type": "address"
        },
        {
          "indexed": true,
          "name": "repoID",
          "type": "string"
        }
      ],
      "name": "LogCreateRepo",
      "type": "event"
    },
    {
      "anonymous": false,
      "inputs": [
        {
          "indexed": true,
          "name": "user",
          "type": "address"
        },
        {
          "indexed": true,
          "name": "repoID",
          "type": "string"
        }
      ],
      "name": "LogDeleteRepo",
      "type": "event"
    },
    {
      "anonymous": false,
      "inputs": [
        {
          "indexed": true,
          "name": "user",
          "type": "address"
        },
        {
          "indexed": false,
          "name": "repoID",
          "type": "string"
        },
        {
          "indexed": false,
          "name": "isPublic",
          "type": "bool"
        }
      ],
      "name": "LogSetPublic",
      "type": "event"
    },
    {
      "anonymous": false,
      "inputs": [
        {
          "indexed": true,
          "name": "user",
          "type": "address"
        },
        {
          "indexed": true,
          "name": "repoID",
          "type": "string"
        },
        {
          "indexed": true,
          "name": "refName",
          "type": "string"
        },
        {
          "indexed": false,
          "name": "commitHash",
          "type": "string"
        }
      ],
      "name": "LogUpdateRef",
      "type": "event"
    },
    {
      "anonymous": false,
      "inputs": [
        {
          "indexed": true,
          "name": "user",
          "type": "address"
        },
        {
          "indexed": true,
          "name": "repoID",
          "type": "string"
        },
        {
          "indexed": true,
          "name": "refName",
          "type": "string"
        }
      ],
      "name": "LogDeleteRef",
      "type": "event"
    },
    {
      "constant": false,
      "inputs": [
        {
          "name": "username",
          "type": "string"
        }
      ],
      "name": "setUsername",
      "outputs": [],
      "payable": false,
      "stateMutability": "nonpayable",
      "type": "function"
    },
    {
      "constant": true,
      "inputs": [
        {
          "name": "username",
          "type": "string"
        }
      ],
      "name": "getAddressForUsername",
      "outputs": [
        {
          "name": "",
          "type": "address"
        }
      ],
      "payable": false,
      "stateMutability": "view",
      "type": "function"
    },
    {
      "constant": false,
      "inputs": [
        {
          "name": "repoID",
          "type": "string"
        }
      ],
      "name": "createRepo",
      "outputs": [],
      "payable": false,
      "stateMutability": "nonpayable",
      "type": "function"
    },
    {
      "constant": false,
      "inputs": [
        {
          "name": "repoID",
          "type": "string"
        }
      ],
      "name": "deleteRepo",
      "outputs": [],
      "payable": false,
      "stateMutability": "nonpayable",
      "type": "function"
    },
    {
      "constant": false,
      "inputs": [
        {
          "name": "repoID",
          "type": "string"
        },
        {
          "name": "isPublic",
          "type": "bool"
        }
      ],
      "name": "setPublic",
      "outputs": [],
      "payable": false,
      "stateMutability": "nonpayable",
      "type": "function"
    },
    {
      "constant": false,
      "inputs": [
        {
          "name": "repoID",
          "type": "string"
        },
        {
          "name": "refName",
          "type": "string"
        },
        {
          "name": "commitHash",
          "type": "string"
        }
      ],
      "name": "updateRef",
      "outputs": [],
      "payable": false,
      "stateMutability": "nonpayable",
      "type": "function"
    },
    {
      "constant": false,
      "inputs": [
        {
          "name": "repoID",
          "type": "string"
        },
        {
          "name": "refName",
          "type": "string"
        }
      ],
      "name": "deleteRef",
      "outputs": [],
      "payable": false,
      "stateMutability": "nonpayable",
      "type": "function"
    },
    {
      "constant": true,
      "inputs": [
        {
          "name": "repoID",
          "type": "string"
        }
      ],
      "name": "repoExists",
      "outputs": [
        {
          "name": "",
          "type": "bool"
        }
      ],
      "payable": false,
      "stateMutability": "view",
      "type": "function"
    },
    {
      "constant": true,
      "inputs": [
        {
          "name": "username",
          "type": "string"
        },
        {
          "name": "repoID",
          "type": "string"
        }
      ],
      "name": "userIsAdmin",
      "outputs": [
        {
          "name": "",
          "type": "bool"
        }
      ],
      "payable": false,
      "stateMutability": "view",
      "type": "function"
    },
    {
      "constant": true,
      "inputs": [
        {
          "name": "username",
          "type": "string"
        },
        {
          "name": "repoID",
          "type": "string"
        }
      ],
      "name": "userHasPullAccess",
      "outputs": [
        {
          "name": "",
          "type": "bool"
        }
      ],
      "payable": false,
      "stateMutability": "view",
      "type": "function"
    },
    {
      "constant": true,
      "inputs": [
        {
          "name": "username",
          "type": "string"
        },
        {
          "name": "repoID",
          "type": "string"
        }
      ],
      "name": "userHasPushAccess",
      "outputs": [
        {
          "name": "",
          "type": "bool"
        }
      ],
      "payable": false,
      "stateMutability": "view",
      "type": "function"
    },
    {
      "constant": true,
      "inputs": [
        {
          "name": "addr",
          "type": "address"
        },
        {
          "name": "repoID",
          "type": "string"
        }
      ],
      "name": "addressIsAdmin",
      "outputs": [
        {
          "name": "",
          "type": "bool"
        }
      ],
      "payable": false,
      "stateMutability": "view",
      "type": "function"
    },
    {
      "constant": true,
      "inputs": [
        {
          "name": "addr",
          "type": "address"
        },
        {
          "name": "repoID",
          "type": "string"
        }
      ],
      "name": "addressHasPullAccess",
      "outputs": [
        {
          "name": "",
          "type": "bool"
        }
      ],
      "payable": false,
      "stateMutability": "view",
      "type": "function"
    },
    {
      "constant": true,
      "inputs": [
        {
          "name": "addr",
          "type": "address"
        },
        {
          "name": "repoID",
          "type": "string"
        }
      ],
      "name": "addressHasPushAccess",
      "outputs": [
        {
          "name": "",
          "type": "bool"
        }
      ],
      "payable": false,
      "stateMutability": "view",
      "type": "function"
    },
    {
      "constant": true,
      "inputs": [
        {
          "name": "repoID",
          "type": "string"
        }
      ],
      "name": "isRepoPublic",
      "outputs": [
        {
          "name": "",
          "type": "bool"
        }
      ],
      "payable": false,
      "stateMutability": "view",
      "type": "function"
    },
    {
      "constant": true,
      "inputs": [
        {
          "name": "repoID",
          "type": "string"
        },
        {
          "name": "username",
          "type": "string"
        }
      ],
      "name": "getUserPermissions",
      "outputs": [
        {
          "name": "puller",
          "type": "bool"
        },
        {
          "name": "pusher",
          "type": "bool"
        },
        {
          "name": "admin",
          "type": "bool"
        }
      ],
      "payable": false,
      "stateMutability": "view",
      "type": "function"
    },
    {
      "constant": false,
      "inputs": [
        {
          "name": "repoID",
          "type": "string"
        },
        {
          "name": "username",
          "type": "string"
        },
        {
          "name": "puller",
          "type": "bool"
        },
        {
          "name": "pusher",
          "type": "bool"
        },
        {
          "name": "admin",
          "type": "bool"
        }
      ],
      "name": "setUserPermissions",
      "outputs": [],
      "payable": false,
      "stateMutability": "nonpayable",
      "type": "function"
    },
    {
      "constant": true,
      "inputs": [
        {
          "name": "repoID",
          "type": "string"
        }
      ],
      "name": "numRefs",
      "outputs": [
        {
          "name": "",
          "type": "uint256"
        }
      ],
      "payable": false,
      "stateMutability": "view",
      "type": "function"
    },
    {
      "constant": true,
      "inputs": [
        {
          "name": "repoID",
          "type": "string"
        },
        {
          "name": "refName",
          "type": "string"
        }
      ],
      "name": "getRef",
      "outputs": [
        {
          "name": "",
          "type": "string"
        }
      ],
      "payable": false,
      "stateMutability": "view",
      "type": "function"
    },
    {
      "constant": true,
      "inputs": [
        {
          "name": "repoID",
          "type": "string"
        },
        {
          "name": "pageSize",
          "type": "uint256"
        },
        {
          "name": "page",
          "type": "uint256"
        }
      ],
      "name": "getRefs",
      "outputs": [
        {
          "name": "total",
          "type": "uint256"
        },
        {
          "name": "data",
          "type": "bytes"
        }
      ],
      "payable": false,
      "stateMutability": "view",
      "type": "function"
    },
    {
      "constant": true,
      "inputs": [
        {
          "name": "repoID",
          "type": "string"
        },
        {
          "name": "whichUsers",
          "type": "uint8"
        },
        {
          "name": "pageSize",
          "type": "uint256"
        },
        {
          "name": "page",
          "type": "uint256"
        }
      ],
      "name": "getRepoUsers",
      "outputs": [
        {
          "name": "total",
          "type": "uint256"
        },
        {
          "name": "data",
          "type": "bytes"
        }
      ],
      "payable": false,
      "stateMutability": "view",
      "type": "function"
    }
  ],
  "bytecode": "0x608060405234801561001057600080fd5b50615b6e80620000216000396000f3fe608060405260043610610133576000357c0100000000000000000000000000000000000000000000000000000000900463ffffffff168063095a0535146101385780631ccd4912146102405780632b133be0146103a957806342dfb6da146104a9578063484af658146105735780634d6e93cb146106475780634fa94bea1461074757806353dad7771461080f578063592c6a0f1461090f578063605a5dd8146109ef5780636653a81214610be55780636735c57714610cc55780637bbaf15914610e21578063a58e325c14610f98578063abd9649c14611013578063d4fa6a8f146111a0578063d51c250c14611323578063e07a896d146113eb578063ec6761891461154a578063ed59313a146116c1578063ede07dfe14611789578063f2ebfa1014611900578063f6ce75b3146119dc575b600080fd5b34801561014457600080fd5b506101fe6004803603602081101561015b57600080fd5b810190808035906020019064010000000081111561017857600080fd5b82018360208201111561018a57600080fd5b803590602001918460018302840111640100000000831117156101ac57600080fd5b91908080601f016020809104026020016040519081016040528093929190818152602001838380828437600081840152601f19601f820116905080830192505050505050509192919290505050611bb4565b604051808273ffffffffffffffffffffffffffffffffffffffff1673ffffffffffffffffffffffffffffffffffffffff16815260200191505060405180910390f35b34801561024c57600080fd5b506103276004803603608081101561026357600080fd5b810190808035906020019064010000000081111561028057600080fd5b82018360208201111561029257600080fd5b803590602001918460018302840111640100000000831117156102b457600080fd5b91908080601f016020809104026020016040519081016040528093929190818152602001838380828437600081840152601f19601f820116905080830192505050505050509192919290803560ff1690602001909291908035906020019092919080359060200190929190505050611bf9565b6040518083815260200180602001828103825283818151815260200191508051906020019080838360005b8381101561036d578082015181840152602081019050610352565b50505050905090810190601f16801561039a5780820380516001836020036101000a031916815260200191505b50935050505060405180910390f35b3480156103b557600080fd5b5061048f600480360360408110156103cc57600080fd5b81019080803573ffffffffffffffffffffffffffffffffffffffff1690602001909291908035906020019064010000000081111561040957600080fd5b82018360208201111561041b57600080fd5b8035906020019184600183028401116401000000008311171561043d57600080fd5b91908080601f016020809104026020016040519081016040528093929190818152602001838380828437600081840152601f19601f82011690508083019250505050505050919291929050505061220a565b604051808215151515815260200191505060405180910390f35b3480156104b557600080fd5b506104f8600480360360208110156104cc57600080fd5b81019080803573ffffffffffffffffffffffffffffffffffffffff1690602001909291905050506122f4565b6040518080602001828103825283818151815260200191508051906020019080838360005b8381101561053857808201518184015260208101905061051d565b50505050905090810190601f1680156105655780820380516001836020036101000a031916815260200191505b509250505060405180910390f35b34801561057f57600080fd5b506106456004803603604081101561059657600080fd5b81019080803590602001906401000000008111156105b357600080fd5b8201836020820111156105c557600080fd5b803590602001918460018302840111640100000000831117156105e757600080fd5b91908080601f016020809104026020016040519081016040528093929190818152602001838380828437600081840152601f19601f8201169050808301925050505050505091929192908035151590602001909291905050506123a4565b005b34801561065357600080fd5b5061072d6004803603604081101561066a57600080fd5b81019080803573ffffffffffffffffffffffffffffffffffffffff169060200190929190803590602001906401000000008111156106a757600080fd5b8201836020820111156106b957600080fd5b803590602001918460018302840111640100000000831117156106db57600080fd5b91908080601f016020809104026020016040519081016040528093929190818152602001838380828437600081840152601f19601f8201169050808301925050505050505091929192905050506125cd565b604051808215151515815260200191505060405180910390f35b34801561075357600080fd5b5061080d6004803603602081101561076a57600080fd5b810190808035906020019064010000000081111561078757600080fd5b82018360208201111561079957600080fd5b803590602001918460018302840111640100000000831117156107bb57600080fd5b91908080601f016020809104026020016040519081016040528093929190818152602001838380828437600081840152601f19601f8201169050808301925050505050505091929192905050506126b7565b005b34801561081b57600080fd5b506108f56004803603604081101561083257600080fd5b81019080803573ffffffffffffffffffffffffffffffffffffffff1690602001909291908035906020019064010000000081111561086f57600080fd5b82018360208201111561088157600080fd5b803590602001918460018302840111640100000000831117156108a357600080fd5b91908080601f016020809104026020016040519081016040528093929190818152602001838380828437600081840152601f19601f820116905080830192505050505050509192919290505050612d8f565b604051808215151515815260200191505060405180910390f35b34801561091b57600080fd5b506109d56004803603602081101561093257600080fd5b810190808035906020019064010000000081111561094f57600080fd5b82018360208201111561096157600080fd5b8035906020019184600183028401116401000000008311171561098357600080fd5b91908080601f016020809104026020016040519081016040528093929190818152602001838380828437600081840152601f19601f820116905080830192505050505050509192919290505050612e79565b604051808215151515815260200191505060405180910390f35b3480156109fb57600080fd5b50610be360048036036060811015610a1257600080fd5b8101908080359060200190640100000000811115610a2f57600080fd5b820183602082011115610a4157600080fd5b80359060200191846001830284011164010000000083111715610a6357600080fd5b91908080601f016020809104026020016040519081016040528093929190818152602001838380828437600081840152601f19601f82011690508083019250505050505050919291929080359060200190640100000000811115610ac657600080fd5b820183602082011115610ad857600080fd5b80359060200191846001830284011164010000000083111715610afa57600080fd5b91908080601f016020809104026020016040519081016040528093929190818152602001838380828437600081840152601f19601f82011690508083019250505050505050919291929080359060200190640100000000811115610b5d57600080fd5b820183602082011115610b6f57600080fd5b80359060200191846001830284011164010000000083111715610b9157600080fd5b91908080601f016020809104026020016040519081016040528093929190818152602001838380828437600081840152601f19601f820116905080830192505050505050509192919290505050612eae565b005b348015610bf157600080fd5b50610cab60048036036020811015610c0857600080fd5b8101908080359060200190640100000000811115610c2557600080fd5b820183602082011115610c3757600080fd5b80359060200191846001830284011164010000000083111715610c5957600080fd5b91908080601f016020809104026020016040519081016040528093929190818152602001838380828437600081840152601f19601f8201169050808301925050505050505091929192905050506133ea565b604051808215151515815260200191505060405180910390f35b348015610cd157600080fd5b50610d9f60048036036060811015610ce857600080fd5b8101908080359060200190640100000000811115610d0557600080fd5b820183602082011115610d1757600080fd5b80359060200191846001830284011164010000000083111715610d3957600080fd5b91908080601f016020809104026020016040519081016040528093929190818152602001838380828437600081840152601f19601f820116905080830192505050505050509192919290803590602001909291908035906020019092919050505061341f565b6040518083815260200180602001828103825283818151815260200191508051906020019080838360005b83811015610de5578082015181840152602081019050610dca565b50505050905090810190601f168015610e125780820380516001836020036101000a031916815260200191505b50935050505060405180910390f35b348015610e2d57600080fd5b50610f7e60048036036040811015610e4457600080fd5b8101908080359060200190640100000000811115610e6157600080fd5b820183602082011115610e7357600080fd5b80359060200191846001830284011164010000000083111715610e9557600080fd5b91908080601f016020809104026020016040519081016040528093929190818152602001838380828437600081840152601f19601f82011690508083019250505050505050919291929080359060200190640100000000811115610ef857600080fd5b820183602082011115610f0a57600080fd5b80359060200191846001830284011164010000000083111715610f2c57600080fd5b91908080601f016020809104026020016040519081016040528093929190818152602001838380828437600081840152601f19601f820116905080830192505050505050509192919290505050613b55565b604051808215151515815260200191505060405180910390f35b348015610fa457600080fd5b50610fd160048036036020811015610fbb57600080fd5b8101908080359060200190929190505050613c91565b604051808273ffffffffffffffffffffffffffffffffffffffff1673ffffffffffffffffffffffffffffffffffffffff16815260200191505060405180910390f35b34801561101f57600080fd5b506111706004803603604081101561103657600080fd5b810190808035906020019064010000000081111561105357600080fd5b82018360208201111561106557600080fd5b8035906020019184600183028401116401000000008311171561108757600080fd5b91908080601f016020809104026020016040519081016040528093929190818152602001838380828437600081840152601f19601f820116905080830192505050505050509192919290803590602001906401000000008111156110ea57600080fd5b8201836020820111156110fc57600080fd5b8035906020019184600183028401116401000000008311171561111e57600080fd5b91908080601f016020809104026020016040519081016040528093929190818152602001838380828437600081840152601f19601f820116905080830192505050505050509192919290505050613cc4565b60405180841515151581526020018315151515815260200182151515158152602001935050505060405180910390f35b3480156111ac57600080fd5b50611321600480360360a08110156111c357600080fd5b81019080803590602001906401000000008111156111e057600080fd5b8201836020820111156111f257600080fd5b8035906020019184600183028401116401000000008311171561121457600080fd5b91908080601f016020809104026020016040519081016040528093929190818152602001838380828437600081840152601f19601f8201169050808301925050505050505091929192908035906020019064010000000081111561127757600080fd5b82018360208201111561128957600080fd5b803590602001918460018302840111640100000000831117156112ab57600080fd5b91908080601f016020809104026020016040519081016040528093929190818152602001838380828437600081840152601f19601f8201169050808301925050505050505091929192908035151590602001909291908035151590602001909291908035151590602001909291905050506140c3565b005b34801561132f57600080fd5b506113e96004803603602081101561134657600080fd5b810190808035906020019064010000000081111561136357600080fd5b82018360208201111561137557600080fd5b8035906020019184600183028401116401000000008311171561139757600080fd5b91908080601f016020809104026020016040519081016040528093929190818152602001838380828437600081840152601f19601f8201169050808301925050505050505091929192905050506148a8565b005b3480156113f757600080fd5b506115486004803603604081101561140e57600080fd5b810190808035906020019064010000000081111561142b57600080fd5b82018360208201111561143d57600080fd5b8035906020019184600183028401116401000000008311171561145f57600080fd5b91908080601f016020809104026020016040519081016040528093929190818152602001838380828437600081840152601f19601f820116905080830192505050505050509192919290803590602001906401000000008111156114c257600080fd5b8201836020820111156114d457600080fd5b803590602001918460018302840111640100000000831117156114f657600080fd5b91908080601f016020809104026020016040519081016040528093929190818152602001838380828437600081840152601f19601f820116905080830192505050505050509192919290505050614b3d565b005b34801561155657600080fd5b506116a76004803603604081101561156d57600080fd5b810190808035906020019064010000000081111561158a57600080fd5b82018360208201111561159c57600080fd5b803590602001918460018302840111640100000000831117156115be57600080fd5b91908080601f016020809104026020016040519081016040528093929190818152602001838380828437600081840152601f19601f8201169050808301925050505050505091929192908035906020019064010000000081111561162157600080fd5b82018360208201111561163357600080fd5b8035906020019184600183028401116401000000008311171561165557600080fd5b91908080601f016020809104026020016040519081016040528093929190818152602001838380828437600081840152601f19601f820116905080830192505050505050509192919290505050614f86565b604051808215151515815260200191505060405180910390f35b3480156116cd57600080fd5b50611787600480360360208110156116e457600080fd5b810190808035906020019064010000000081111561170157600080fd5b82018360208201111561171357600080fd5b8035906020019184600183028401116401000000008311171561173557600080fd5b91908080601f016020809104026020016040519081016040528093929190818152602001838380828437600081840152601f19601f8201169050808301925050505050505091929192905050506150c2565b005b34801561179557600080fd5b506118e6600480360360408110156117ac57600080fd5b81019080803590602001906401000000008111156117c957600080fd5b8201836020820111156117db57600080fd5b803590602001918460018302840111640100000000831117156117fd57600080fd5b91908080601f016020809104026020016040519081016040528093929190818152602001838380828437600081840152601f19601f8201169050808301925050505050505091929192908035906020019064010000000081111561186057600080fd5b82018360208201111561187257600080fd5b8035906020019184600183028401116401000000008311171561189457600080fd5b91908080601f016020809104026020016040519081016040528093929190818152602001838380828437600081840152601f19601f820116905080830192505050505050509192919290505050615484565b604051808215151515815260200191505060405180910390f35b34801561190c57600080fd5b506119c66004803603602081101561192357600080fd5b810190808035906020019064010000000081111561194057600080fd5b82018360208201111561195257600080fd5b8035906020019184600183028401116401000000008311171561197457600080fd5b91908080601f016020809104026020016040519081016040528093929190818152602001838380828437600081840152601f19601f820116905080830192505050505050509192919290505050615600565b6040518082815260200191505060405180910390f35b3480156119e857600080fd5b50611b39600480360360408110156119ff57600080fd5b8101908080359060200190640100000000811115611a1c57600080fd5b820183602082011115611a2e57600080fd5b80359060200191846001830284011164010000000083111715611a5057600080fd5b91908080601f016020809104026020016040519081016040528093929190818152602001838380828437600081840152601f19601f82011690508083019250505050505050919291929080359060200190640100000000811115611ab357600080fd5b820183602082011115611ac557600080fd5b80359060200191846001830284011164010000000083111715611ae757600080fd5b91908080601f016020809104026020016040519081016040528093929190818152602001838380828437600081840152601f19601f8201169050808301925050505050505091929192905050506156ce565b6040518080602001828103825283818151815260200191508051906020019080838360005b83811015611b79578082015181840152602081019050611b5e565b50505050905090810190601f168015611ba65780820380516001836020036101000a031916815260200191505b509250505060405180910390f35b600060016000611bc384615834565b815260200190815260200160002060009054906101000a900473ffffffffffffffffffffffffffffffffffffffff169050919050565b60006060600060026000611c0c89615834565b815260200190815260200160002090508060000160009054906101000a900460ff161515611ca2576040517f08c379a00000000000000000000000000000000000000000000000000000000081526004018080602001828103825260138152602001807f7265706f20646f6573206e6f742065786973740000000000000000000000000081525060200191505060405180910390fd5b600081600501905060006002811115611cb757fe5b876002811115611cc357fe5b1415611cd457816005019050611d25565b60016002811115611ce157fe5b876002811115611ced57fe5b1415611cfe5781600b019050611d24565b600280811115611d0a57fe5b876002811115611d1657fe5b1415611d23578160080190505b5b5b606060008090506000888802905060008090505b8981108015611df057508473__StringSetLib__________________________632486134690916040518263ffffffff167c01000000000000000000000000000000000000000000000000000000000281526004018082815260200191505060206040518083038186803b158015611db057600080fd5b505af4158015611dc4573d6000803e3d6000fd5b505050506040513d6020811015611dda57600080fd5b8101908080519060200190929190505050828201105b15611f15578473__StringSetLib__________________________6329b97ab690918484016040518363ffffffff167c0100000000000000000000000000000000000000000000000000000000028152600401808381526020018281526020019250505060006040518083038186803b158015611e6c57600080fd5b505af4158015611e80573d6000803e3d6000fd5b505050506040513d6000823e3d601f19601f820116820180604052506020811015611eaa57600080fd5b810190808051640100000000811115611ec257600080fd5b82810190506020810184811115611ed857600080fd5b8151856001820283011164010000000082111715611ef557600080fd5b505092919050505093508351602001830192508080600101915050611d39565b50816040519080825280601f01601f191660200182016040528015611f495781602001600182028038833980820191505090505b509550600080905060008090505b8a8110801561200e57508573__StringSetLib__________________________632486134690916040518263ffffffff167c01000000000000000000000000000000000000000000000000000000000281526004018082815260200191505060206040518083038186803b158015611fce57600080fd5b505af4158015611fe2573d6000803e3d6000fd5b505050506040513d6020811015611ff857600080fd5b8101908080519060200190929190505050838201105b1561214d578573__StringSetLib__________________________6329b97ab690918584016040518363ffffffff167c0100000000000000000000000000000000000000000000000000000000028152600401808381526020018281526020019250505060006040518083038186803b15801561208a57600080fd5b505af415801561209e573d6000803e3d6000fd5b505050506040513d6000823e3d601f19601f8201168201806040525060208110156120c857600080fd5b8101908080516401000000008111156120e057600080fd5b828101905060208101848111156120f657600080fd5b815185600182028301116401000000008211171561211357600080fd5b50509291905050509450612129855189846158b1565b60208201915061213a85898461594d565b8451820191508080600101915050611f57565b508473__StringSetLib__________________________632486134690916040518263ffffffff167c01000000000000000000000000000000000000000000000000000000000281526004018082815260200191505060206040518083038186803b1580156121bb57600080fd5b505af41580156121cf573d6000803e3d6000fd5b505050506040513d60208110156121e557600080fd5b8101908080519060200190929190505050879750975050505050505094509492505050565b60006122ec6000808573ffffffffffffffffffffffffffffffffffffffff1673ffffffffffffffffffffffffffffffffffffffff1681526020019081526020016000208054600181600116156101000203166002900480601f0160208091040260200160405190810160405280929190818152602001828054600181600116156101000203166002900480156122e15780601f106122b6576101008083540402835291602001916122e1565b820191906000526020600020905b8154815290600101906020018083116122c457829003601f168201915b505050505083613b55565b905092915050565b60006020528060005260406000206000915090508054600181600116156101000203166002900480601f01602080910402602001604051908101604052809291908181526020018280546001816001161561010002031660029004801561239c5780601f106123715761010080835404028352916020019161239c565b820191906000526020600020905b81548152906001019060200180831161237f57829003601f168201915b505050505081565b6123ae3383612d8f565b1515612448576040517f08c379a00000000000000000000000000000000000000000000000000000000081526004018080602001828103825260218152602001807f796f7520617265206e6f7420616e2061646d696e206f6620746869732072657081526020017f6f0000000000000000000000000000000000000000000000000000000000000081525060400191505060405180910390fd5b60006002600061245785615834565b815260200190815260200160002090508060000160009054906101000a900460ff1615156124ed576040517f08c379a00000000000000000000000000000000000000000000000000000000081526004018080602001828103825260188152602001807f74686973207265706f20646f6573206e6f74206578697374000000000000000081525060200191505060405180910390fd5b8181600e0160006101000a81548160ff0219169083151502179055503373ffffffffffffffffffffffffffffffffffffffff167fafd3374d7b80a84573da7094729fa7e4a8a87165437b49e55a448db5b9df704c8484604051808060200183151515158152602001828103825284818151815260200191508051906020019080838360005b8381101561258d578082015181840152602081019050612572565b50505050905090810190601f1680156125ba5780820380516001836020036101000a031916815260200191505b50935050505060405180910390a2505050565b60006126af6000808573ffffffffffffffffffffffffffffffffffffffff1673ffffffffffffffffffffffffffffffffffffffff1681526020019081526020016000208054600181600116156101000203166002900480601f0160208091040260200160405190810160405280929190818152602001828054600181600116156101000203166002900480156126a45780601f10612679576101008083540402835291602001916126a4565b820191906000526020600020905b81548152906001019060200180831161268757829003601f168201915b505050505083615484565b905092915050565b60008151111515612756576040517f08c379a00000000000000000000000000000000000000000000000000000000081526004018080602001828103825260218152602001807f617267756d656e7420277265706f4944272063616e6e6f7420626520656d707481526020017f790000000000000000000000000000000000000000000000000000000000000081525060400191505060405180910390fd5b60606000803373ffffffffffffffffffffffffffffffffffffffff1673ffffffffffffffffffffffffffffffffffffffff1681526020019081526020016000208054600181600116156101000203166002900480601f01602080910402602001604051908101604052809291908181526020018280546001816001161561010002031660029004801561282a5780601f106127ff5761010080835404028352916020019161282a565b820191906000526020600020905b81548152906001019060200180831161280d57829003601f168201915b50505050509050600081511115156128aa576040517f08c379a000000000000000000000000000000000000000000000000000000000815260040180806020018281038252601f8152602001807f796f752068617665206e6f7420636c61696d6564206120757365726e616d650081525060200191505060405180910390fd5b6000600260006128b985615834565b81526020019081526020016000209050600015158160000160009054906101000a900460ff16151514151561297c576040517f08c379a00000000000000000000000000000000000000000000000000000000081526004018080602001828103825260248152602001807f74686973207265706f49442068617320616c7265616479206265656e20636c6181526020017f696d65640000000000000000000000000000000000000000000000000000000081525060400191505060405180910390fd5b60018160000160006101000a81548160ff0219169083151502179055508060080173__StringSetLib__________________________63524e643b9091846040518363ffffffff167c01000000000000000000000000000000000000000000000000000000000281526004018083815260200180602001828103825283818151815260200191508051906020019080838360005b83811015612a2b578082015181840152602081019050612a10565b50505050905090810190601f168015612a585780820380516001836020036101000a031916815260200191505b50935050505060206040518083038186803b158015612a7657600080fd5b505af4158015612a8a573d6000803e3d6000fd5b505050506040513d6020811015612aa057600080fd5b8101908080519060200190929190505050508060050173__StringSetLib__________________________63524e643b9091846040518363ffffffff167c01000000000000000000000000000000000000000000000000000000000281526004018083815260200180602001828103825283818151815260200191508051906020019080838360005b83811015612b44578082015181840152602081019050612b29565b50505050905090810190601f168015612b715780820380516001836020036101000a031916815260200191505b50935050505060206040518083038186803b158015612b8f57600080fd5b505af4158015612ba3573d6000803e3d6000fd5b505050506040513d6020811015612bb957600080fd5b81019080805190602001909291905050505080600b0173__StringSetLib__________________________63524e643b9091846040518363ffffffff167c01000000000000000000000000000000000000000000000000000000000281526004018083815260200180602001828103825283818151815260200191508051906020019080838360005b83811015612c5d578082015181840152602081019050612c42565b50505050905090810190601f168015612c8a5780820380516001836020036101000a031916815260200191505b50935050505060206040518083038186803b158015612ca857600080fd5b505af4158015612cbc573d6000803e3d6000fd5b505050506040513d6020811015612cd257600080fd5b810190808051906020019092919050505050826040518082805190602001908083835b602083101515612d1a5780518252602082019150602081019050602083039250612cf5565b6001836020036101000a03801982511681845116808217855250505050505090500191505060405180910390203373ffffffffffffffffffffffffffffffffffffffff167f967edc3deaf8913ee580d1a499f00c093253f50ae9a868be5b29618047ae852960405160405180910390a3505050565b6000612e716000808573ffffffffffffffffffffffffffffffffffffffff1673ffffffffffffffffffffffffffffffffffffffff1681526020019081526020016000208054600181600116156101000203166002900480601f016020809104026020016040519081016040528092919081815260200182805460018160011615610100020316600290048015612e665780601f10612e3b57610100808354040283529160200191612e66565b820191906000526020600020905b815481529060010190602001808311612e4957829003601f168201915b505050505083614f86565b905092915050565b600060026000612e8884615834565b815260200190815260200160002060000160009054906101000a900460ff169050919050565b612f8e6000803373ffffffffffffffffffffffffffffffffffffffff1673ffffffffffffffffffffffffffffffffffffffff1681526020019081526020016000208054600181600116156101000203166002900480601f016020809104026020016040519081016040528092919081815260200182805460018160011615610100020316600290048015612f835780601f10612f5857610100808354040283529160200191612f83565b820191906000526020600020905b815481529060010190602001808311612f6657829003601f168201915b505050505084613b55565b1515613002576040517f08c379a000000000000000000000000000000000000000000000000000000000815260040180806020018281038252601a8152602001807f796f7520646f6e2774206861766520707573682061636365737300000000000081525060200191505060405180910390fd5b6028815114151561307b576040517f08c379a000000000000000000000000000000000000000000000000000000000815260040180806020018281038252600f8152602001807f62616420636f6d6d69742068617368000000000000000000000000000000000081525060200191505060405180910390fd5b60006002600061308a86615834565b815260200190815260200160002090508060000160009054906101000a900460ff161515613120576040517f08c379a00000000000000000000000000000000000000000000000000000000081526004018080602001828103825260138152602001807f7265706f20646f6573206e6f742065786973740000000000000000000000000081525060200191505060405180910390fd5b8060010173__StringSetLib__________________________63524e643b9091856040518363ffffffff167c01000000000000000000000000000000000000000000000000000000000281526004018083815260200180602001828103825283818151815260200191508051906020019080838360005b838110156131b2578082015181840152602081019050613197565b50505050905090810190601f1680156131df5780820380516001836020036101000a031916815260200191505b50935050505060206040518083038186803b1580156131fd57600080fd5b505af4158015613211573d6000803e3d6000fd5b505050506040513d602081101561322757600080fd5b8101908080519060200190929190505050508181600401600061324986615834565b8152602001908152602001600020908051906020019061326a929190615a08565b50826040518082805190602001908083835b6020831015156132a1578051825260208201915060208101905060208303925061327c565b6001836020036101000a0380198251168184511680821785525050505050509050019150506040518091039020846040518082805190602001908083835b60208310151561330457805182526020820191506020810190506020830392506132df565b6001836020036101000a03801982511681845116808217855250505050505090500191505060405180910390203373ffffffffffffffffffffffffffffffffffffffff167fc77d795c5ada12e6e61f6ca6c04423828f0660699387fefc548700aad589669b856040518080602001828103825283818151815260200191508051906020019080838360005b838110156133aa57808201518184015260208101905061338f565b50505050905090810190601f1680156133d75780820380516001836020036101000a031916815260200191505b509250505060405180910390a450505050565b6000600260006133f984615834565b8152602001908152602001600020600e0160009054906101000a900460ff169050919050565b6000606060006002600061343288615834565b815260200190815260200160002090508060000160009054906101000a900460ff1615156134c8576040517f08c379a00000000000000000000000000000000000000000000000000000000081526004018080602001828103825260138152602001807f7265706f20646f6573206e6f742065786973740000000000000000000000000081525060200191505060405180910390fd5b60608060008090506000888802905060008090505b898110801561359757508560010173__StringSetLib__________________________632486134690916040518263ffffffff167c01000000000000000000000000000000000000000000000000000000000281526004018082815260200191505060206040518083038186803b15801561355757600080fd5b505af415801561356b573d6000803e3d6000fd5b505050506040513d602081101561358157600080fd5b8101908080519060200190929190505050828201105b1561377d578560010173__StringSetLib__________________________6329b97ab690918484016040518363ffffffff167c0100000000000000000000000000000000000000000000000000000000028152600401808381526020018281526020019250505060006040518083038186803b15801561361657600080fd5b505af415801561362a573d6000803e3d6000fd5b505050506040513d6000823e3d601f19601f82011682018060405250602081101561365457600080fd5b81019080805164010000000081111561366c57600080fd5b8281019050602081018481111561368257600080fd5b815185600182028301116401000000008211171561369f57600080fd5b505092919050505094508560040160006136b887615834565b81526020019081526020016000208054600181600116156101000203166002900480601f01602080910402602001604051908101604052809291908181526020018280546001816001161561010002031660029004801561375a5780601f1061372f5761010080835404028352916020019161375a565b820191906000526020600020905b81548152906001019060200180831161373d57829003601f168201915b5050505050935083516020865160200101018301925080806001019150506134dd565b50816040519080825280601f01601f1916602001820160405280156137b15781602001600182028038833980820191505090505b509550600080905060008090505b8a8110801561387957508660010173__StringSetLib__________________________632486134690916040518263ffffffff167c01000000000000000000000000000000000000000000000000000000000281526004018082815260200191505060206040518083038186803b15801561383957600080fd5b505af415801561384d573d6000803e3d6000fd5b505050506040513d602081101561386357600080fd5b8101908080519060200190929190505050838201105b15613a96578660010173__StringSetLib__________________________6329b97ab690918584016040518363ffffffff167c0100000000000000000000000000000000000000000000000000000000028152600401808381526020018281526020019250505060006040518083038186803b1580156138f857600080fd5b505af415801561390c573d6000803e3d6000fd5b505050506040513d6000823e3d601f19601f82011682018060405250602081101561393657600080fd5b81019080805164010000000081111561394e57600080fd5b8281019050602081018481111561396457600080fd5b815185600182028301116401000000008211171561398157600080fd5b5050929190505050955086600401600061399a88615834565b81526020019081526020016000208054600181600116156101000203166002900480601f016020809104026020016040519081016040528092919081815260200182805460018160011615610100020316600290048015613a3c5780601f10613a1157610100808354040283529160200191613a3c565b820191906000526020600020905b815481529060010190602001808311613a1f57829003601f168201915b50505050509450613a4f865189846158b1565b602082019150613a6086898461594d565b855182019150613a72855189846158b1565b602082019150613a8385898461594d565b84518201915080806001019150506137bf565b508560010173__StringSetLib__________________________632486134690916040518263ffffffff167c01000000000000000000000000000000000000000000000000000000000281526004018082815260200191505060206040518083038186803b158015613b0757600080fd5b505af4158015613b1b573d6000803e3d6000fd5b505050506040513d6020811015613b3157600080fd5b81019080805190602001909291905050508797509750505050505050935093915050565b600060026000613b6484615834565b815260200190815260200160002060080173__StringSetLib__________________________63411565559091856040518363ffffffff167c01000000000000000000000000000000000000000000000000000000000281526004018083815260200180602001828103825283818151815260200191508051906020019080838360005b83811015613c03578082015181840152602081019050613be8565b50505050905090810190601f168015613c305780820380516001836020036101000a031916815260200191505b50935050505060206040518083038186803b158015613c4e57600080fd5b505af4158015613c62573d6000803e3d6000fd5b505050506040513d6020811015613c7857600080fd5b8101908080519060200190929190505050905092915050565b60016020528060005260406000206000915054906101000a900473ffffffffffffffffffffffffffffffffffffffff1681565b60008060008060026000613cd788615834565b815260200190815260200160002090508060000160009054906101000a900460ff161515613d6d576040517f08c379a00000000000000000000000000000000000000000000000000000000081526004018080602001828103825260138152602001807f7265706f20646f6573206e6f742065786973740000000000000000000000000081525060200191505060405180910390fd5b80600b0173__StringSetLib__________________________63411565559091876040518363ffffffff167c01000000000000000000000000000000000000000000000000000000000281526004018083815260200180602001828103825283818151815260200191508051906020019080838360005b83811015613dff578082015181840152602081019050613de4565b50505050905090810190601f168015613e2c5780820380516001836020036101000a031916815260200191505b50935050505060206040518083038186803b158015613e4a57600080fd5b505af4158015613e5e573d6000803e3d6000fd5b505050506040513d6020811015613e7457600080fd5b81019080805190602001909291905050508160080173__StringSetLib__________________________63411565559091886040518363ffffffff167c01000000000000000000000000000000000000000000000000000000000281526004018083815260200180602001828103825283818151815260200191508051906020019080838360005b83811015613f17578082015181840152602081019050613efc565b50505050905090810190601f168015613f445780820380516001836020036101000a031916815260200191505b50935050505060206040518083038186803b158015613f6257600080fd5b505af4158015613f76573d6000803e3d6000fd5b505050506040513d6020811015613f8c57600080fd5b81019080805190602001909291905050508260050173__StringSetLib__________________________63411565559091896040518363ffffffff167c01000000000000000000000000000000000000000000000000000000000281526004018083815260200180602001828103825283818151815260200191508051906020019080838360005b8381101561402f578082015181840152602081019050614014565b50505050905090810190601f16801561405c5780820380516001836020036101000a031916815260200191505b50935050505060206040518083038186803b15801561407a57600080fd5b505af415801561408e573d6000803e3d6000fd5b505050506040513d60208110156140a457600080fd5b8101908080519060200190929190505050935093509350509250925092565b6140cd3386612d8f565b1515614141576040517f08c379a00000000000000000000000000000000000000000000000000000000081526004018080602001828103825260148152602001807f796f7520617265206e6f7420616e2061646d696e00000000000000000000000081525060200191505060405180910390fd5b60006002600061415088615834565b815260200190815260200160002090508060000160009054906101000a900460ff1615156141e6576040517f08c379a00000000000000000000000000000000000000000000000000000000081526004018080602001828103825260138152602001807f7265706f20646f6573206e6f742065786973740000000000000000000000000081525060200191505060405180910390fd5b831561430a5780600b0173__StringSetLib__________________________63524e643b9091876040518363ffffffff167c01000000000000000000000000000000000000000000000000000000000281526004018083815260200180602001828103825283818151815260200191508051906020019080838360005b8381101561427e578082015181840152602081019050614263565b50505050905090810190601f1680156142ab5780820380516001836020036101000a031916815260200191505b50935050505060206040518083038186803b1580156142c957600080fd5b505af41580156142dd573d6000803e3d6000fd5b505050506040513d60208110156142f357600080fd5b810190808051906020019092919050505050614424565b80600b0173__StringSetLib__________________________634cab0b159091876040518363ffffffff167c01000000000000000000000000000000000000000000000000000000000281526004018083815260200180602001828103825283818151815260200191508051906020019080838360005b8381101561439c578082015181840152602081019050614381565b50505050905090810190601f1680156143c95780820380516001836020036101000a031916815260200191505b50935050505060206040518083038186803b1580156143e757600080fd5b505af41580156143fb573d6000803e3d6000fd5b505050506040513d602081101561441157600080fd5b8101908080519060200190929190505050505b8215614548578060080173__StringSetLib__________________________63524e643b9091876040518363ffffffff167c01000000000000000000000000000000000000000000000000000000000281526004018083815260200180602001828103825283818151815260200191508051906020019080838360005b838110156144bc5780820151818401526020810190506144a1565b50505050905090810190601f1680156144e95780820380516001836020036101000a031916815260200191505b50935050505060206040518083038186803b15801561450757600080fd5b505af415801561451b573d6000803e3d6000fd5b505050506040513d602081101561453157600080fd5b810190808051906020019092919050505050614662565b8060080173__StringSetLib__________________________634cab0b159091876040518363ffffffff167c01000000000000000000000000000000000000000000000000000000000281526004018083815260200180602001828103825283818151815260200191508051906020019080838360005b838110156145da5780820151818401526020810190506145bf565b50505050905090810190601f1680156146075780820380516001836020036101000a031916815260200191505b50935050505060206040518083038186803b15801561462557600080fd5b505af4158015614639573d6000803e3d6000fd5b505050506040513d602081101561464f57600080fd5b8101908080519060200190929190505050505b8115614786578060050173__StringSetLib__________________________63524e643b9091876040518363ffffffff167c01000000000000000000000000000000000000000000000000000000000281526004018083815260200180602001828103825283818151815260200191508051906020019080838360005b838110156146fa5780820151818401526020810190506146df565b50505050905090810190601f1680156147275780820380516001836020036101000a031916815260200191505b50935050505060206040518083038186803b15801561474557600080fd5b505af4158015614759573d6000803e3d6000fd5b505050506040513d602081101561476f57600080fd5b8101908080519060200190929190505050506148a0565b8060050173__StringSetLib__________________________634cab0b159091876040518363ffffffff167c01000000000000000000000000000000000000000000000000000000000281526004018083815260200180602001828103825283818151815260200191508051906020019080838360005b838110156148185780820151818401526020810190506147fd565b50505050905090810190601f1680156148455780820380516001836020036101000a031916815260200191505b50935050505060206040518083038186803b15801561486357600080fd5b505af4158015614877573d6000803e3d6000fd5b505050506040513d602081101561488d57600080fd5b8101908080519060200190929190505050505b505050505050565b6148b23382612d8f565b151561494c576040517f08c379a00000000000000000000000000000000000000000000000000000000081526004018080602001828103825260218152602001807f796f7520617265206e6f7420616e2061646d696e206f6620746869732072657081526020017f6f0000000000000000000000000000000000000000000000000000000000000081525060400191505060405180910390fd5b60006002600061495b84615834565b815260200190815260200160002090508060000160009054906101000a900460ff1615156149f1576040517f08c379a00000000000000000000000000000000000000000000000000000000081526004018080602001828103825260188152602001807f74686973207265706f20646f6573206e6f74206578697374000000000000000081525060200191505060405180910390fd5b600260006149fe84615834565b8152602001908152602001600020600080820160006101000a81549060ff02191690556001820160008082016000614a369190615a88565b50506005820160008082016000614a4d9190615a88565b50506008820160008082016000614a649190615a88565b5050600b820160008082016000614a7b9190615a88565b5050600e820160006101000a81549060ff02191690555050816040518082805190602001908083835b602083101515614ac95780518252602082019150602081019050602083039250614aa4565b6001836020036101000a03801982511681845116808217855250505050505090500191505060405180910390203373ffffffffffffffffffffffffffffffffffffffff167f2a125302c359bb06e95f884b73ed06c2a9247328d0e13d474bb1c94a02d2baad60405160405180910390a35050565b614c1d6000803373ffffffffffffffffffffffffffffffffffffffff1673ffffffffffffffffffffffffffffffffffffffff1681526020019081526020016000208054600181600116156101000203166002900480601f016020809104026020016040519081016040528092919081815260200182805460018160011615610100020316600290048015614c125780601f10614be757610100808354040283529160200191614c12565b820191906000526020600020905b815481529060010190602001808311614bf557829003601f168201915b505050505083613b55565b1515614c91576040517f08c379a000000000000000000000000000000000000000000000000000000000815260040180806020018281038252601a8152602001807f796f7520646f6e2774206861766520707573682061636365737300000000000081525060200191505060405180910390fd5b600060026000614ca085615834565b815260200190815260200160002090508060000160009054906101000a900460ff161515614d36576040517f08c379a00000000000000000000000000000000000000000000000000000000081526004018080602001828103825260138152602001807f7265706f20646f6573206e6f742065786973740000000000000000000000000081525060200191505060405180910390fd5b8060010173__StringSetLib__________________________634cab0b159091846040518363ffffffff167c01000000000000000000000000000000000000000000000000000000000281526004018083815260200180602001828103825283818151815260200191508051906020019080838360005b83811015614dc8578082015181840152602081019050614dad565b50505050905090810190601f168015614df55780820380516001836020036101000a031916815260200191505b50935050505060206040518083038186803b158015614e1357600080fd5b505af4158015614e27573d6000803e3d6000fd5b505050506040513d6020811015614e3d57600080fd5b810190808051906020019092919050505050806004016000614e5e84615834565b81526020019081526020016000206000614e789190615aa9565b816040518082805190602001908083835b602083101515614eae5780518252602082019150602081019050602083039250614e89565b6001836020036101000a0380198251168184511680821785525050505050509050019150506040518091039020836040518082805190602001908083835b602083101515614f115780518252602082019150602081019050602083039250614eec565b6001836020036101000a03801982511681845116808217855250505050505090500191505060405180910390203373ffffffffffffffffffffffffffffffffffffffff167ff7f3c15b2efffd8e8e7ba0e47f0d1240c4e8d027aca67641f9863d3c52ef054960405160405180910390a4505050565b600060026000614f9584615834565b815260200190815260200160002060050173__StringSetLib__________________________63411565559091856040518363ffffffff167c01000000000000000000000000000000000000000000000000000000000281526004018083815260200180602001828103825283818151815260200191508051906020019080838360005b83811015615034578082015181840152602081019050615019565b50505050905090810190601f1680156150615780820380516001836020036101000a031916815260200191505b50935050505060206040518083038186803b15801561507f57600080fd5b505af4158015615093573d6000803e3d6000fd5b505050506040513d60208110156150a957600080fd5b8101908080519060200190929190505050905092915050565b60008151111515615161576040517f08c379a00000000000000000000000000000000000000000000000000000000081526004018080602001828103825260238152602001807f617267756d656e742027757365726e616d65272063616e6e6f7420626520656d81526020017f707479000000000000000000000000000000000000000000000000000000000081525060400191505060405180910390fd5b60008060003373ffffffffffffffffffffffffffffffffffffffff1673ffffffffffffffffffffffffffffffffffffffff168152602001908152602001600020805460018160011615610100020316600290049050141515615251576040517f08c379a000000000000000000000000000000000000000000000000000000000815260040180806020018281038252602a8152602001807f796f7572206164647265737320616c72656164792062656c6f6e677320746f2081526020017f6120757365726e616d650000000000000000000000000000000000000000000081525060400191505060405180910390fd5b600061525c82615834565b9050600073ffffffffffffffffffffffffffffffffffffffff166001600083815260200190815260200160002060009054906101000a900473ffffffffffffffffffffffffffffffffffffffff1673ffffffffffffffffffffffffffffffffffffffff16141515615335576040517f08c379a00000000000000000000000000000000000000000000000000000000081526004018080602001828103825260208152602001807f7468697320757365726e616d6520697320616c726561647920636c61696d656481525060200191505060405180910390fd5b816000803373ffffffffffffffffffffffffffffffffffffffff1673ffffffffffffffffffffffffffffffffffffffff1681526020019081526020016000209080519060200190615387929190615a08565b50336001600083815260200190815260200160002060006101000a81548173ffffffffffffffffffffffffffffffffffffffff021916908373ffffffffffffffffffffffffffffffffffffffff160217905550816040518082805190602001908083835b60208310151561541057805182526020820191506020810190506020830392506153eb565b6001836020036101000a03801982511681845116808217855250505050505090500191505060405180910390203373ffffffffffffffffffffffffffffffffffffffff167faffa6dd92f7ba89dd7b4fdd8809b8e8d38b6431d8f41674fae86cfa06fc66d9960405160405180910390a35050565b60008061549083615834565b90506001151560026000838152602001908152602001600020600e0160009054906101000a900460ff16151514156154cc5760019150506155fa565b60026000828152602001908152602001600020600b0173__StringSetLib__________________________63411565559091866040518363ffffffff167c01000000000000000000000000000000000000000000000000000000000281526004018083815260200180602001828103825283818151815260200191508051906020019080838360005b83811015615570578082015181840152602081019050615555565b50505050905090810190601f16801561559d5780820380516001836020036101000a031916815260200191505b50935050505060206040518083038186803b1580156155bb57600080fd5b505af41580156155cf573d6000803e3d6000fd5b505050506040513d60208110156155e557600080fd5b81019080805190602001909291905050509150505b92915050565b60006002600061560f84615834565b815260200190815260200160002060010173__StringSetLib__________________________632486134690916040518263ffffffff167c01000000000000000000000000000000000000000000000000000000000281526004018082815260200191505060206040518083038186803b15801561568c57600080fd5b505af41580156156a0573d6000803e3d6000fd5b505050506040513d60208110156156b657600080fd5b81019080805190602001909291905050509050919050565b60606000600260006156df86615834565b815260200190815260200160002090508060000160009054906101000a900460ff161515615775576040517f08c379a00000000000000000000000000000000000000000000000000000000081526004018080602001828103825260138152602001807f7265706f20646f6573206e6f742065786973740000000000000000000000000081525060200191505060405180910390fd5b80600401600061578485615834565b81526020019081526020016000208054600181600116156101000203166002900480601f0160208091040260200160405190810160405280929190818152602001828054600181600116156101000203166002900480156158265780601f106157fb57610100808354040283529160200191615826565b820191906000526020600020905b81548152906001019060200180831161580957829003601f168201915b505050505091505092915050565b6000816040516020018082805190602001908083835b60208310151561586f578051825260208201915060208101905060208303925061584a565b6001836020036101000a038019825116818451168082178552505050505050905001915050604051602081830303815290604052805190602001209050919050565b600083600102905060008090505b60208110156159465781816020811015156158d657fe5b1a7f0100000000000000000000000000000000000000000000000000000000000000028484830181518110151561590957fe5b9060200101907effffffffffffffffffffffffffffffffffffffffffffffffffffffffffffff1916908160001a90535080806001019150506158bf565b5050505050565b60008090505b8351811015615a0257838181518110151561596a57fe5b9060200101517f010000000000000000000000000000000000000000000000000000000000000090047f010000000000000000000000000000000000000000000000000000000000000002838383018151811015156159c557fe5b9060200101907effffffffffffffffffffffffffffffffffffffffffffffffffffffffffffff1916908160001a9053508080600101915050615953565b50505050565b828054600181600116156101000203166002900490600052602060002090601f016020900481019282601f10615a4957805160ff1916838001178555615a77565b82800160010185558215615a77579182015b82811115615a76578251825591602001919060010190615a5b565b5b509050615a849190615af1565b5090565b5080546000825590600052602060002090810190615aa69190615b16565b50565b50805460018160011615610100020316600290046000825580601f10615acf5750615aee565b601f016020900490600052602060002090810190615aed9190615af1565b5b50565b615b1391905b80821115615b0f576000816000905550600101615af7565b5090565b90565b615b3f91905b80821115615b3b5760008181615b329190615aa9565b50600101615b1c565b5090565b9056fea165627a7a72305820f4d76f9d4378d0b4746ad4bd11df7c759d310d268e4b2222c0329d138fbe5aae0029",
  "source": "pragma solidity ^0.5.0;\n// pragma experimental ABIEncoderV2;\n\nimport \"./StringSetLib.sol\";\n\ncontract Protocol\n{\n    using StringSetLib for StringSetLib.StringSet;\n\n    mapping(address => string) public usernamesByAddress;\n    mapping(bytes32 => address) public addressesByUsername;\n\n    struct Repo {\n        bool exists;\n\n        StringSetLib.StringSet refs;\n        mapping(bytes32 => string) refsToCommits;\n\n        StringSetLib.StringSet admins;\n        StringSetLib.StringSet pushers;\n        StringSetLib.StringSet pullers;\n        bool isPublic;\n    }\n\n    mapping(bytes32 => Repo) repositories;\n\n    event LogSetUsername(address indexed addr, string indexed username);\n    event LogCreateRepo(address indexed user, string indexed repoID);\n    event LogDeleteRepo(address indexed user, string indexed repoID);\n    event LogSetPublic(address indexed user, string repoID, bool isPublic);\n    event LogUpdateRef(address indexed user, string indexed repoID, string indexed refName, string commitHash);\n    event LogDeleteRef(address indexed user, string indexed repoID, string indexed refName);\n\n    constructor() public {\n    }\n\n    function setUsername(string memory username) public {\n        require(bytes(username).length > 0, \"argument 'username' cannot be empty\");\n        require(bytes(usernamesByAddress[msg.sender]).length == 0, \"your address already belongs to a username\");\n\n        bytes32 usernameHash = hashString(username);\n        require(addressesByUsername[usernameHash] == address(0x0), \"this username is already claimed\");\n\n        usernamesByAddress[msg.sender] = username;\n        addressesByUsername[usernameHash] = msg.sender;\n\n        emit LogSetUsername(msg.sender, username);\n    }\n\n    function getAddressForUsername(string memory username) public view returns (address) {\n        return addressesByUsername[hashString(username)];\n    }\n\n    function createRepo(string memory repoID) public {\n        // Ensure that repoID is nonempty\n        require(bytes(repoID).length > 0, \"argument 'repoID' cannot be empty\");\n\n        // Ensure that the user has registered a username\n        string memory username = usernamesByAddress[msg.sender];\n        require(bytes(username).length > 0, \"you have not claimed a username\");\n\n        Repo storage repo = repositories[hashString(repoID)];\n\n        // Ensure that the repo doesn't exist yet\n        require(repo.exists == false, \"this repoID has already been claimed\");\n\n        repo.exists = true;\n        repo.pushers.add(username);\n        repo.admins.add(username);\n        repo.pullers.add(username);\n\n        emit LogCreateRepo(msg.sender, repoID);\n    }\n\n    function deleteRepo(string memory repoID) public {\n        require(addressIsAdmin(msg.sender, repoID), \"you are not an admin of this repo\");\n\n        Repo storage repo = repositories[hashString(repoID)];\n        require(repo.exists, \"this repo does not exist\");\n\n        delete repositories[hashString(repoID)];\n\n        emit LogDeleteRepo(msg.sender, repoID);\n    }\n\n    function setPublic(string memory repoID, bool isPublic) public {\n        require(addressIsAdmin(msg.sender, repoID), \"you are not an admin of this repo\");\n\n        Repo storage repo = repositories[hashString(repoID)];\n        require(repo.exists, \"this repo does not exist\");\n\n        repo.isPublic = isPublic;\n\n        emit LogSetPublic(msg.sender, repoID, isPublic);\n    }\n\n    function updateRef(string memory repoID, string memory refName, string memory commitHash) public {\n        require(userHasPushAccess(usernamesByAddress[msg.sender], repoID), \"you don't have push access\");\n        require(bytes(commitHash).length == 40, \"bad commit hash\");\n\n        Repo storage repo = repositories[hashString(repoID)];\n        require(repo.exists, \"repo does not exist\");\n\n        repo.refs.add(refName);\n        repo.refsToCommits[hashString(refName)] = commitHash;\n\n        emit LogUpdateRef(msg.sender, repoID, refName, commitHash);\n    }\n\n    function deleteRef(string memory repoID, string memory refName) public {\n        require(userHasPushAccess(usernamesByAddress[msg.sender], repoID), \"you don't have push access\");\n\n        Repo storage repo = repositories[hashString(repoID)];\n        require(repo.exists, \"repo does not exist\");\n\n        repo.refs.remove(refName);\n        delete repo.refsToCommits[hashString(refName)];\n\n        emit LogDeleteRef(msg.sender, repoID, refName);\n    }\n\n    function repoExists(string memory repoID) public view returns (bool) {\n        return repositories[hashString(repoID)].exists;\n    }\n\n    function userIsAdmin(string memory username, string memory repoID) public view returns (bool) {\n        return repositories[hashString(repoID)].admins.contains(username);\n    }\n\n    function userHasPullAccess(string memory username, string memory repoID) public view returns (bool) {\n        bytes32 repoIDHash = hashString(repoID);\n        if (repositories[repoIDHash].isPublic == true) {\n            return true;\n        }\n        return repositories[repoIDHash].pullers.contains(username);\n    }\n\n    function userHasPushAccess(string memory username, string memory repoID) public view returns (bool) {\n        return repositories[hashString(repoID)].pushers.contains(username);\n    }\n\n    function addressIsAdmin(address addr, string memory repoID) public view returns (bool) {\n        return userIsAdmin(usernamesByAddress[addr], repoID);\n    }\n\n    function addressHasPullAccess(address addr, string memory repoID) public view returns (bool) {\n        return userHasPullAccess(usernamesByAddress[addr], repoID);\n    }\n\n    function addressHasPushAccess(address addr, string memory repoID) public view returns (bool) {\n        return userHasPushAccess(usernamesByAddress[addr], repoID);\n    }\n\n    function isRepoPublic(string memory repoID) public view returns(bool) {\n        return repositories[hashString(repoID)].isPublic;\n    }\n\n    function getUserPermissions(string memory repoID, string memory username) public view returns (bool puller, bool pusher, bool admin) {\n        Repo storage repo = repositories[hashString(repoID)];\n        require(repo.exists, \"repo does not exist\");\n\n        return (\n            repo.pullers.contains(username),\n            repo.pushers.contains(username),\n            repo.admins.contains(username)\n        );\n    }\n\n    function setUserPermissions(string memory repoID, string memory username, bool puller, bool pusher, bool admin) public {\n        require(addressIsAdmin(msg.sender, repoID), \"you are not an admin\");\n\n        Repo storage repo = repositories[hashString(repoID)];\n        require(repo.exists, \"repo does not exist\");\n\n        if (puller) {\n            repo.pullers.add(username);\n        } else {\n            repo.pullers.remove(username);\n        }\n\n        if (pusher) {\n            repo.pushers.add(username);\n        } else {\n            repo.pushers.remove(username);\n        }\n\n        if (admin) {\n            repo.admins.add(username);\n        } else {\n            repo.admins.remove(username);\n        }\n    }\n\n    function numRefs(string memory repoID) public view returns (uint) {\n        return repositories[hashString(repoID)].refs.size();\n    }\n\n    function getRef(string memory repoID, string memory refName) public view returns (string memory) {\n        Repo storage repo = repositories[hashString(repoID)];\n        require(repo.exists, \"repo does not exist\");\n\n        return repo.refsToCommits[hashString(refName)];\n    }\n\n    function getRefs(string memory repoID, uint pageSize, uint page) public view returns (uint total, bytes memory data) {\n        Repo storage repo = repositories[hashString(repoID)];\n        require(repo.exists, \"repo does not exist\");\n\n        string memory refName;\n        string memory commit;\n        uint len = 0;\n        uint start = page * pageSize;\n        for (uint i = 0; i < pageSize && i + start < repo.refs.size(); i++) {\n            refName = repo.refs.get(i + start);\n            commit = repo.refsToCommits[hashString(refName)];\n            len += 32 + bytes(refName).length + 32 + bytes(commit).length;\n        }\n\n        data = new bytes(len);\n        uint written = 0;\n        for (uint i = 0; i < pageSize && i + start < repo.refs.size(); i++) {\n            refName = repo.refs.get(i + start);\n            commit = repo.refsToCommits[hashString(refName)];\n\n            writeUint(bytes(refName).length, data, written);\n            written += 32;\n            writeBytes(bytes(refName), data, written);\n            written += bytes(refName).length;\n\n            writeUint(bytes(commit).length, data, written);\n            written += 32;\n            writeBytes(bytes(commit), data, written);\n            written += bytes(commit).length;\n        }\n\n        return (repo.refs.size(), data);\n    }\n\n    enum UserType {\n        ADMIN, PULLER, PUSHER\n    }\n\n    function getRepoUsers(string memory repoID, UserType whichUsers, uint pageSize, uint page) public view returns (uint total, bytes memory data) {\n        Repo storage repo = repositories[hashString(repoID)];\n        require(repo.exists, \"repo does not exist\");\n\n        StringSetLib.StringSet storage users = repo.admins;\n        if (whichUsers == UserType.ADMIN) {\n            users = repo.admins;\n        } else if (whichUsers == UserType.PULLER) {\n            users = repo.pullers;\n        } else if (whichUsers == UserType.PUSHER) {\n            users = repo.pushers;\n        }\n\n        string memory user;\n        uint len = 0;\n        uint start = page * pageSize;\n        for (uint i = 0; i < pageSize && i + start < users.size(); i++) {\n            user = users.get(i + start);\n            len += 32 + bytes(user).length;\n        }\n\n        data = new bytes(len);\n        uint written = 0;\n        for (uint i = 0; i < pageSize && i + start < users.size(); i++) {\n            user = users.get(i + start);\n\n            writeUint(bytes(user).length, data, written);\n            written += 32;\n            writeBytes(bytes(user), data, written);\n            written += bytes(user).length;\n        }\n\n        return (users.size(), data);\n    }\n\n    function writeUint(uint x, bytes memory dest, uint offset) private pure {\n        bytes32 b = bytes32(x);\n        for (uint i = 0; i < 32; i++) {\n            dest[i + offset] = b[i];\n        }\n    }\n\n    function writeBytes(bytes memory src, bytes memory dest, uint offset) private pure {\n        for (uint i = 0; i < src.length; i++) {\n            dest[i + offset] = src[i];\n        }\n    }\n\n    function hashString(string memory s) private pure returns (bytes32) {\n        return keccak256(abi.encodePacked(s));\n    }\n}",
  "sourcePath": "/home/daniel/go/src/github.com/Conscience/protocol/eth/contracts/Protocol.sol",
  "compiler": {
    "name": "solc",
    "version": "0.5.0+commit.1d4f565a.Emscripten.clang"
  },
  "schemaVersion": "2.0.1",
  "updatedAt": "2019-01-29T22:15:49.770Z"
}