{
  "contractName": "StringSetLib",
  "abi": [
    {
      "constant": true,
      "inputs": [
        {
          "name": "self",
          "type": "StringSetLib.StringSet storage"
        },
        {
          "name": "index",
          "type": "uint256"
        }
      ],
      "name": "get",
      "outputs": [
        {
          "name": "",
          "type": "string"
        }
      ],
      "payable": false,
      "stateMutability": "view",
      "type": "function"
    },
    {
      "constant": false,
      "inputs": [
        {
          "name": "self",
          "type": "StringSetLib.StringSet storage"
        },
        {
          "name": "index",
          "type": "uint256"
        },
        {
          "name": "value",
          "type": "string"
        }
      ],
      "name": "set",
      "outputs": [
        {
          "name": "",
          "type": "bool"
        }
      ],
      "payable": false,
      "stateMutability": "nonpayable",
      "type": "function"
    },
    {
      "constant": false,
      "inputs": [
        {
          "name": "self",
          "type": "StringSetLib.StringSet storage"
        },
        {
          "name": "value",
          "type": "string"
        }
      ],
      "name": "add",
      "outputs": [
        {
          "name": "",
          "type": "bool"
        }
      ],
      "payable": false,
      "stateMutability": "nonpayable",
      "type": "function"
    },
    {
      "constant": false,
      "inputs": [
        {
          "name": "self",
          "type": "StringSetLib.StringSet storage"
        },
        {
          "name": "value",
          "type": "string"
        }
      ],
      "name": "remove",
      "outputs": [
        {
          "name": "",
          "type": "bool"
        }
      ],
      "payable": false,
      "stateMutability": "nonpayable",
      "type": "function"
    },
    {
      "constant": false,
      "inputs": [
        {
          "name": "self",
          "type": "StringSetLib.StringSet storage"
        },
        {
          "name": "index",
          "type": "uint256"
        }
      ],
      "name": "pop",
      "outputs": [
        {
          "name": "",
          "type": "string"
        }
      ],
      "payable": false,
      "stateMutability": "nonpayable",
      "type": "function"
    },
    {
      "constant": false,
      "inputs": [
        {
          "name": "self",
          "type": "StringSetLib.StringSet storage"
        },
        {
          "name": "old",
          "type": "string"
        },
        {
          "name": "nu",
          "type": "string"
        }
      ],
      "name": "replace",
      "outputs": [
        {
          "name": "",
          "type": "bool"
        }
      ],
      "payable": false,
      "stateMutability": "nonpayable",
      "type": "function"
    },
    {
      "constant": true,
      "inputs": [
        {
          "name": "self",
          "type": "StringSetLib.StringSet storage"
        }
      ],
      "name": "first",
      "outputs": [
        {
          "name": "",
          "type": "string"
        }
      ],
      "payable": false,
      "stateMutability": "view",
      "type": "function"
    },
    {
      "constant": true,
      "inputs": [
        {
          "name": "self",
          "type": "StringSetLib.StringSet storage"
        }
      ],
      "name": "last",
      "outputs": [
        {
          "name": "",
          "type": "string"
        }
      ],
      "payable": false,
      "stateMutability": "view",
      "type": "function"
    },
    {
      "constant": true,
      "inputs": [
        {
          "name": "self",
          "type": "StringSetLib.StringSet storage"
        },
        {
          "name": "value",
          "type": "string"
        }
      ],
      "name": "indexOf",
      "outputs": [
        {
          "name": "",
          "type": "uint256"
        }
      ],
      "payable": false,
      "stateMutability": "view",
      "type": "function"
    },
    {
      "constant": true,
      "inputs": [
        {
          "name": "self",
          "type": "StringSetLib.StringSet storage"
        },
        {
          "name": "value",
          "type": "string"
        }
      ],
      "name": "contains",
      "outputs": [
        {
          "name": "",
          "type": "bool"
        }
      ],
      "payable": false,
      "stateMutability": "view",
      "type": "function"
    },
    {
      "constant": true,
      "inputs": [
        {
          "name": "self",
          "type": "StringSetLib.StringSet storage"
        }
      ],
      "name": "size",
      "outputs": [
        {
          "name": "",
          "type": "uint256"
        }
      ],
      "payable": false,
      "stateMutability": "view",
      "type": "function"
    }
  ],
  "bytecode": "0x610f16610030600b82828239805160001a6073146000811461002057610022565bfe5b5030600052607381538281f30073000000000000000000000000000000000000000030146080604052600436106100c6576000357c0100000000000000000000000000000000000000000000000000000000900463ffffffff1680630bc030a9146100cb57806317de8fcc1461017b57806324861346146101f557806329b97ab61461022957806341156555146102cc5780634cab0b151461034a578063524e643b146103d557806368ce54fa146104605780637f4cba33146104f5578063b1f808ef1461058e578063e00907c514610627575b600080fd5b8180156100d757600080fd5b5061010060048036038101908080359060200190929190803590602001909291905050506106f8565b6040518080602001828103825283818151815260200191508051906020019080838360005b83811015610140578082015181840152602081019050610125565b50505050905090810190601f16801561016d5780820380516001836020036101000a031916815260200191505b509250505060405180910390f35b6101df60048036038101908080359060200190929190803590602001908201803590602001908080601f0160208091040260200160405190810160405280939291908181526020018383808284378201915050505050509192919290505050610834565b6040518082815260200191505060405180910390f35b610213600480360381019080803590602001909291905050506108c3565b6040518082815260200191505060405180910390f35b61025160048036038101908080359060200190929190803590602001909291905050506108d4565b6040518080602001828103825283818151815260200191508051906020019080838360005b83811015610291578082015181840152602081019050610276565b50505050905090810190601f1680156102be5780820380516001836020036101000a031916815260200191505b509250505060405180910390f35b61033060048036038101908080359060200190929190803590602001908201803590602001908080601f01602080910402602001604051908101604052809392919081815260200183838082843782019150505050505091929192905050506109ab565b604051808215151515815260200191505060405180910390f35b81801561035657600080fd5b506103bb60048036038101908080359060200190929190803590602001908201803590602001908080601f01602080910402602001604051908101604052809392919081815260200183838082843782019150505050505091929192905050506109e8565b604051808215151515815260200191505060405180910390f35b8180156103e157600080fd5b5061044660048036038101908080359060200190929190803590602001908201803590602001908080601f0160208091040260200160405190810160405280939291908181526020018383808284378201915050505050509192919290505050610a50565b604051808215151515815260200191505060405180910390f35b81801561046c57600080fd5b506104db6004803603810190808035906020019092919080359060200190929190803590602001908201803590602001908080601f0160208091040260200160405190810160405280939291908181526020018383808284378201915050505050509192919290505050610b4e565b604051808215151515815260200191505060405180910390f35b61051360048036038101908080359060200190929190505050610c43565b6040518080602001828103825283818151815260200191508051906020019080838360005b83811015610553578082015181840152602081019050610538565b50505050905090810190601f1680156105805780820380516001836020036101000a031916815260200191505b509250505060405180910390f35b6105ac60048036038101908080359060200190929190505050610c70565b6040518080602001828103825283818151815260200191508051906020019080838360005b838110156105ec5780820151818401526020810190506105d1565b50505050905090810190601f1680156106195780820380516001836020036101000a031916815260200191505b509250505060405180910390f35b81801561063357600080fd5b506106de60048036038101908080359060200190929190803590602001908201803590602001908080601f0160208091040260200160405190810160405280939291908181526020018383808284378201915050505050509192919290803590602001908201803590602001908080601f0160208091040260200160405190810160405280939291908181526020018383808284378201915050505050509192919290505050610ca6565b604051808215151515815260200191505060405180910390f35b6060806060600080868681600001805490508110151561071757600080fd5b61072189896108d4565b95506001896000018054905003881415156107b15761073f89610c70565b945061074a85610ccd565b93506000896001016000866000191660001916815260200190815260200160002060006101000a81548160ff02191690831515021790555061078d898987610b4e565b50878960020160008660001916600019168152602001908152602001600020819055505b600189600001818180549050039150816107cb9190610da5565b506107d586610ccd565b9250886002016000846000191660001916815260200190815260200160002060009055886001016000846000191660001916815260200190815260200160002060006101000a81549060ff021916905585965050505050505092915050565b60008061084083610ccd565b9050836001016000826000191660001916815260200190815260200160002060009054906101000a900460ff16151561089b577fffffffffffffffffffffffffffffffffffffffffffffffffffffffffffffffff91506108bc565b83600201600082600019166000191681526020019081526020016000205491505b5092915050565b600081600001805490509050919050565b606082828160000180549050811015156108ed57600080fd5b84600001848154811015156108fe57fe5b906000526020600020018054600181600116156101000203166002900480601f01602080910402602001604051908101604052809291908181526020018280546001816001161561010002031660029004801561099c5780601f106109715761010080835404028352916020019161099c565b820191906000526020600020905b81548152906001019060200180831161097f57829003601f168201915b50505050509250505092915050565b60008260010160006109bc84610ccd565b6000191660001916815260200190815260200160002060009054906101000a900460ff16905092915050565b6000808360010160006109fa85610ccd565b6000191660001916815260200190815260200160002060009054906101000a900460ff161515610a2d5760009150610a49565b610a378484610834565b9050610a4384826106f8565b50600191505b5092915050565b6000826001016000610a6184610ccd565b6000191660001916815260200190815260200160002060009054906101000a900460ff1615610a935760009050610b48565b8260000180549050836002016000610aaa85610ccd565b600019166000191681526020019081526020016000208190555082600001829080600181540180825580915050906001820390600052602060002001600090919290919091509080519060200190610b03929190610dd1565b50506001836001016000610b1685610ccd565b6000191660001916815260200190815260200160002060006101000a81548160ff021916908315150217905550600190505b92915050565b6000808484816000018054905081101515610b6857600080fd5b610b7185610ccd565b9250866001016000846000191660001916815260200190815260200160002060009054906101000a900460ff1615610bac5760009350610c39565b848760000187815481101515610bbe57fe5b906000526020600020019080519060200190610bdb929190610dd1565b506001876001016000856000191660001916815260200190815260200160002060006101000a81548160ff02191690831515021790555085876002016000856000191660001916815260200190815260200160002081905550600193505b5050509392505050565b6060816000816000018054905014151515610c5d57600080fd5b610c688360006108d4565b915050919050565b6060816000816000018054905014151515610c8a57600080fd5b610c9e8360018560000180549050036108d4565b915050919050565b6000610cb284846109e8565b8015610cc45750610cc38483610a50565b5b90509392505050565b6000816040516020018082805190602001908083835b602083101515610d085780518252602082019150602081019050602083039250610ce3565b6001836020036101000a0380198251168184511680821785525050505050509050019150506040516020818303038152906040526040518082805190602001908083835b602083101515610d715780518252602082019150602081019050602083039250610d4c565b6001836020036101000a03801982511681845116808217855250505050505090500191505060405180910390209050919050565b815481835581811115610dcc57818360005260206000209182019101610dcb9190610e51565b5b505050565b828054600181600116156101000203166002900490600052602060002090601f016020900481019282601f10610e1257805160ff1916838001178555610e40565b82800160010185558215610e40579182015b82811115610e3f578251825591602001919060010190610e24565b5b509050610e4d9190610e7d565b5090565b610e7a91905b80821115610e765760008181610e6d9190610ea2565b50600101610e57565b5090565b90565b610e9f91905b80821115610e9b576000816000905550600101610e83565b5090565b90565b50805460018160011615610100020316600290046000825580601f10610ec85750610ee7565b601f016020900490600052602060002090810190610ee69190610e7d565b5b505600a165627a7a723058209c91310af877c21dbeacf0d3969afcc3b67ea2c34a3668911773e3087b2cd2910029",
  "source": "pragma solidity ^0.4.24;\n\n/// @title Library implementing an array type which allows O(1) lookups on values.\n/// @author Piper Merriam <pipermerriam@gmail.com>, Eric Olszewski <eolszewski@gmail.com>\n/// Adapted from https://github.com/ethpm/ethereum-indexed-enumerable-set-lib/blob/master/contracts/IndexedEnumerableSetLib.sol\nlibrary StringSetLib\n{\n    struct StringSet {\n        string[] values;\n        mapping(bytes32 => bool) exists;\n        mapping(bytes32 => uint) indices;\n    }\n\n    modifier inBounds(StringSet storage self, uint index) {\n        require(index < self.values.length);\n        _;\n    }\n\n    modifier notEmpty(StringSet storage self) {\n        require(self.values.length != 0);\n        _;\n    }\n\n    function hash(string s)\n        private\n        pure\n        returns (bytes32)\n    {\n        return keccak256(abi.encodePacked(s));\n    }\n\n    function get(StringSet storage self, uint index)\n        public\n        view\n        inBounds(self, index)\n        returns (string)\n    {\n        return self.values[index];\n    }\n\n    function set(StringSet storage self, uint index, string value)\n        public\n        inBounds(self, index)\n        returns (bool)\n    {\n        bytes32 hvalue = hash(value);\n        if (self.exists[hvalue]) {\n            return false;\n        }\n\n        self.values[index] = value;\n        self.exists[hvalue] = true;\n        self.indices[hvalue] = index;\n        return true;\n    }\n\n    function add(StringSet storage self, string value)\n        public\n        returns (bool)\n    {\n        if (self.exists[hash(value)]) {\n            return false;\n        }\n\n        self.indices[hash(value)] = self.values.length;\n        self.values.push(value);\n        self.exists[hash(value)] = true;\n        return true;\n    }\n\n    function remove(StringSet storage self, string value)\n        public\n        returns (bool)\n    {\n        if (!self.exists[hash(value)]) {\n            return false;\n        }\n        uint index = indexOf(self, value);\n        pop(self, index);\n        return true;\n    }\n\n    function pop(StringSet storage self, uint index)\n        public\n        inBounds(self, index)\n        returns (string)\n    {\n        string memory value = get(self, index);\n\n        if (index != self.values.length - 1) {\n            string memory lastValue = last(self);\n            bytes32 hlastValue = hash(lastValue);\n            self.exists[hlastValue] = false;\n            set(self, index, lastValue);\n            self.indices[hlastValue] = index;\n        }\n        self.values.length -= 1;\n\n        bytes32 hvalue = hash(value);\n        delete self.indices[hvalue];\n        delete self.exists[hvalue];\n\n        return value;\n    }\n\n    function replace(StringSet storage self, string old, string nu)\n        public\n        returns (bool)\n    {\n        return remove(self, old) && add(self, nu);\n    }\n\n    function first(StringSet storage self)\n        public\n        view\n        notEmpty(self)\n        returns (string)\n    {\n        return get(self, 0);\n    }\n\n    function last(StringSet storage self)\n        public\n        view\n        notEmpty(self)\n        returns (string)\n    {\n        return get(self, self.values.length - 1);\n    }\n\n    function indexOf(StringSet storage self, string value)\n        public\n        view\n        returns (uint)\n    {\n        bytes32 hvalue = hash(value);\n        if (!self.exists[hvalue]) {\n            return uint(-1);\n        }\n        return self.indices[hvalue];\n    }\n\n    function contains(StringSet storage self, string value)\n        public\n        view\n        returns (bool)\n    {\n        return self.exists[hash(value)];\n    }\n\n    function size(StringSet storage self)\n        public\n        view\n        returns (uint)\n    {\n        return self.values.length;\n    }\n}",
  "sourcePath": "/Users/bryn/go/src/github.com/Conscience/protocol/eth/contracts/StringSetLib.sol",
  "compiler": {
    "name": "solc",
    "version": "0.4.24+commit.e67f0147.Emscripten.clang"
  },
  "schemaVersion": "2.0.1",
  "updatedAt": "2018-10-15T07:50:47.301Z"
}