{
  "contractName": "StringSetLib",
  "abi": [
    {
      "constant": true,
      "inputs": [
        {
          "name": "self",
          "type": "StringSetLib.StringSet storage"
        },
        {
          "name": "index",
          "type": "uint256"
        }
      ],
      "name": "get",
      "outputs": [
        {
          "name": "",
          "type": "string"
        }
      ],
      "payable": false,
      "stateMutability": "view",
      "type": "function",
      "signature": "0x29b97ab6"
    },
    {
      "constant": false,
      "inputs": [
        {
          "name": "self",
          "type": "StringSetLib.StringSet storage"
        },
        {
          "name": "index",
          "type": "uint256"
        },
        {
          "name": "value",
          "type": "string"
        }
      ],
      "name": "set",
      "outputs": [
        {
          "name": "",
          "type": "bool"
        }
      ],
      "payable": false,
      "stateMutability": "nonpayable",
      "type": "function",
      "signature": "0x68ce54fa"
    },
    {
      "constant": false,
      "inputs": [
        {
          "name": "self",
          "type": "StringSetLib.StringSet storage"
        },
        {
          "name": "value",
          "type": "string"
        }
      ],
      "name": "add",
      "outputs": [
        {
          "name": "",
          "type": "bool"
        }
      ],
      "payable": false,
      "stateMutability": "nonpayable",
      "type": "function",
      "signature": "0x524e643b"
    },
    {
      "constant": false,
      "inputs": [
        {
          "name": "self",
          "type": "StringSetLib.StringSet storage"
        },
        {
          "name": "value",
          "type": "string"
        }
      ],
      "name": "remove",
      "outputs": [
        {
          "name": "",
          "type": "bool"
        }
      ],
      "payable": false,
      "stateMutability": "nonpayable",
      "type": "function",
      "signature": "0x4cab0b15"
    },
    {
      "constant": false,
      "inputs": [
        {
          "name": "self",
          "type": "StringSetLib.StringSet storage"
        },
        {
          "name": "index",
          "type": "uint256"
        }
      ],
      "name": "pop",
      "outputs": [
        {
          "name": "",
          "type": "string"
        }
      ],
      "payable": false,
      "stateMutability": "nonpayable",
      "type": "function",
      "signature": "0x0bc030a9"
    },
    {
      "constant": false,
      "inputs": [
        {
          "name": "self",
          "type": "StringSetLib.StringSet storage"
        },
        {
          "name": "old",
          "type": "string"
        },
        {
          "name": "nu",
          "type": "string"
        }
      ],
      "name": "replace",
      "outputs": [
        {
          "name": "",
          "type": "bool"
        }
      ],
      "payable": false,
      "stateMutability": "nonpayable",
      "type": "function",
      "signature": "0xe00907c5"
    },
    {
      "constant": true,
      "inputs": [
        {
          "name": "self",
          "type": "StringSetLib.StringSet storage"
        }
      ],
      "name": "first",
      "outputs": [
        {
          "name": "",
          "type": "string"
        }
      ],
      "payable": false,
      "stateMutability": "view",
      "type": "function",
      "signature": "0x7f4cba33"
    },
    {
      "constant": true,
      "inputs": [
        {
          "name": "self",
          "type": "StringSetLib.StringSet storage"
        }
      ],
      "name": "last",
      "outputs": [
        {
          "name": "",
          "type": "string"
        }
      ],
      "payable": false,
      "stateMutability": "view",
      "type": "function",
      "signature": "0xb1f808ef"
    },
    {
      "constant": true,
      "inputs": [
        {
          "name": "self",
          "type": "StringSetLib.StringSet storage"
        },
        {
          "name": "value",
          "type": "string"
        }
      ],
      "name": "indexOf",
      "outputs": [
        {
          "name": "",
          "type": "uint256"
        }
      ],
      "payable": false,
      "stateMutability": "view",
      "type": "function",
      "signature": "0x17de8fcc"
    },
    {
      "constant": true,
      "inputs": [
        {
          "name": "self",
          "type": "StringSetLib.StringSet storage"
        },
        {
          "name": "value",
          "type": "string"
        }
      ],
      "name": "contains",
      "outputs": [
        {
          "name": "",
          "type": "bool"
        }
      ],
      "payable": false,
      "stateMutability": "view",
      "type": "function",
      "signature": "0x41156555"
    },
    {
      "constant": true,
      "inputs": [
        {
          "name": "self",
          "type": "StringSetLib.StringSet storage"
        }
      ],
      "name": "size",
      "outputs": [
        {
          "name": "",
          "type": "uint256"
        }
      ],
      "payable": false,
      "stateMutability": "view",
      "type": "function",
      "signature": "0x24861346"
    }
  ],
  "bytecode": "0x611122610030600b82828239805160001a6073146000811461002057610022565bfe5b5030600052607381538281f3fe73000000000000000000000000000000000000000030146080604052600436106100c6576000357c0100000000000000000000000000000000000000000000000000000000900463ffffffff1680630bc030a9146100cb57806317de8fcc14610189578063248613461461026257806329b97ab6146102a457806341156555146103555780634cab0b1514610432578063524e643b1461051c57806368ce54fa146106065780637f4cba33146106fa578063b1f808ef146107a1578063e00907c514610848575b600080fd5b8180156100d757600080fd5b5061010e600480360360408110156100ee57600080fd5b8101908080359060200190929190803590602001909291905050506109c9565b6040518080602001828103825283818151815260200191508051906020019080838360005b8381101561014e578082015181840152602081019050610133565b50505050905090810190601f16801561017b5780820380516001836020036101000a031916815260200191505b509250505060405180910390f35b61024c6004803603604081101561019f57600080fd5b8101908080359060200190929190803590602001906401000000008111156101c657600080fd5b8201836020820111156101d857600080fd5b803590602001918460018302840111640100000000831117156101fa57600080fd5b91908080601f016020809104026020016040519081016040528093929190818152602001838380828437600081840152601f19601f820116905080830192505050505050509192919290505050610ae7565b6040518082815260200191505060405180910390f35b61028e6004803603602081101561027857600080fd5b8101908080359060200190929190505050610b67565b6040518082815260200191505060405180910390f35b6102da600480360360408110156102ba57600080fd5b810190808035906020019092919080359060200190929190505050610b78565b6040518080602001828103825283818151815260200191508051906020019080838360005b8381101561031a5780820151818401526020810190506102ff565b50505050905090810190601f1680156103475780820380516001836020036101000a031916815260200191505b509250505060405180910390f35b6104186004803603604081101561036b57600080fd5b81019080803590602001909291908035906020019064010000000081111561039257600080fd5b8201836020820111156103a457600080fd5b803590602001918460018302840111640100000000831117156103c657600080fd5b91908080601f016020809104026020016040519081016040528093929190818152602001838380828437600081840152601f19601f820116905080830192505050505050509192919290505050610c4f565b604051808215151515815260200191505060405180910390f35b81801561043e57600080fd5b506105026004803603604081101561045557600080fd5b81019080803590602001909291908035906020019064010000000081111561047c57600080fd5b82018360208201111561048e57600080fd5b803590602001918460018302840111640100000000831117156104b057600080fd5b91908080601f016020809104026020016040519081016040528093929190818152602001838380828437600081840152601f19601f820116905080830192505050505050509192919290505050610c84565b604051808215151515815260200191505060405180910390f35b81801561052857600080fd5b506105ec6004803603604081101561053f57600080fd5b81019080803590602001909291908035906020019064010000000081111561056657600080fd5b82018360208201111561057857600080fd5b8035906020019184600183028401116401000000008311171561059a57600080fd5b91908080601f016020809104026020016040519081016040528093929190818152602001838380828437600081840152601f19601f820116905080830192505050505050509192919290505050610ce5565b604051808215151515815260200191505060405180910390f35b81801561061257600080fd5b506106e06004803603606081101561062957600080fd5b8101908080359060200190929190803590602001909291908035906020019064010000000081111561065a57600080fd5b82018360208201111561066c57600080fd5b8035906020019184600183028401116401000000008311171561068e57600080fd5b91908080601f016020809104026020016040519081016040528093929190818152602001838380828437600081840152601f19601f820116905080830192505050505050509192919290505050610dcb565b604051808215151515815260200191505060405180910390f35b6107266004803603602081101561071057600080fd5b8101908080359060200190929190505050610eaa565b6040518080602001828103825283818151815260200191508051906020019080838360005b8381101561076657808201518184015260208101905061074b565b50505050905090810190601f1680156107935780820380516001836020036101000a031916815260200191505b509250505060405180910390f35b6107cd600480360360208110156107b757600080fd5b8101908080359060200190929190505050610ed7565b6040518080602001828103825283818151815260200191508051906020019080838360005b8381101561080d5780820151818401526020810190506107f2565b50505050905090810190601f16801561083a5780820380516001836020036101000a031916815260200191505b509250505060405180910390f35b81801561085457600080fd5b506109af6004803603606081101561086b57600080fd5b81019080803590602001909291908035906020019064010000000081111561089257600080fd5b8201836020820111156108a457600080fd5b803590602001918460018302840111640100000000831117156108c657600080fd5b91908080601f016020809104026020016040519081016040528093929190818152602001838380828437600081840152601f19601f8201169050808301925050505050505091929192908035906020019064010000000081111561092957600080fd5b82018360208201111561093b57600080fd5b8035906020019184600183028401116401000000008311171561095d57600080fd5b91908080601f016020809104026020016040519081016040528093929190818152602001838380828437600081840152601f19601f820116905080830192505050505050509192919290505050610f0d565b604051808215151515815260200191505060405180910390f35b606082828160000180549050811015156109e257600080fd5b60606109ee8686610b78565b9050600186600001805490500385141515610a74576060610a0e87610ed7565b90506000610a1b82610f34565b9050600088600101600083815260200190815260200160002060006101000a81548160ff021916908315150217905550610a56888884610dcb565b50868860020160008381526020019081526020016000208190555050505b60018660000181818054905003915081610a8e9190610fb1565b506000610a9a82610f34565b90508660020160008281526020019081526020016000206000905586600101600082815260200190815260200160002060006101000a81549060ff02191690558194505050505092915050565b600080610af383610f34565b905083600101600082815260200190815260200160002060009054906101000a900460ff161515610b47577fffffffffffffffffffffffffffffffffffffffffffffffffffffffffffffffff915050610b61565b836002016000828152602001908152602001600020549150505b92915050565b600081600001805490509050919050565b60608282816000018054905081101515610b9157600080fd5b8460000184815481101515610ba257fe5b906000526020600020018054600181600116156101000203166002900480601f016020809104026020016040519081016040528092919081815260200182805460018160011615610100020316600290048015610c405780601f10610c1557610100808354040283529160200191610c40565b820191906000526020600020905b815481529060010190602001808311610c2357829003601f168201915b50505050509250505092915050565b6000826001016000610c6084610f34565b815260200190815260200160002060009054906101000a900460ff16905092915050565b6000826001016000610c9584610f34565b815260200190815260200160002060009054906101000a900460ff161515610cc05760009050610cdf565b6000610ccc8484610ae7565b9050610cd884826109c9565b5060019150505b92915050565b6000826001016000610cf684610f34565b815260200190815260200160002060009054906101000a900460ff1615610d205760009050610dc5565b8260000180549050836002016000610d3785610f34565b81526020019081526020016000208190555082600001829080600181540180825580915050906001820390600052602060002001600090919290919091509080519060200190610d88929190610fdd565b50506001836001016000610d9b85610f34565b815260200190815260200160002060006101000a81548160ff021916908315150217905550600190505b92915050565b60008383816000018054905081101515610de457600080fd5b6000610def85610f34565b905086600101600082815260200190815260200160002060009054906101000a900460ff1615610e23576000935050610ea1565b848760000187815481101515610e3557fe5b906000526020600020019080519060200190610e52929190610fdd565b50600187600101600083815260200190815260200160002060006101000a81548160ff021916908315150217905550858760020160008381526020019081526020016000208190555060019350505b50509392505050565b6060816000816000018054905014151515610ec457600080fd5b610ecf836000610b78565b915050919050565b6060816000816000018054905014151515610ef157600080fd5b610f05836001856000018054905003610b78565b915050919050565b6000610f198484610c84565b8015610f2b5750610f2a8483610ce5565b5b90509392505050565b6000816040516020018082805190602001908083835b602083101515610f6f5780518252602082019150602081019050602083039250610f4a565b6001836020036101000a038019825116818451168082178552505050505050905001915050604051602081830303815290604052805190602001209050919050565b815481835581811115610fd857818360005260206000209182019101610fd7919061105d565b5b505050565b828054600181600116156101000203166002900490600052602060002090601f016020900481019282601f1061101e57805160ff191683800117855561104c565b8280016001018555821561104c579182015b8281111561104b578251825591602001919060010190611030565b5b5090506110599190611089565b5090565b61108691905b80821115611082576000818161107991906110ae565b50600101611063565b5090565b90565b6110ab91905b808211156110a757600081600090555060010161108f565b5090565b90565b50805460018160011615610100020316600290046000825580601f106110d457506110f3565b601f0160209004906000526020600020908101906110f29190611089565b5b5056fea165627a7a72305820125188e2d7cf5de0da692f083eb8c853df79a1424624a7e1f469c329245d44d80029",
  "source": "pragma solidity ^0.5.0;\n\n/// @title Library implementing an array type which allows O(1) lookups on values.\n/// @author Piper Merriam <pipermerriam@gmail.com>, Eric Olszewski <eolszewski@gmail.com>\n/// Adapted from https://github.com/ethpm/ethereum-indexed-enumerable-set-lib/blob/master/contracts/IndexedEnumerableSetLib.sol\nlibrary StringSetLib\n{\n    struct StringSet {\n        string[] values;\n        mapping(bytes32 => bool) exists;\n        mapping(bytes32 => uint) indices;\n    }\n\n    modifier inBounds(StringSet storage self, uint index) {\n        require(index < self.values.length);\n        _;\n    }\n\n    modifier notEmpty(StringSet storage self) {\n        require(self.values.length != 0);\n        _;\n    }\n\n    function hash(string memory s)\n        private\n        pure\n        returns (bytes32)\n    {\n        return keccak256(abi.encodePacked(s));\n    }\n\n    function get(StringSet storage self, uint index)\n        public\n        view\n        inBounds(self, index)\n        returns (string memory)\n    {\n        return self.values[index];\n    }\n\n    function set(StringSet storage self, uint index, string memory value)\n        public\n        inBounds(self, index)\n        returns (bool)\n    {\n        bytes32 hvalue = hash(value);\n        if (self.exists[hvalue]) {\n            return false;\n        }\n\n        self.values[index] = value;\n        self.exists[hvalue] = true;\n        self.indices[hvalue] = index;\n        return true;\n    }\n\n    function add(StringSet storage self, string memory value)\n        public\n        returns (bool)\n    {\n        if (self.exists[hash(value)]) {\n            return false;\n        }\n\n        self.indices[hash(value)] = self.values.length;\n        self.values.push(value);\n        self.exists[hash(value)] = true;\n        return true;\n    }\n\n    function remove(StringSet storage self, string memory value)\n        public\n        returns (bool)\n    {\n        if (!self.exists[hash(value)]) {\n            return false;\n        }\n        uint index = indexOf(self, value);\n        pop(self, index);\n        return true;\n    }\n\n    function pop(StringSet storage self, uint index)\n        public\n        inBounds(self, index)\n        returns (string memory)\n    {\n        string memory value = get(self, index);\n\n        if (index != self.values.length - 1) {\n            string memory lastValue = last(self);\n            bytes32 hlastValue = hash(lastValue);\n            self.exists[hlastValue] = false;\n            set(self, index, lastValue);\n            self.indices[hlastValue] = index;\n        }\n        self.values.length -= 1;\n\n        bytes32 hvalue = hash(value);\n        delete self.indices[hvalue];\n        delete self.exists[hvalue];\n\n        return value;\n    }\n\n    function replace(StringSet storage self, string memory old, string memory nu)\n        public\n        returns (bool)\n    {\n        return remove(self, old) && add(self, nu);\n    }\n\n    function first(StringSet storage self)\n        public\n        view\n        notEmpty(self)\n        returns (string memory)\n    {\n        return get(self, 0);\n    }\n\n    function last(StringSet storage self)\n        public\n        view\n        notEmpty(self)\n        returns (string memory)\n    {\n        return get(self, self.values.length - 1);\n    }\n\n    function indexOf(StringSet storage self, string memory value)\n        public\n        view\n        returns (uint)\n    {\n        bytes32 hvalue = hash(value);\n        if (!self.exists[hvalue]) {\n            return uint(-1);\n        }\n        return self.indices[hvalue];\n    }\n\n    function contains(StringSet storage self, string memory value)\n        public\n        view\n        returns (bool)\n    {\n        return self.exists[hash(value)];\n    }\n\n    function size(StringSet storage self)\n        public\n        view\n        returns (uint)\n    {\n        return self.values.length;\n    }\n}",
  "sourcePath": "/home/bryn/projects/conscience/protocol/eth/contracts/StringSetLib.sol",
  "compiler": {
    "name": "solc",
    "version": "0.5.0+commit.1d4f565a.Emscripten.clang"
  },
  "schemaVersion": "3.0.2",
  "updatedAt": "2019-03-12T08:08:49.316Z",
  "devdoc": {
    "author": "Piper Merriam <pipermerriam@gmail.com>, Eric Olszewski <eolszewski@gmail.com> Adapted from https://github.com/ethpm/ethereum-indexed-enumerable-set-lib/blob/master/contracts/IndexedEnumerableSetLib.sol",
    "methods": {},
    "title": "Library implementing an array type which allows O(1) lookups on values."
  },
  "userdoc": {
    "methods": {}
  }
}