{
  "contractName": "UintSetLib",
  "abi": [
    {
      "constant": true,
      "inputs": [
        {
          "name": "self",
          "type": "UintSetLib.UintSet storage"
        },
        {
          "name": "index",
          "type": "uint256"
        }
      ],
      "name": "get",
      "outputs": [
        {
          "name": "",
          "type": "uint256"
        }
      ],
      "payable": false,
      "stateMutability": "view",
      "type": "function"
    },
    {
      "constant": false,
      "inputs": [
        {
          "name": "self",
          "type": "UintSetLib.UintSet storage"
        },
        {
          "name": "index",
          "type": "uint256"
        },
        {
          "name": "value",
          "type": "uint256"
        }
      ],
      "name": "set",
      "outputs": [
        {
          "name": "",
          "type": "bool"
        }
      ],
      "payable": false,
      "stateMutability": "nonpayable",
      "type": "function"
    },
    {
      "constant": false,
      "inputs": [
        {
          "name": "self",
          "type": "UintSetLib.UintSet storage"
        },
        {
          "name": "value",
          "type": "uint256"
        }
      ],
      "name": "add",
      "outputs": [
        {
          "name": "",
          "type": "bool"
        }
      ],
      "payable": false,
      "stateMutability": "nonpayable",
      "type": "function"
    },
    {
      "constant": false,
      "inputs": [
        {
          "name": "self",
          "type": "UintSetLib.UintSet storage"
        },
        {
          "name": "value",
          "type": "uint256"
        }
      ],
      "name": "remove",
      "outputs": [
        {
          "name": "",
          "type": "bool"
        }
      ],
      "payable": false,
      "stateMutability": "nonpayable",
      "type": "function"
    },
    {
      "constant": false,
      "inputs": [
        {
          "name": "self",
          "type": "UintSetLib.UintSet storage"
        },
        {
          "name": "index",
          "type": "uint256"
        }
      ],
      "name": "pop",
      "outputs": [
        {
          "name": "",
          "type": "uint256"
        }
      ],
      "payable": false,
      "stateMutability": "nonpayable",
      "type": "function"
    },
    {
      "constant": true,
      "inputs": [
        {
          "name": "self",
          "type": "UintSetLib.UintSet storage"
        }
      ],
      "name": "first",
      "outputs": [
        {
          "name": "",
          "type": "uint256"
        }
      ],
      "payable": false,
      "stateMutability": "view",
      "type": "function"
    },
    {
      "constant": true,
      "inputs": [
        {
          "name": "self",
          "type": "UintSetLib.UintSet storage"
        }
      ],
      "name": "last",
      "outputs": [
        {
          "name": "",
          "type": "uint256"
        }
      ],
      "payable": false,
      "stateMutability": "view",
      "type": "function"
    },
    {
      "constant": true,
      "inputs": [
        {
          "name": "self",
          "type": "UintSetLib.UintSet storage"
        },
        {
          "name": "value",
          "type": "uint256"
        }
      ],
      "name": "indexOf",
      "outputs": [
        {
          "name": "",
          "type": "uint256"
        }
      ],
      "payable": false,
      "stateMutability": "view",
      "type": "function"
    },
    {
      "constant": true,
      "inputs": [
        {
          "name": "self",
          "type": "UintSetLib.UintSet storage"
        },
        {
          "name": "value",
          "type": "uint256"
        }
      ],
      "name": "contains",
      "outputs": [
        {
          "name": "",
          "type": "bool"
        }
      ],
      "payable": false,
      "stateMutability": "view",
      "type": "function"
    },
    {
      "constant": true,
      "inputs": [
        {
          "name": "self",
          "type": "UintSetLib.UintSet storage"
        }
      ],
      "name": "size",
      "outputs": [
        {
          "name": "",
          "type": "uint256"
        }
      ],
      "payable": false,
      "stateMutability": "view",
      "type": "function"
    }
  ],
  "bytecode": "0x61088d610030600b82828239805160001a6073146000811461002057610022565bfe5b5030600052607381538281f3fe73000000000000000000000000000000000000000030146080604052600436106100bb576000357c0100000000000000000000000000000000000000000000000000000000900463ffffffff1680630f8189f0146100c057806318c9a2451461010c57806342116eb21461015c57806364045ba8146101c357806364729dc71461020f5780636a22e341146102685780637c53e5c6146102aa5780638ea6454b14610307578063a077cdee14610364578063ae9f1b91146103a6575b600080fd5b6100f6600480360360408110156100d657600080fd5b8101908080359060200190929190803590602001909291905050506103e8565b6040518082815260200191505060405180910390f35b6101426004803603604081101561012257600080fd5b810190808035906020019092919080359060200190929190505050610427565b604051808215151515815260200191505060405180910390f35b81801561016857600080fd5b506101a96004803603606081101561017f57600080fd5b81019080803590602001909291908035906020019092919080359060200190929190505050610454565b604051808215151515815260200191505060405180910390f35b6101f9600480360360408110156101d957600080fd5b810190808035906020019092919080359060200190929190505050610514565b6040518082815260200191505060405180910390f35b81801561021b57600080fd5b506102526004803603604081101561023257600080fd5b810190808035906020019092919080359060200190929190505050610586565b6040518082815260200191505060405180910390f35b6102946004803603602081101561027e57600080fd5b8101908080359060200190929190505050610688565b6040518082815260200191505060405180910390f35b8180156102b657600080fd5b506102ed600480360360408110156102cd57600080fd5b8101908080359060200190929190803590602001909291905050506106be565b604051808215151515815260200191505060405180910390f35b81801561031357600080fd5b5061034a6004803603604081101561032a57600080fd5b810190808035906020019092919080359060200190929190505050610779565b604051808215151515815260200191505060405180910390f35b6103906004803603602081101561037a57600080fd5b81019080803590602001909291905050506107d2565b6040518082815260200191505060405180910390f35b6103d2600480360360208110156103bc57600080fd5b81019080803590602001909291905050506107ff565b6040518082815260200191505060405180910390f35b6000828281600001805490508110151561040157600080fd5b846000018481548110151561041257fe5b90600052602060002001549250505092915050565b600082600101600083815260200190815260200160002060009054906101000a900460ff16905092915050565b6000838381600001805490508110151561046d57600080fd5b85600101600085815260200190815260200160002060009054906101000a900460ff161561049e576000925061050b565b8386600001868154811015156104b057fe5b9060005260206000200181905550600186600101600086815260200190815260200160002060006101000a81548160ff0219169083151502179055508486600201600086815260200190815260200160002081905550600192505b50509392505050565b600082600101600083815260200190815260200160002060009054906101000a900460ff161515610567577fffffffffffffffffffffffffffffffffffffffffffffffffffffffffffffffff9050610580565b8260020160008381526020019081526020016000205490505b92915050565b6000828281600001805490508110151561059f57600080fd5b60006105ab86866103e8565b90506001866000018054905003851415156106235760006105cb87610688565b9050600087600101600083815260200190815260200160002060006101000a81548160ff021916908315150217905550610606878783610454565b508587600201600083815260200190815260200160002081905550505b6001866000018181805490500391508161063d9190610810565b508560020160008281526020019081526020016000206000905585600101600082815260200190815260200160002060006101000a81549060ff021916905580935050505092915050565b60008160008160000180549050141515156106a257600080fd5b6106b68360018560000180549050036103e8565b915050919050565b600082600101600083815260200190815260200160002060009054906101000a900460ff16156106f15760009050610773565b82600001805490508360020160008481526020019081526020016000208190555082600001829080600181540180825580915050906001820390600052602060002001600090919290919091505550600183600101600084815260200190815260200160002060006101000a81548160ff021916908315150217905550600190505b92915050565b600082600101600083815260200190815260200160002060009054906101000a900460ff1615156107ad57600090506107cc565b60006107b98484610514565b90506107c58482610586565b5060019150505b92915050565b60008160008160000180549050141515156107ec57600080fd5b6107f78360006103e8565b915050919050565b600081600001805490509050919050565b81548183558181111561083757818360005260206000209182019101610836919061083c565b5b505050565b61085e91905b8082111561085a576000816000905550600101610842565b5090565b9056fea165627a7a72305820c027a5588687eb47d4cc8ed97f6be34f7a16dfcc62472eb1c20f2221f61561d20029",
  "source": "pragma solidity ^0.5.0;\n\n/// @title Library implementing an array type which allows O(1) lookups on values.\n/// @author Piper Merriam <pipermerriam@gmail.com>, Eric Olszewski <eolszewski@gmail.com>\n/// Adapted from https://github.com/ethpm/ethereum-indexed-enumerable-set-lib/blob/master/contracts/IndexedEnumerableSetLib.sol\nlibrary UintSetLib {\n\n    struct UintSet {\n        uint[] values;\n        mapping(uint => bool) exists;\n        mapping(uint => uint) indices;\n    }\n\n    modifier inBounds(UintSet storage self, uint index) {\n        require(index < self.values.length);\n        _;\n    }\n\n    modifier notEmpty(UintSet storage self) {\n        require(self.values.length != 0);\n        _;\n    }\n\n    function get(UintSet storage self, uint index) public view\n        inBounds(self, index)\n        returns (uint)\n    {\n        return self.values[index];\n    }\n\n    function set(UintSet storage self, uint index, uint value) public\n        inBounds(self, index)\n        returns (bool)\n    {\n        if (self.exists[value])\n            return false;\n        self.values[index] = value;\n        self.exists[value] = true;\n        self.indices[value] = index;\n        return true;\n    }\n\n    function add(UintSet storage self, uint value) public\n        returns (bool)\n    {\n        if (self.exists[value])\n            return false;\n        self.indices[value] = self.values.length;\n        self.values.push(value);\n        self.exists[value] = true;\n        return true;\n    }\n\n    function remove(UintSet storage self, uint value) public\n        returns (bool)\n    {\n        if (!self.exists[value])\n            return false;\n        uint index = indexOf(self, value);\n        pop(self, index);\n        return true;\n    }\n\n    function pop(UintSet storage self, uint index) public\n        inBounds(self, index)\n        returns (uint)\n    {\n        uint value = get(self, index);\n\n        if (index != self.values.length - 1) {\n            uint lastValue = last(self);\n            self.exists[lastValue] = false;\n            set(self, index, lastValue);\n            self.indices[lastValue] = index;\n        }\n        self.values.length -= 1;\n\n        delete self.indices[value];\n        delete self.exists[value];\n\n        return value;\n    }\n\n    function first(UintSet storage self) public view\n        notEmpty(self)\n        returns (uint)\n    {\n        return get(self, 0);\n    }\n\n    function last(UintSet storage self) public view\n        notEmpty(self)\n        returns (uint)\n    {\n        return get(self, self.values.length - 1);\n    }\n\n    function indexOf(UintSet storage self, uint value) public view\n        returns (uint)\n    {\n        if (!self.exists[value])\n            return uint(-1);\n        return self.indices[value];\n    }\n\n    function contains(UintSet storage self, uint value) public view\n        returns (bool)\n    {\n        return self.exists[value];\n    }\n\n    function size(UintSet storage self) public view\n        returns (uint)\n    {\n        return self.values.length;\n    }\n}",
  "sourcePath": "/home/bryn/projects/conscience/protocol/eth/contracts/UintSetLib.sol",
  "compiler": {
    "name": "solc",
    "version": "0.5.0+commit.1d4f565a.Emscripten.clang"
  },
  "schemaVersion": "3.0.10",
  "updatedAt": "2019-06-17T23:53:39.414Z",
  "devdoc": {
    "author": "Piper Merriam <pipermerriam@gmail.com>, Eric Olszewski <eolszewski@gmail.com> Adapted from https://github.com/ethpm/ethereum-indexed-enumerable-set-lib/blob/master/contracts/IndexedEnumerableSetLib.sol",
    "methods": {},
    "title": "Library implementing an array type which allows O(1) lookups on values."
  },
  "userdoc": {
    "methods": {}
  }
}